S019000056616C6B7972696550726F746F747970652E73726563EE
S1130000ABC10000CFC10000CDC10000CBC10000D6
S1130010C9C10000C7C10000C5C10000C3C10000C0
S1130020C1C10000BFC100000C94050B0C94280B47
S1130030B9C10000FAC200000C94AC0B0C94E40BA0
S11300400C941C0C0C94540C0C948C0C0C94C40C3C
S11300500C94FC0C0C94340D0C946C0D0C94A40DA9
S1130060A1C100009FC100009DC100009BC1000010
S113007099C1000097C1000095C1000093C1000020
S113008091C100008FC100008DC100008BC1000030
S113009089C1000087C1000085C10000DFC70000DE
S11300A00C946B080C94A8080C94E5087BC1000020
S11300B079C1000077C100001CC300000C940C102F
S11300C00C9444100C947C100C94B4100C94EC100C
S11300D00C9424110C945C110C9494110C94CC1178
S11300E00C9404125FC100005DC100005BC10000FC
S11300F059C100000C947F1755C1000053C1000082
S113010051C100004FC100004DC100004BC10000AF
S113011049C1000047C1000045C10000ABC6000052
S1130120E6C6000021C700005CC700003BC1000018
S1130130AEC200000C94DC0D0C94140E0C944C0E06
S11301400C94840E0C94BC0E0C94F40E0C942C0F92
S11301500C94640F0C949C0F0C94D40F23C10000D6
S113016021C100001FC100001DC100001BC100000F
S113017019C1000017C1000015C1000013C100001F
S113018011C100000FC100000DC100000BC100002F
S113019009C1000007C1000005C1000003C100003F
S11301A001C10000FFC00000FDC00000D4C2000077
S11301B00C943C120C9474120C94AC120C94E41233
S11301C00C941C130C9454130C948C130C94C4139F
S11301D00C94FC130C943414E5C00000E3C000003C
S11301E0E1C00000DFC00000DDC00000DBC0000093
S11301F0D9C00000D7C00000D5C00000080000002E
S1130200BE922449123EABAAAA2ABECDCCCC4C3E07
S113021000000080BEABAAAAAA3E00000000BF00F6
S11302200000803F0000000000084178D3BB4387F2
S1130230D1133D190E3CC3BD4282AD2B3E68EC8206
S113024076BED98FE1A93E4C80EFFFBE01C4FF7F8B
S11302503F00000000006E616E00696E66000040A1
S11302607A10F35A00A0724E18090010A5D4E800C1
S113027000E87648170000E40B54020000CA9A3BD9
S1130280000000E1F505000080969800000040425F
S11302900F000000A08601000000102700000000ED
S11302A0E803000000006400000000000A000000F1
S11302B000000100000000002C76D888DC674F089D
S11302C023DFC1DFAE59E1B1B796E5E3E453C63AA3
S11302D0E651997696E8E6C28426EB898C9B62ED1A
S11302E0407C6FFCEFBC9C9F40F2BAA56FA5F490D4
S11302F0055A2AF75C936B6CF9676DC11BFCE0E44B
S11303000D47FEF520E6B500D0ED902E03009435A0
S113031077050080841E080000204E0A000000C8F3
S11303200C333333330F986E12831141EF8D211444
S1130330893BE65516CFFEE6DB18D1844B381BF714
S11303407C1D901DA4BBE424203284725E228100B3
S1130350C9F124ECA1E53D2711241FBECFEFCDBF89
S1130360DFE3DEBF00E00CBF18BE19BE1ABE1BBE21
S113037010E2A0E0B0E2EAE4F3E400E00BBF02C064
S113038007900D92AA3DB107D9F71BBE21E2AAED51
S1130390B0E201C01D92A935B207E1F70E94B81777
S11303A00C94A3212DCECF93DF931F92CDB7DEB74C
S11303B080913F2190914021E0913721F0913821A3
S11303C0BE016F5F7F4F19958981082E000C990B30
S11303D00F90DF91CF910895811522E0920769F47F
S11303E08091DB2091E0980F9093DB20811114C061
S11303F062E081E00C94DA0A08958034924061F45A
S11304008091DA2091E0980F9093DA20811104C052
S113041062E082E00C94DA0A0895811522E09207E2
S113042061F48091DB2081508093DB20811113C023
S113043062E081E00C94F00A08958034924059F40B
S11304408091DA2081508093DA20811104C062E027
S113045082E00C94F00A0895EF92FF921F93CF93D9
S1130460DF931F921F92CDB7DEB77C018FB78983CC
S1130470F8941981C701B0DFF7018081816080831E
S11304801FBF809142218F3F09F4FFCF8FB78A832A
S1130490F8949A81E1E4F1E281818F5F81839FBFC7
S11304A00F900F90DF91CF911F91FF90EF900895DF
S11304B01F93CF93DF931F921F92CDB7DEB72FB751
S11304C02983F8941981FC0120812E7F2083A5DFE4
S11304D01FBF80914221811101C0FFCF8FB78A8352
S11304E0F8949A81E1E4F1E28181815081839FBF94
S11304F00F900F90DF91CF911F910895CF93DF93C9
S1130500E091DC20F091DD20848183FF08C08860C5
S1130510848383E0838386EF8093E62083C0982FCF
S1130520947131F083E083838FEF8093E6207AC067
S113053086FF43C0CCEDD0E2AA81BB818C819D8132
S113054014962D913C911597821793076CF49C0196
S11305502F5F3F4F2093E0203093E120A80FB91F75
S113056011968C9187835EC08091E2209091E32064
S113057018962D913C91199782179307C8F42091EE
S1130580E420222321F08681816086834BC0169665
S11305902D913C911797AC014F5F5F4F4093E22040
S11305A05093E320D901A80FB91F8C9187833AC0D7
S11305B083E083831092E62035C0882384F5ACED74
S11305C0B0E21296CD91DC91139716968D919C9181
S11305D017972885398582179307D8F46E817F8110
S11305E09C012F5F3F4F2093E2203093E32047810B
S11305F0DB01A80FB91F4C93888599852817390703
S113060018F482E083830EC087E083831092E6208F
S113061009C083E0838389EF8093E62003C08BEFD6
S11306208093E620DF91CF9108951F920F920FB629
S11306300F92112408B60F9218BE09B60F9219BE74
S11306400BB60F921BBE2F933F934F935F936F9301
S11306507F938F939F93AF93BF93EF93FF934EDF5B
S1130660FF91EF91BF91AF919F918F917F916F9186
S11306705F914F913F912F910F900BBE0F9009BE48
S11306800F9008BE0F900FBE0F901F9018951F92E9
S11306900F920FB60F92112408B60F9218BE09B626
S11306A00F9219BE0BB60F921BBE2F933F934F931D
S11306B05F936F937F938F939F93AF93BF93EF93C6
S11306C0FF931CDFFF91EF91BF91AF919F918F91A9
S11306D07F916F915F914F913F912F910F900BBE3E
S11306E00F9009BE0F9008BE0F900FBE0F901F9081
S11306F018951F920F920FB60F92112408B60F92FD
S113070018BE09B60F9219BE0BB60F921BBE2F93DB
S11307103F934F935F936F937F938F939F93AF9385
S1130720BF93EF93FF93EADEFF91EF91BF91AF91F7
S11307309F918F917F916F915F914F913F912F91F5
S11307400F900BBE0F9009BE0F9008BE0F900FBE06
S11307500F901F9018951F920F920FB60F921124AD
S113076008B60F9218BE09B60F9219BE0BB60F92B7
S11307701BBE2F933F934F935F936F937F938F93FE
S11307809F93AF93BF93EF93FF93B8DEFF91EF91E5
S1130790BF91AF919F918F917F916F915F914F9195
S11307A03F912F910F900BBE0F9009BE0F9008BE82
S11307B00F900FBE0F901F901895FC01918195FF2B
S11307C0FDCF608380E090E00895FC01918199233E
S11307D0ECF7808108954F925F926F927F928F928F
S11307E09F92AF92BF92EF92FF920F931F93CF937A
S11307F07C014A015B0128013901FC01848182FFEB
S113080016C0D901C801689412F8B695A7959795B2
S113081087951694D1F7B901A801032E36E1769590
S11308206795579547953A95D1F7302D15C0D9015D
S1130830C801689413F8B695A7959795879516946B
S1130840D1F7B901A801032E37E17695679557953D
S113085047953A95D1F7302D88159905AA05BB051A
S113086008F4A6C084169506A606B70608F4A2C026
S1130870F701848182FD04C0880C991CAA1CBB1C4E
S1130880C301B201A50194010E942A1E2F3F310524
S11308904105510508F490C08FEF90E0A0E0B0E06E
S11308A0C9EF05C0281739074A075B0758F0880FB6
S11308B0991FAA1FBB1FCD3F0CF48160CF5FC730C7
S11308C089F74FC0CC230CF04CC0D501C401880F6C
S11308D0991FAA1FBB1F880F991FAA1FBB1F880F30
S11308E0991FAA1FBB1F481A590A6A0A7B0ACE3FDE
S11308F0F4F48DEF9FEF8C1B9109C7FD939504C011
S1130900440C551C661C771C8A95D2F7D501C4018A
S1130910B695A79597958795BC01CD01640D751D76
S1130920861D971DA50194010E942A1E37C083E0ED
S11309308C0FA501940104C0220F331F441F551FBF
S11309408A95D2F7DA01C901B695A7959795879547
S1130950BC01CD01640D751D861D971D0E942A1EC4
S11309601DC083E08C0FA501940104C0220F331F26
S1130970441F551F8A95D2F7DA01C901B695A79588
S113098097958795BC01CD01640D751D861D971D36
S11309900E942A1E2150310941095109832F8F7069
S11309A0C295C07FC82BF701C783268381E018C096
S11309B080E016C080E014C0D501C401880F991FDF
S11309C0AA1FBB1F880F991FAA1FBB1F880F991F3F
S11309D0AA1FBB1F481A590A6A0A7B0AC9EF89CFA2
S11309E0CF911F910F91FF90EF90BF90AF909F9088
S11309F08F907F906F905F904F9008950F931F9307
S1130A00CF93DF93EC018B01009709F436C1803C4E
S1130A10910521F460E180E0CDD52FC1C03484E09C
S1130A20D80721F468E080E0C5D527C1C115E4E00A
S1130A30DE0721F464E080E0BDD51FC1C038F1E0D9
S1130A40DF0721F462E080E0B5D517C1C11581E06C
S1130A50D80721F461E080E0ADD50FC1C038E3E0F0
S1130A60DE0721F461E081E0A5D507C1C039F3E0D8
S1130A70DF0721F461E082E09DD5FFC0C11582E06B
S1130A80D80721F462E081E095D5F7C0C034E2E0F4
S1130A90DE0721F462E082E08DD5EFC0C115F3E0FA
S1130AA0DF0721F464E081E085D5E7C0C03283E04C
S1130AB0D80721F464E082E07DD5DFC0C115E8E009
S1130AC0DE0721F461E083E075D5D7C0C115F9E0F4
S1130AD0DF0721F461E084E06DD5CFC0C1158AE061
S1130AE0D80721F461E085E065D5C7C0C115EBE006
S1130AF0DE0721F461E086E05DD5BFC0C034F8E0D4
S1130B00DF0721F462E083E055D5B7C0C03489E043
S1130B10D80721F462E084E04DD5AFC0C034EAE0E8
S1130B20DE0721F462E085E045D5A7C0C034FBE0D0
S1130B30DF0721F462E086E03DD59FC0C03988E03C
S1130B40D80721F464E083E035D597C0C039E9E0E3
S1130B50DE0721F464E084E02DD58FC0C039FAE0CB
S1130B60DF0721F464E085E025D587C0C0398BE038
S1130B70D80721F464E086E01DD57FC0C03CE8E0DE
S1130B80DE0721F468E083E015D577C0C03CF9E0C6
S1130B90DF0721F468E084E00DD56FC0C03C8AE033
S1130BA0D80721F468E085E005D567C0C03CEBE0D8
S1130BB0DE0721F468E086E0FDD45FC0C03AF8E0C7
S1130BC0DF0721F460E183E0F5D457C0C03A89E03F
S1130BD0D80721F460E184E0EDD44FC0C03AEAE0E4
S1130BE0DE0721F460E185E0E5D447C0C03AFBE0CC
S1130BF0DF0721F460E186E0DDD43FC0C03B88E03C
S1130C00D80721F460E283E0D5D437C0C03BE9E0E3
S1130C10DE0721F460E284E0CDD42FC0C03BFAE0CB
S1130C20DF0721F460E285E0C5D427C0C03B8BE038
S1130C30D80721F460E286E0BDD41FC0C038E4E0E8
S1130C40DE0721F460E483E0B5D417C0C039F4E0D2
S1130C50DF0721F460E484E0ADD40FC0C03A84E03F
S1130C60D80721F460E485E0A5D407C0C03BE4E0E4
S1130C70DE0719F460E486E09DD48D818F738D8343
S1130C80F80195818481892B9681911198E0892BB3
S1130C908D83F801408151816281738100E018E401
S1130CA028EE31E0CE0197DD9C8198609C839C8185
S1130CB090619C83DF91CF911F910F910895EF92E2
S1130CC0FF920F931F93CF93DF93CDB7DEB72B978C
S1130CD0CDBFDEBF7C01062F142FBE016F5F7F4F97
S1130CE01BD3AE01485F5F4F602FC7019AD38A813F
S1130CF09B819F789B83817E8A831C8286E08D837F
S1130D00103138F018861051110F110F110F198777
S1130D1006C081E08887110F110F110F19878A818E
S1130D208F778A838B8182608B83BE016F5F7F4F55
S1130D30C70188D2AE01485F5F4F602FC70125D33A
S1130D402B96CDBFDEBFDF91CF911F910F91FF9006
S1130D50EF900895EF92FF920F931F93CF93DF9339
S1130D601F92CDB7DEB77C01162F76DB8FB7898350
S1130D70F8949981F7018081212F220F220F822B71
S1130D8080839FBFF701868181231813FBCF1683CD
S1130D90812F837021F41695169582E001C080E0BE
S1130DA010FF8F5FF701B09698E0899FE00DF11D69
S1130DB0112404811581C7017BDBB80180E090E038
S1130DC00E943E190F90DF91CF911F910F91FF90D8
S1130DD0EF90089546E061E080E092E070DF84E106
S1130DE090E20C94D31F089561E080E092E0B2DFBA
S1130DF020E030E040E859E30E94111A2AE037ED80
S1130E0043E25DE30E9471189B01AC0163E373E369
S1130E1083E590E40E94D61820E030E040E85FE3E8
S1130E200E94711820E030E04AE754E40E94111A4D
S1130E3020E030E44CE156E40E94D6180E94D11917
S1130E4023E63DE14BE959E30E94111A2FE03FEC00
S1130E504BE55BE30E9472189B01AC0160E070E01B
S1130E6080E89FE30E94D61823E333E948E853E47B
S1130E700C9471181F920F920FB60F92112408B69A
S1130E800F9218BE09B60F9219BE0BB60F921BBE75
S1130E902F933F934F935F936F937F938F939F937E
S1130EA0AF93BF93EF93FF93409124025091250297
S1130EB0E0913B21F0913C2161E080E092E01995C2
S1130EC0FF91EF91BF91AF919F918F917F916F911E
S1130ED05F914F913F912F910F900BBE0F9009BEE0
S1130EE00F9008BE0F900FBE0F901F9018951F9281
S1130EF00F920FB60F92112408B60F9218BE09B6BE
S1130F000F9219BE0BB60F921BBE2F933F934F93B4
S1130F105F936F937F938F939F93AF93BF93EF935D
S1130F20FF9340912C0250912D02E0913B21F091CE
S1130F303C2162E080E092E01995FF91EF91BF912E
S1130F40AF919F918F917F916F915F914F913F915D
S1130F502F910F900BBE0F9009BE0F9008BE0F90FB
S1130F600FBE0F901F9018951F920F920FB60F92FD
S1130F70112408B60F9218BE09B60F9219BE0BB60B
S1130F800F921BBE2F933F934F935F936F937F9367
S1130F908F939F93AF93BF93EF93FF93409134024A
S1130FA050913502E0913B21F0913C2164E080E0D6
S1130FB092E01995FF91EF91BF91AF919F918F911D
S1130FC07F916F915F914F913F912F910F900BBE45
S1130FD00F9009BE0F9008BE0F900FBE0F901F9088
S1130FE018951F920F920FB60F92112408B60F9204
S1130FF018BE09B60F9219BE0BB60F921BBE2F93E3
S11310003F934F935F936F937F938F939F93AF938C
S1131010BF93EF93FF9340913C0250913D02E091C6
S11310203B21F0913C2168E080E092E01995FF912A
S1131030EF91BF91AF919F918F917F916F915F914C
S11310404F913F912F910F900BBE0F9009BE0F90BF
S113105008BE0F900FBE0F901F9018951F920F920D
S11310600FB60F92112408B60F9218BE09B60F924C
S113107019BE0BB60F921BBE2F933F934F935F93F2
S11310806F937F938F939F93AF93BF93EF93FF934C
S11310904091640250916502E0913921F0913A2126
S11310A061E080E492E01995FF91EF91BF91AF91D7
S11310B09F918F917F916F915F914F913F912F916C
S11310C00F900BBE0F9009BE0F9008BE0F900FBE7D
S11310D00F901F9018951F920F920FB60F92112424
S11310E008B60F9218BE09B60F9219BE0BB60F922E
S11310F01BBE2F933F934F935F936F937F938F9375
S11311009F93AF93BF93EF93FF9340916C025091E1
S11311106D02E0913921F0913A2162E080E492E09D
S11311201995FF91EF91BF91AF919F918F917F910D
S11311306F915F914F913F912F910F900BBE0F9044
S113114009BE0F9008BE0F900FBE0F901F90189508
S11311501F920F920FB60F92112408B60F9218BE69
S113116009B60F9219BE0BB60F921BBE2F933F9375
S11311704F935F936F937F938F939F93AF93BF939B
S1131180EF93FF934091740250917502E0913921DD
S1131190F0913A2164E080E492E01995FF91EF9197
S11311A0BF91AF919F918F917F916F915F914F917B
S11311B03F912F910F900BBE0F9009BE0F9008BE68
S11311C00F900FBE0F901F9018951F920F920FB69D
S11311D00F92112408B60F9218BE09B60F9219BEC9
S11311E00BB60F921BBE2F933F934F935F936F9356
S11311F07F938F939F93AF93BF93EF93FF9340910C
S11312007C0250917D02E0913921F0913A2168E00D
S113121080E492E01995FF91EF91BF91AF919F9176
S11312208F917F916F915F914F913F912F910F908B
S11312300BBE0F9009BE0F9008BE0F900FBE0F900B
S11312401F901895BF92CF92DF92EF92FF920F9367
S11312501F93CF93DF931F92CDB7DEB78C017B0131
S1131260811522E0920781F461E270E082E00E943D
S11312706C14C82ED12C60E270E082E00E946C14E1
S1131280DC2CCC24C82A12C080349240D1F565E20B
S113129070E082E00E946C14C82ED12C64E270E0ED
S11312A082E00E946C14DC2CCC24C82A8FB789837A
S11312B0F894B980C80190D8F801808192E09083B5
S11312C0C486D586F70125813681F801208F318FB8
S11312D0F7019281F8019283F7019481F8019483D4
S11312E0F7019381F8019383F7019181F8019183C8
S11312F08170F7019081892BF8018083C8018DD812
S1131300BFBE0F90DF91CF911F910F91FF90EF908F
S1131310DF90CF90BF900895DF92EF92FF920F93EA
S11313201F93CF93DF931F92CDB7DEB78C017B0160
S11313308FB78983F894D980C8014ED8F801808189
S1131340807CF7018083F801808D918DF70185837E
S11313509683F8018281F7018283F8018481F70181
S11313608483F8018381F7018383F8018181F70184
S11313708183C80152D8DFBE0F90DF91CF911F91B6
S11313800F91FF90EF90DF900895AF92BF92CF92AC
S1131390DF92EF92FF920F931F93CF93DF931F92ED
S11313A0CDB7DEB76C01B62E7A01862F837029F48F
S11313B0962F9695969582E002C0962F80E090FF36
S11313C08F5F8601005E1F4F98E0899F000D111DFD
S11313D011248FB78983F894A980C6010E94EC0177
S11313E0F7018081F8018083F7018281F80182830B
S11313F0F7018181F8018183B0FE04C0F701838184
S1131400F8018683C60109D8AFBE0F90DF91CF9152
S11314101F910F91FF90EF90DF90CF90BF90AF900E
S11314200895AF92BF92CF92DF92EF92FF920F9303
S11314301F93CF93DF931F92CDB7DEB76C01B62E07
S11314407A01862F837029F4962F9695969582E0DB
S113145002C0962F80E090FF8F5F8601005E1F4FD1
S113146098E0899F000D111D11248FB78983F8948A
S1131470A980C6010E94EC01F8018081F7018083F4
S1131480F8018281F7018283F8018181F701818368
S1131490B0FE04C0F8018681F7018383C6010E946F
S11314A00D02AFBE0F90DF91CF911F910F91FF906E
S11314B0EF90DF90CF90BF90AF900895682F809108
S11314C03F2190914021E0913D21F0913E211995D9
S11314D099231CF081E090E008958FEF9FEF089529
S11314E0EF92FF920F931F93CF93DF937C018B01B5
S11314F0EA01209739F0F80161918F01C7015DD9A4
S11315002197C9F780E0DF91CF911F910F91FF9050
S1131510EF900895EF92FF920F931F93CF93DF9371
S11315207C018B01EA01209739F0C7014ED9F801FB
S113153081938F012197C9F780E0DF91CF911F91AB
S11315400F91FF90EF900895CF93DF931F921F9216
S1131550CDB7DEB78FEF80937000809371008093D6
S1131560720080937300809374008093750080935D
S113157076008FB78A83F8949A81E0E5F0E0808161
S1131580826080839FBF818181FFFDCF61E080E421
S113159090E00E9476148FB78983F8949981E0E5EE
S11315A0F0E080818E7F80839FBF0F900F90DF914A
S11315B0CF910895CF93DF931F92CDB7DEB79FB736
S11315C09983F8949981E82FF0E0E059FF4F6095F2
S11315D08081682360839FBF0F90DF91CF9108952E
S11315E0CF93DF931F92CDB7DEB79FB79983F8945B
S11315F09981E82FF0E0E059FF4F8081682B6083E8
S11316009FBF0F90DF91CF9108951F920F920FB655
S11316100F92112408B60F9218BE0BB60F921BBE80
S11316208F939F93EF93FF93E7E4F1E2808191819D
S1131630019680839183FF91EF919F918F910F90F9
S11316400BBE0F9008BE0F900FBE0F901F90189501
S11316501F920F920FB60F92112408B60F9218BE64
S113166009B60F9219BE0BB60F921BBECF92DF9232
S1131670EF92FF920F931F932F933F934F935F9398
S11316806F937F938F939F93AF93BF93EF93FF9346
S1131690E7E4F1E28081918122813381821793070B
S11316A0F0F121E020930204E0914D21F0914E21CC
S11316B03097A9F16091080470910904A0E0B0E0AA
S11316C0DC0199278827AB0160E070E08C019D0163
S11316D0042B152B262B372BC901B801A7E4B1E243
S11316E012960D911C91139720E030E09801112778
S11316F000271496CD90DC901597E12CF12C0C2941
S11317001D292E293F29061717072807390730F006
S1131710C901B8016F5F7F4F8F4F9F4F1995FF919C
S1131720EF91BF91AF919F918F917F916F915F9155
S11317304F913F912F911F910F91FF90EF90DF9068
S1131740CF900F900BBE0F9009BE0F9008BE0F9064
S11317500FBE0F901F9018951F920F920FB60F9205
S1131760112408B60F9218BE09B60F9219BE0BB613
S11317700F921BBE2F933F934F935F936F937F936F
S11317808F939F93AF93BF93EF93FF93E091352192
S1131790F0913621309709F01995FF91EF91BF919F
S11317A0AF919F918F917F916F915F914F913F91F5
S11317B02F910F900BBE0F9009BE0F9008BE0F9093
S11317C00FBE0F901F9018951F920F920FB60F9295
S11317D0112408B60F9218BE09B60F9219BE0BB6A3
S11317E00F921BBE2F933F934F935F936F937F93FF
S11317F08F939F93AF93BF93EF93FF93E091332124
S1131800F0913421309709F01995FF91EF91BF9130
S1131810AF919F918F917F916F915F914F913F9184
S11318202F910F900BBE0F9009BE0F9008BE0F9022
S11318300FBE0F901F9018951F920F920FB60F9224
S1131840112408B60F9218BE09B60F9219BE0BB632
S11318500F921BBE2F933F934F935F936F937F938E
S11318608F939F93AF93BF93EF93FF93E0913121B5
S1131870F0913221309709F01995FF91EF91BF91C2
S1131880AF919F918F917F916F915F914F913F9114
S11318902F910F900BBE0F9009BE0F9008BE0F90B2
S11318A00FBE0F901F9018951F920F920FB60F92B4
S11318B0112408B60F9218BE09B60F9219BE0BB6C2
S11318C00F921BBE2F933F934F935F936F937F931E
S11318D08F939F93AF93BF93EF93FF93E0912F2147
S11318E0F0913021309709F01995FF91EF91BF9154
S11318F0AF919F918F917F916F915F914F913F91A4
S11319002F910F900BBE0F9009BE0F9008BE0F9041
S11319100FBE0F901F9018951F920F920FB60F9243
S1131920112408B60F9218BE09B60F9219BE0BB651
S11319300F921BBE2F933F934F935F936F937F93AD
S11319408F939F93AF93BF93EF93FF93E0912D21D8
S1131950F0912E21309709F01995FF91EF91BF91E5
S1131960AF919F918F917F916F915F914F913F9133
S11319702F910F900BBE0F9009BE0F9008BE0F90D1
S11319800FBE0F901F9018951F920F920FB60F92D3
S1131990112408B60F9218BE09B60F9219BE0BB6E1
S11319A00F921BBE2F933F934F935F936F937F933D
S11319B08F939F93AF93BF93EF93FF93E0912B216A
S11319C0F0912C21309709F01995FF91EF91BF9177
S11319D0AF919F918F917F916F915F914F913F91C3
S11319E02F910F900BBE0F9009BE0F9008BE0F9061
S11319F00FBE0F901F9018951F920F920FB60F9263
S1131A00112408B60F9218BE09B60F9219BE0BB670
S1131A100F921BBE2F933F934F935F936F937F93CC
S1131A208F939F93AF93BF93EF93FF93E0912921FB
S1131A30F0912A21309709F01995FF91EF91BF9108
S1131A40AF919F918F917F916F915F914F913F9152
S1131A502F910F900BBE0F9009BE0F9008BE0F90F0
S1131A600FBE0F901F9018951F920F920FB60F92F2
S1131A70112408B60F9218BE09B60F9219BE0BB600
S1131A800F921BBE2F933F934F935F936F937F935C
S1131A908F939F93AF93BF93EF93FF93E09127218D
S1131AA0F0912821309709F01995FF91EF91BF919A
S1131AB0AF919F918F917F916F915F914F913F91E2
S1131AC02F910F900BBE0F9009BE0F9008BE0F9080
S1131AD00FBE0F901F9018951F920F920FB60F9282
S1131AE0112408B60F9218BE09B60F9219BE0BB690
S1131AF00F921BBE2F933F934F935F936F937F93EC
S1131B008F939F93AF93BF93EF93FF93E09125211E
S1131B10F0912621309709F01995FF91EF91BF912B
S1131B20AF919F918F917F916F915F914F913F9171
S1131B302F910F900BBE0F9009BE0F9008BE0F900F
S1131B400FBE0F901F9018951F920F920FB60F9211
S1131B50112408B60F9218BE09B60F9219BE0BB61F
S1131B600F921BBE2F933F934F935F936F937F937B
S1131B708F939F93AF93BF93EF93FF93E0912321B0
S1131B80F0912421309709F01995FF91EF91BF91BD
S1131B90AF919F918F917F916F915F914F913F9101
S1131BA02F910F900BBE0F9009BE0F9008BE0F909F
S1131BB00FBE0F901F9018951F920F920FB60F92A1
S1131BC0112408B60F9218BE09B60F9219BE0BB6AF
S1131BD00F921BBE2F933F934F935F936F937F930B
S1131BE08F939F93AF93BF93EF93FF93E091212142
S1131BF0F0912221309709F01995FF91EF91BF914F
S1131C00AF919F918F917F916F915F914F913F9190
S1131C102F910F900BBE0F9009BE0F9008BE0F902E
S1131C200FBE0F901F9018951F920F920FB60F9230
S1131C30112408B60F9218BE09B60F9219BE0BB63E
S1131C400F921BBE2F933F934F935F936F937F939A
S1131C508F939F93AF93BF93EF93FF93E0911F21D3
S1131C60F0912021309709F01995FF91EF91BF91E0
S1131C70AF919F918F917F916F915F914F913F9120
S1131C802F910F900BBE0F9009BE0F9008BE0F90BE
S1131C900FBE0F901F9018951F920F920FB60F92C0
S1131CA0112408B60F9218BE09B60F9219BE0BB6CE
S1131CB00F921BBE2F933F934F935F936F937F932A
S1131CC08F939F93AF93BF93EF93FF93E0911D2165
S1131CD0F0911E21309709F01995FF91EF91BF9172
S1131CE0AF919F918F917F916F915F914F913F91B0
S1131CF02F910F900BBE0F9009BE0F9008BE0F904E
S1131D000FBE0F901F9018951F920F920FB60F924F
S1131D10112408B60F9218BE09B60F9219BE0BB65D
S1131D200F921BBE2F933F934F935F936F937F93B9
S1131D308F939F93AF93BF93EF93FF93E0911B21F6
S1131D40F0911C21309709F01995FF91EF91BF9103
S1131D50AF919F918F917F916F915F914F913F913F
S1131D602F910F900BBE0F9009BE0F9008BE0F90DD
S1131D700FBE0F901F9018951F920F920FB60F92DF
S1131D80112408B60F9218BE09B60F9219BE0BB6ED
S1131D900F921BBE2F933F934F935F936F937F9349
S1131DA08F939F93AF93BF93EF93FF93E091192188
S1131DB0F0911A21309709F01995FF91EF91BF9195
S1131DC0AF919F918F917F916F915F914F913F91CF
S1131DD02F910F900BBE0F9009BE0F9008BE0F906D
S1131DE00FBE0F901F9018951F920F920FB60F926F
S1131DF0112408B60F9218BE09B60F9219BE0BB67D
S1131E000F921BBE2F933F934F935F936F937F93D8
S1131E108F939F93AF93BF93EF93FF93E091172119
S1131E20F0911821309709F01995FF91EF91BF9126
S1131E30AF919F918F917F916F915F914F913F915E
S1131E402F910F900BBE0F9009BE0F9008BE0F90FC
S1131E500FBE0F901F9018951F920F920FB60F92FE
S1131E60112408B60F9218BE09B60F9219BE0BB60C
S1131E700F921BBE2F933F934F935F936F937F9368
S1131E808F939F93AF93BF93EF93FF93E0911521AB
S1131E90F0911621309709F01995FF91EF91BF91B8
S1131EA0AF919F918F917F916F915F914F913F91EE
S1131EB02F910F900BBE0F9009BE0F9008BE0F908C
S1131EC00FBE0F901F9018951F920F920FB60F928E
S1131ED0112408B60F9218BE09B60F9219BE0BB69C
S1131EE00F921BBE2F933F934F935F936F937F93F8
S1131EF08F939F93AF93BF93EF93FF93E09113213D
S1131F00F0911421309709F01995FF91EF91BF9149
S1131F10AF919F918F917F916F915F914F913F917D
S1131F202F910F900BBE0F9009BE0F9008BE0F901B
S1131F300FBE0F901F9018951F920F920FB60F921D
S1131F40112408B60F9218BE09B60F9219BE0BB62B
S1131F500F921BBE2F933F934F935F936F937F9387
S1131F608F939F93AF93BF93EF93FF93E0911121CE
S1131F70F0911221309709F01995FF91EF91BF91DB
S1131F80AF919F918F917F916F915F914F913F910D
S1131F902F910F900BBE0F9009BE0F9008BE0F90AB
S1131FA00FBE0F901F9018951F920F920FB60F92AD
S1131FB0112408B60F9218BE09B60F9219BE0BB6BB
S1131FC00F921BBE2F933F934F935F936F937F9317
S1131FD08F939F93AF93BF93EF93FF93E0910F2160
S1131FE0F0911021309709F01995FF91EF91BF916D
S1131FF0AF919F918F917F916F915F914F913F919D
S11320002F910F900BBE0F9009BE0F9008BE0F903A
S11320100FBE0F901F9018951F920F920FB60F923C
S1132020112408B60F9218BE09B60F9219BE0BB64A
S11320300F921BBE2F933F934F935F936F937F93A6
S11320408F939F93AF93BF93EF93FF93E0910D21F1
S1132050F0910E21309709F01995FF91EF91BF91FE
S1132060AF919F918F917F916F915F914F913F912C
S11320702F910F900BBE0F9009BE0F9008BE0F90CA
S11320800FBE0F901F9018951F920F920FB60F92CC
S1132090112408B60F9218BE09B60F9219BE0BB6DA
S11320A00F921BBE2F933F934F935F936F937F9336
S11320B08F939F93AF93BF93EF93FF93E0910B2183
S11320C0F0910C21309709F01995FF91EF91BF9190
S11320D0AF919F918F917F916F915F914F913F91BC
S11320E02F910F900BBE0F9009BE0F9008BE0F905A
S11320F00FBE0F901F9018951F920F920FB60F925C
S1132100112408B60F9218BE09B60F9219BE0BB669
S11321100F921BBE2F933F934F935F936F937F93C5
S11321208F939F93AF93BF93EF93FF93E091092114
S1132130F0910A21309709F01995FF91EF91BF9121
S1132140AF919F918F917F916F915F914F913F914B
S11321502F910F900BBE0F9009BE0F9008BE0F90E9
S11321600FBE0F901F9018951F920F920FB60F92EB
S1132170112408B60F9218BE09B60F9219BE0BB6F9
S11321800F921BBE2F933F934F935F936F937F9355
S11321908F939F93AF93BF93EF93FF93E0910721A6
S11321A0F0910821309709F01995FF91EF91BF91B3
S11321B0AF919F918F917F916F915F914F913F91DB
S11321C02F910F900BBE0F9009BE0F9008BE0F9079
S11321D00FBE0F901F9018951F920F920FB60F927B
S11321E0112408B60F9218BE09B60F9219BE0BB689
S11321F00F921BBE2F933F934F935F936F937F93E5
S11322008F939F93AF93BF93EF93FF93E091052137
S1132210F0910621309709F01995FF91EF91BF9144
S1132220AF919F918F917F916F915F914F913F916A
S11322302F910F900BBE0F9009BE0F9008BE0F9008
S11322400FBE0F901F9018951F920F920FB60F920A
S1132250112408B60F9218BE09B60F9219BE0BB618
S11322600F921BBE2F933F934F935F936F937F9374
S11322708F939F93AF93BF93EF93FF93E0910321C9
S1132280F0910421309709F01995FF91EF91BF91D6
S1132290AF919F918F917F916F915F914F913F91FA
S11322A02F910F900BBE0F9009BE0F9008BE0F9098
S11322B00FBE0F901F9018951F920F920FB60F929A
S11322C0112408B60F9218BE09B60F9219BE0BB6A8
S11322D00F921BBE2F933F934F935F936F937F9304
S11322E08F939F93AF93BF93EF93FF93E09101215B
S11322F0F0910221309709F01995FF91EF91BF9168
S1132300AF919F918F917F916F915F914F913F9189
S11323102F910F900BBE0F9009BE0F9008BE0F9027
S11323200FBE0F901F9018951F920F920FB60F9229
S1132330112408B60F9218BE09B60F9219BE0BB637
S11323400F921BBE2F933F934F935F936F937F9393
S11323508F939F93AF93BF93EF93FF93E091FF20ED
S1132360F0910021309709F01995FF91EF91BF91F9
S1132370AF919F918F917F916F915F914F913F9119
S11323802F910F900BBE0F9009BE0F9008BE0F90B7
S11323900FBE0F901F9018951F920F920FB60F92B9
S11323A0112408B60F9218BE09B60F9219BE0BB6C7
S11323B00F921BBE2F933F934F935F936F937F9323
S11323C08F939F93AF93BF93EF93FF93E091FD207F
S11323D0F091FE20309709F01995FF91EF91BF918C
S11323E0AF919F918F917F916F915F914F913F91A9
S11323F02F910F900BBE0F9009BE0F9008BE0F9047
S11324000FBE0F901F9018951F920F920FB60F9248
S1132410112408B60F9218BE09B60F9219BE0BB656
S11324200F921BBE2F933F934F935F936F937F93B2
S11324308F939F93AF93BF93EF93FF93E091FB2010
S1132440F091FC20309709F01995FF91EF91BF911D
S1132450AF919F918F917F916F915F914F913F9138
S11324602F910F900BBE0F9009BE0F9008BE0F90D6
S11324700FBE0F901F9018951F920F920FB60F92D8
S1132480112408B60F9218BE09B60F9219BE0BB6E6
S11324900F921BBE2F933F934F935F936F937F9342
S11324A08F939F93AF93BF93EF93FF93E091F920A2
S11324B0F091FA20309709F01995FF91EF91BF91AF
S11324C0AF919F918F917F916F915F914F913F91C8
S11324D02F910F900BBE0F9009BE0F9008BE0F9066
S11324E00FBE0F901F9018951F920F920FB60F9268
S11324F0112408B60F9218BE09B60F9219BE0BB676
S11325000F921BBE2F933F934F935F936F937F93D1
S11325108F939F93AF93BF93EF93FF93E091F72033
S1132520F091F820309709F01995FF91EF91BF9140
S1132530AF919F918F917F916F915F914F913F9157
S11325402F910F900BBE0F9009BE0F9008BE0F90F5
S11325500FBE0F901F9018951F920F920FB60F92F7
S1132560112408B60F9218BE09B60F9219BE0BB605
S11325700F921BBE2F933F934F935F936F937F9361
S11325808F939F93AF93BF93EF93FF93E091F520C5
S1132590F091F620309709F01995FF91EF91BF91D2
S11325A0AF919F918F917F916F915F914F913F91E7
S11325B02F910F900BBE0F9009BE0F9008BE0F9085
S11325C00FBE0F901F9018951F920F920FB60F9287
S11325D0112408B60F9218BE09B60F9219BE0BB695
S11325E00F921BBE2F933F934F935F936F937F93F1
S11325F08F939F93AF93BF93EF93FF93E091F32057
S1132600F091F420309709F01995FF91EF91BF9163
S1132610AF919F918F917F916F915F914F913F9176
S11326202F910F900BBE0F9009BE0F9008BE0F9014
S11326300FBE0F901F9018951F920F920FB60F9216
S1132640112408B60F9218BE09B60F9219BE0BB624
S11326500F921BBE2F933F934F935F936F937F9380
S11326608F939F93AF93BF93EF93FF93E091F120E8
S1132670F091F220309709F01995FF91EF91BF91F5
S1132680AF919F918F917F916F915F914F913F9106
S11326902F910F900BBE0F9009BE0F9008BE0F90A4
S11326A00FBE0F901F9018951F920F920FB60F92A6
S11326B0112408B60F9218BE09B60F9219BE0BB6B4
S11326C00F921BBE2F933F934F935F936F937F9310
S11326D08F939F93AF93BF93EF93FF93E091EF207A
S11326E0F091F020309709F01995FF91EF91BF9187
S11326F0AF919F918F917F916F915F914F913F9196
S11327002F910F900BBE0F9009BE0F9008BE0F9033
S11327100FBE0F901F9018951F920F920FB60F9235
S1132720112408B60F9218BE09B60F9219BE0BB643
S11327300F921BBE2F933F934F935F936F937F939F
S11327408F939F93AF93BF93EF93FF93E091ED200B
S1132750F091EE20309709F01995FF91EF91BF9118
S1132760AF919F918F917F916F915F914F913F9125
S11327702F910F900BBE0F9009BE0F9008BE0F90C3
S11327800FBE0F901F9018951F920F920FB60F92C5
S1132790112408B60F9218BE09B60F9219BE0BB6D3
S11327A00F921BBE2F933F934F935F936F937F932F
S11327B08F939F93AF93BF93EF93FF93E091EB209D
S11327C0F091EC20309709F01995FF91EF91BF91AA
S11327D0AF919F918F917F916F915F914F913F91B5
S11327E02F910F900BBE0F9009BE0F9008BE0F9053
S11327F00FBE0F901F9018951F920F920FB60F9255
S1132800112408B60F9218BE09B60F9219BE0BB662
S11328100F921BBE2F933F934F935F936F937F93BE
S11328208F939F93AF93BF93EF93FF93E091E9202E
S1132830F091EA20309709F01995FF91EF91BF913B
S1132840AF919F918F917F916F915F914F913F9144
S11328502F910F900BBE0F9009BE0F9008BE0F90E2
S11328600FBE0F901F9018951F920F920FB60F92E4
S1132870112408B60F9218BE09B60F9219BE0BB6F2
S11328800F921BBE2F933F934F935F936F937F934E
S11328908F939F93AF93BF93EF93FF93E091E720C0
S11328A0F091E820309709F01995FF91EF91BF91CD
S11328B0AF919F918F917F916F915F914F913F91D4
S11328C02F910F900BBE0F9009BE0F9008BE0F9072
S11328D00FBE0F901F9018954091CA01E62FF72F55
S11328E08093CA0184914093CA0108951BBEFC01E0
S11328F028ED24BF60830895CF93DF93FC0120E08B
S113290030E0C62FD0E0DE01022E02C0B595A795B7
S11329100A94E2F7A0FD508B2F5F3F4F3196283089
S1132920310589F740FF0AC041FF03C0FC016583FC
S113293002C0FC016683FC01618302C0FC01628366
S1132940DF91CF91089543E050E068E080EC97E098
S1132950D3DF40E058E164E080EC97E0CDCF089508
S1132960CF93DF93EB010E94E5038883DF91CF913E
S113297008950C94DD030895EF92FF920F931F9333
S1132980CF93DF93CDB7DEB72797CDBFDEBF7C01F2
S1132990FC0186819781A085B18580930D20909359
S11329A00E20A0930F20B09310200190F081E02D11
S11329B09081D70115968C911597892B8083ED9181
S11329C0FC911197948115968C911597892B84838A
S11329D0ED91FC911197908114968C9114978095A8
S11329E08923808312960D911C911397011511056B
S11329F009F4C6C1003C110529F460E180E00E949D
S1132A00DA0A54C10034B4E01B0729F468E080E01A
S1132A100E94DA0A4BC10115E4E01E0729F464E0C0
S1132A2080E00E94DA0A42C10038F1E01F0729F46D
S1132A3062E080E00E94DA0A39C1011581E01807DA
S1132A4029F461E080E00E94DA0A30C10038A3E092
S1132A501A0729F461E081E00E94DA0A27C10039EB
S1132A60B3E01B0729F461E082E00E94DA0A1EC188
S1132A700115E2E01E0729F462E081E00E94DA0A0F
S1132A8015C10034F2E01F0729F462E082E00E94DD
S1132A90DA0A0CC1011583E0180729F464E081E027
S1132AA00E94DA0A03C10032A3E01A0729F464E0A1
S1132AB082E00E94DA0AFAC00115B8E01B0729F483
S1132AC061E083E00E94DA0AF1C00115E9E01E0723
S1132AD029F461E084E00E94DA0AE8C00115FAE012
S1132AE01F0729F461E085E00E94DA0ADFC00115BE
S1132AF08BE0180729F461E086E00E94DA0AD6C068
S1132B000034A8E01A0729F462E083E00E94DA0A9C
S1132B10CDC00034B9E01B0729F462E084E00E94D0
S1132B20DA0AC4C00034EAE01E0729F462E085E052
S1132B300E94DA0ABBC00034FBE01F0729F462E0FC
S1132B4086E00E94DA0AB2C0003988E0180729F446
S1132B5064E083E00E94DA0AA9C00039A9E01A07F8
S1132B6029F464E084E00E94DA0AA0C00039BAE0E3
S1132B701B0729F464E085E00E94DA0A97C0003953
S1132B80EBE01E0729F464E086E00E94DA0A8EC0B6
S1132B90003CF8E01F0729F468E083E00E94DA0AA9
S1132BA085C0003C89E0180729F468E084E00E94AD
S1132BB0DA0A7CC0003CAAE01A0729F468E085E040
S1132BC00E94DA0A73C0003CBBE01B0729F468E0EA
S1132BD086E00E94DA0A6AC0003AE8E01E0729F497
S1132BE060E183E00E94DA0A61C0003AF9E01F075D
S1132BF029F460E184E00E94DA0A58C0003A8AE0CD
S1132C00180729F460E185E00E94DA0A4FC0003A0F
S1132C10ABE01A0729F460E186E00E94DA0A46C0B4
S1132C20003BB8E01B0729F460E283E00E94DA0A63
S1132C303DC0003BE9E01E0729F460E284E00E9405
S1132C40DA0A34C0003BFAE01F0729F460E285E0A9
S1132C500E94DA0A2BC0003B8BE0180729F460E2DB
S1132C6086E00E94DA0A22C00038A4E01A0729F498
S1132C7060E483E00E94DA0A19C00039B4E01B075B
S1132C8029F460E484E00E94DA0A10C0003AE4E027
S1132C901E0729F460E485E00E94DA0A07C0003BBD
S1132CA0144021F460E486E00E94DA0AD701129607
S1132CB00D911C911397EDE0F0E284818D83858161
S1132CC08E8386818F8380819181A281B381898360
S1132CD09A83AB83BC837801003AB8E01B0729F4DC
S1132CE060E183E00E94DA0A13C0003BE8E01E07BB
S1132CF029F460E283E00E94DA0A14C0F0EAEF16D5
S1132D00F9E0FF0629F460E184E00E94DA0A14C0C5
S1132D1080EBE81689E0F80629F460E284E00E947A
S1132D20DA0A14C0A0EAEA16AAE0FA0629F460E175
S1132D3085E00E94DA0A14C0B0EBEB16BAE0FB0699
S1132D4029F460E285E00E94DA0A13C0E0EAEE1694
S1132D50EBE0FE0629F460E186E00E94DA0A09C08D
S1132D60F0EBEF16FBE0FF0621F460E286E00E9440
S1132D70DA0ABE016F5F7F4FC8010E94FE0413C0D0
S1132D80EDE0F0E284818D8385818E8386818F835B
S1132D9080819181A281B38189839A83AB83BC832F
S1132DA0E12CF12CABCF2796CDBFDEBFDF91CF91C5
S1132DB01F910F91FF90EF900895EF92FF920F9360
S1132DC01F93CF93DF93CDB7DEB72A97CDBFDEBF76
S1132DD02B833C83B70142E050E08B819C810E94AD
S1132DE08A0A2A96CDBFDEBFDF91CF911F910F9142
S1132DF0FF90EF900895EF92FF920F931F93CF935C
S1132E00DF93CDB7DEB72A97CDBFDEBF2B833C83DC
S1132E10B70142E050E08B819C810E94700A2A969F
S1132E20CDBFDEBFDF91CF911F910F91FF90EF9047
S1132E300895FC0180E895E2A0E0B0E086839783E2
S1132E40A087B18780E896E08083918380EB9AE045
S1132E508283938387E2858386E284830895CF9374
S1132E60DF93CDB7DEB72797CDBFDEBF60E185E046
S1132E700E94DA0AE0E8F6E080818860808380EAD4
S1132E809AE080933F219093402189EB94E18093D1
S1132E903D2190933E2180EB94E1809337219093E0
S1132EA03821E6E0F0E284818D8385818E838681FA
S1132EB08F8380819181A281B38189839A83AB833B
S1132EC0BC8360E185E00E94DA0ABE016F5F7F4F38
S1132ED080EA9AE00E94FE0463ED71E08EE59AE0D8
S1132EE0C9D78CE290E20E94D31F81E590E20E9450
S1132EF0D31F2796CDBFDEBFDF91CF9108951F92D8
S1132F000F920FB60F92112408B60F9218BE09B68D
S1132F100F9219BE0BB60F921BBE2F933F934F9384
S1132F205F936F937F938F939F93AF93BF93EF932D
S1132F30FF9382E690E29F938F930E94C01F0F90AD
S1132F400F90FF91EF91BF91AF919F918F917F91DE
S1132F506F915F914F913F912F910F900BBE0F9006
S1132F6009BE0F9008BE0F900FBE0F901F901895CA
S1132F70CF93DF93CDB7DEB7C05AD109CDBFDEBF43
S1132F80E2DC0E94A40A6BDFE0EAF0E087E08283DF
S1132F90828180688283789487E690E20E94D31FBE
S1132FA00E94EA0680E090E044DF80E090E0E4DC08
S1132FB00F2EF0E5EF2EF0E2FF2EF02D00B111B14F
S1132FC022B133B144B155B166B177B188B199B189
S1132FD012DF0F2EF4E7EF2EF0E2FF2EF02D00B1FA
S1132FE011B122B133B144B155B166B177B188B1F1
S1132FF099B101DF0F2EF5E8EF2EF0E2FF2EF02D50
S113300000B111B122B133B144B155B166B177B158
S113301088B199B1F0DE0F2EF7E9EF2EF0E2FF2E22
S1133020F02D00B111B122B133B144B155B166B143
S113303077B188B199B1DFDE0F2EF9ECEF2EF0E213
S1133040FF2EF02D00B111B122B133B144B155B10D
S113305066B177B188B199B1CEDECE0101966C012B
S11330607C0100B111B122B133B144B155B166B1A3
S113307077B188B199B1A1DEDF92CF9281D70F9059
S11330800F9056010F2EF7EDCF2EF0E2DF2EF02D2C
S11330900F2EF9ECEF2EF0E2FF2EF02D00B111B15E
S11330A022B133B144B155B166B177B188B199B1A8
S11330B0A2DE0E94F406750100B111B122B133B150
S11330C044B155B166B177B188B199B176DEBF929A
S11330D0AF92DF92CF9254D70F900F900F900F9032
S11330E0D7CF5058BB27AA270ED01CC10DD130F022
S11330F012D120F031F49F3F11F41EF402C10EF4FA
S1133100E095E7FBF8C0E92F1ED180F3BA176207F8
S113311073078407950718F071F49EF536C10EF411
S1133120E0950B2EBA2FA02D0B01B90190010C01D3
S1133130CA01A0011124FF27591B99F0593F50F4EB
S1133140503E68F11A16F040A22F232F342F442743
S1133150585FF3CF469537952795A795F04053953B
S1133160C9F77EF41F16BA0B620B730B840BBAF00B
S11331709150A1F0FF0FBB1F661F771F881FC2F776
S11331800EC0BA0F621F731F841F48F4879577958A
S11331906795B795F7959E3F08F0B3CF9395880F41
S11331A008F09927EE0F9795879508950CD0BAC02B
S11331B0B2D040F0A9D030F021F45F3F19F09BC0A9
S11331C05111E4C09EC0BFD098F39923C9F355238D
S11331D0B1F3951B550BBB27AA2762177307840706
S11331E038F09F5F5F4F220F331F441FAA1FA9F3BC
S11331F033D00E2E3AF0E0E830D091505040E695AE
S1133200001CCAF729D0FE2F27D0660F771F881F0E
S1133210BB1F261737074807AB07B0E809F0BB0BFD
S1133220802DBF01FF2793585F4F2AF09E3F510521
S113323068F061C0ABC05F3FECF3983EDCF3869569
S113324077956795B795F7959F5FC9F7880F911D97
S11332509695879597F90895E1E0660F771F881F83
S1133260BB1F621773078407BA0720F0621B730B36
S1133270840BBA0BEE1F88F7E0950895E89409C013
S113328097FB3EF490958095709561957F4F8F4F95
S11332909F4F9923A9F0F92F96E9BB279395F695AB
S11332A0879577956795B795F111F8CFFAF4BB0F29
S11332B011F460FF1BC06F5F7F4F8F4F9F4F16C08D
S11332C0882311F096E911C0772321F09EE8872F17
S11332D0762F05C0662371F096E8862F70E060E0D3
S11332E02AF09A95660F771F881FDAF7880F96954C
S11332F0879597F9089597F99F6780E870E060E0F3
S113330008959FEF80EC089500240A94161617067A
S113331018060906089500240A94121613061406C2
S113332005060895092E0394000C11F4882352F025
S1133330BB0F40F4BF2B11F460FF04C06F5F7F4FDD
S11333408F4F9F4F089557FD9058440F551F59F0C4
S11333505F3F71F04795880F97FB991F61F09F3F7E
S113336079F087950895121613061406551FF2CFA7
S11333704695F1DF08C0161617061806991FF1CFF7
S113338086957105610508940895E894BB2766271E
S11333907727CB0197F908950EF0A6C0B2CF6894B1
S11333A0AACFD9DFC8F39923D1F3C6F3DF93CF9320
S11333B01F930F93FF92C92FDD2788232AF02197AB
S11333C0660F771F881FDAF720E030E040E85FEBF4
S11333D09FE3883920F0803E30F021968F7782DE9B
S11333E0ECEFF1E003C07EDEE9E2F2E08BD08B018A
S11333F0BE01EC01FB2E6F5771097595771F880B81
S1133400990B3EDF28E132E741E35FE316D0AF2DAD
S11334109801AE01FF900F911F91CF91DF9173DE60
S113342081CF0BD07FCF70DF28F075DF18F09523A4
S113343009F061CF66CF1124A9CF85DFA0F3959F52
S1133440D1F3950F50E0551F629FF001729FBB2787
S1133450F00DB11D639FAA27F00DB11DAA1F649F33
S11334606627B00DA11D661F829F2227B00DA11DE6
S1133470621F739FB00DA11D621F839FA00D611D6C
S1133480221F749F3327A00D611D231F849F600D8D
S1133490211D822F762F6A2F11249F5750408AF0C6
S11334A0E1F088234AF0EE0FFF1FBB1F661F771F52
S11334B0881F91505040A9F79E3F510570F01BCFD3
S11334C065CF5F3FECF3983EDCF38695779567957F
S11334D0B795F795E7959F5FC1F7FE2B880F911D70
S11334E09695879597F908959F3F31F0915020F470
S11334F0879577956795B795880F911D96958795CC
S113350097F90895DF93CF931F930F93FF92EF9250
S1133510DF927B018C01689405C0DA2EEF018DDF08
S1133520FE01E894A5912591359145915591AEF30D
S1133530EF01E9DDFE019701A801DA9479F7DF9044
S1133540EF90FF900F911F91CF91DF9108952F92EB
S11335503F924F925F926F927F928F929F92AF921F
S1133560BF92CF92DF92EF92FF920F931F93CF936C
S1133570DF93CDB7DEB76097CDBFDEBF7C011B0103
S11335806A01FC0116821782838181FF2AC39E018E
S11335902F5F3F4F3901F7019381F10193FD85912D
S11335A093FF81911F01882309F417C3853239F4ED
S11335B093FD859193FF81911F01853231F4B70109
S11335C090E0A2D456016501E6CF10E0512C912C75
S11335D0FFE1F915D8F08B3279F038F4803279F0C4
S11335E08332A1F4F92DF0612EC08D3261F0803365
S11335F069F4292D21602DC0392D3260932E892D37
S11336008460982E2AC0E92DE86015C097FC2DC06F
S113361020ED280F2A3088F496FE06C03AE0139F66
S1133620200D1124122F19C08AE0589E200D112458
S1133630522EE92DE0629E2E10C08E3231F496FC9B
S1133640CCC2F92DF0649F2E08C08C3621F4292DAC
S11336502068922E02C0883641F4F10193FD8591D1
S113366093FF81911F018111B3CF9BEB980F93308E
S113367020F4992D9061805E07C09BE9980F9330E8
S113368008F059C1992D9F7E96FF16E09F73992EDD
S1133690853619F49064992E08C0863621F4392FA2
S11336A03068932E02C01111115097FE07C01C33CD
S11336B050F444244394410E27E00BC0183038F0F2
S11336C027E017E005C027E09CE3492E02C0212F24
S11336D0412C560184E0A80EB11CF6016081718171
S11336E082819381042DA301D7D26C01F981FC87D7
S11336F0F0FF02C0F3FF06C091FC06C092FE06C0B4
S113370000E205C00DE203C00BE201C000E08C85BD
S11337108C7019F0011143C280C297FE10C04C0C8A
S1133720FC85F4FF04C08A81813309F44A9414149B
S113373074F528E0241578F588E0482E2CC096FC12
S11337402AC0812F90E08C159D059CF03CEFC31698
S11337503FEFD30674F0892D8068982E0AC0E2E00A
S1133760F0E0EC0FFD1FE10FF11D8081803319F4AF
S113377011501111F4CF97FE0EC044244394410E0E
S1133780812F90E0C816D9062CF41C1904C04424D7
S1133790439401C010E097FE06C01C141D0434F4C9
S11337A0C601019605C085E090E002C081E090E08A
S11337B001110196112331F0212F30E02F5F3F4F8B
S11337C0820F931F252D30E08217930714F4581AA3
S11337D001C0512C892D897041F4552031F0B70175
S11337E080E290E091D35A94F8CF002321F0B701FE
S11337F0802F90E089D393FC08C0552031F0B701A5
S113380080E390E081D35A94F8CF97FE4AC04601F2
S1133810D7FE02C0812C912CC60188199909F301A5
S1133820E80FF91FED87FE879601241931092F87C8
S1133830388B012F10E01195019511093FEF831684
S1133840930621F4B7018EE290E05ED3C814D90444
S11338504CF08F8598898815990524F4ED85FE85AB
S1133860818101C080E3F1E08F1A91082D853E85A6
S11338702F5F3F4F2D873E878016910624F0B701B6
S113388090E042D3DBCFC814D90441F49A81963333
S113389020F4953319F43C8534FF81E3B70190E0BB
S11338A048C08A81813319F09C859F7E9C87B7012B
S11338B090E02AD3111105C094FC16C085E690E06F
S11338C015C0B7018EE290E01FD31E5F82E001E0D5
S11338D0080FF301E80FF11D8081B70190E014D3C4
S11338E0802F0113F4CFE8CF85E490E0B7010CD327
S11338F0D7FC06C0C114D10441F4EC85E4FF05C033
S1133900D194C194D1088DE201C08BE2B70190E05B
S1133910FBD280E32AE0C216D1042CF08F5FFAE0D8
S1133920CF1AD108F7CFB70190E0EED2B701C601A4
S1133930C096EAD249C1833631F0833779F08335B2
S113394009F052C01FC0560132E0A30EB11CF601AB
S11339508081898301E010E0630111C05601F2E027
S1133960AF0EB11CF601C080D18096FE03C0612F5A
S113397070E002C06FEF7FEFC60171D28C01F92DA8
S1133980FF7713C0560122E0A20EB11CF601C080DD
S1133990D18096FE03C0612F70E002C06FEF7FEF0D
S11339A0C60152D28C01F92DF0689F2EF3FD18C088
S11339B0852D90E00817190798F4B70180E290E08C
S11339C0A3D25A94F5CFF60197FC859197FE819185
S11339D06F01B70190E098D251105A940150110927
S11339E00115110581F7F0C0843611F0893659F5B7
S11339F0560197FE09C024E0A20EB11CF6016081B5
S1133A007181828193810AC0F2E0AF0EB11CF6018C
S1133A1060817181072E000C880B990BF92DFF76BC
S1133A209F2E97FF09C090958095709561957F4F63
S1133A308F4F9F4FF0689F2E2AE030E0A301E3D21E
S1133A40C82EC6183EC0092D853721F40F7E2AE002
S1133A5030E01DC0097F8F3691F018F4883559F095
S1133A60BCC0803719F0883711F0B7C0006104FF7B
S1133A7009C0046007C094FE08C0066006C028E0C0
S1133A8030E005C020E130E002C020E132E0560120
S1133A9007FF09C084E0A80EB11CF60160817181A2
S1133AA08281938108C0F2E0AF0EB11CF6016081FF
S1133AB0718180E090E0A301A6D2C82EC6180F77CA
S1133AC0902E96FE0BC0092D0E7FC11650F494FE65
S1133AD00AC092FC08C0092D0E7E05C0DC2C092DFD
S1133AE003C0DC2C01C0D12E04FF0DC0FE01EC0D7F
S1133AF0F11D8081803311F4097E09C002FF06C0E4
S1133B00D394D39404C0802F867809F0D39403FD12
S1133B1010C000FF06C01C2DD51478F4150D1D1916
S1133B200CC0D51450F4B70180E290E0EDD1D394E9
S1133B30F8CFD51410F45D1801C0512C04FF0FC048
S1133B40B70180E390E0E0D102FF16C001FD03C09D
S1133B5088E790E002C088E590E0B7010CC0802FB0
S1133B60867851F001FF02C08BE201C080E207FDBC
S1133B708DE2B70190E0C8D1C11630F4B70180E3FB
S1133B8090E0C2D11150F8CFCA94F301EC0DF11DAD
S1133B908081B70190E0B8D1C110F6CF15C0F4E030
S1133BA0F51550F584E0581A93FE1EC0011125C086
S1133BB02C8523FF27C006E512E0392D3071932EA2
S1133BC0F8018491811121C0552009F4FCCCB7017E
S1133BD080E290E099D15A94F7CFF70186819781DA
S1133BE023C08FEF9FEF20C0B70180E290E08CD11B
S1133BF05A945110F9CFDACF512CB701802F90E0AD
S1133C0083D1D6CF0AE512E0D8CF91108052B70104
S1133C1090E07AD10F5F1F4FD3CF23E0251510F426
S1133C2083E0C1CF512CC4CF6096CDBFDEBFDF91FE
S1133C30CF911F910F91FF90EF90DF90CF90BF90A5
S1133C40AF909F908F907F906F905F904F903F9038
S1133C502F900895A1E21A2EAA1BBB1BFD010DC0D3
S1133C60AA1FBB1FEE1FFF1FA217B307E407F50728
S1133C7020F0A21BB30BE40BF50B661F771F881F04
S1133C80991F1A9469F760957095809590959B019A
S1133C90AC01BD01CF010895283008F027E0332797
S1133CA0DA01990F311D87FD916000966105710558
S1133CB039F432602E5F3D9330E32A95E1F708959D
S1133CC09F3F30F080387105610509F03C5F3C5F2F
S1133CD03D93913008F08068911DDF93CF931F933B
S1133CE00F93FF92EF92192F987F9695E92F96954F
S1133CF09695E90FFF27E854FD4F99273327EE24C3
S1133D00FF24A701E70105900894079428F4360FCF
S1133D10E71EF81E491F511D660F771F881F991F44
S1133D200694A1F70590079428F4E70EF81E491F9E
S1133D30561FC11D770F881F991F661F0694A1F790
S1133D400590079428F4F80E491F561FC71FD11D6C
S1133D50880F991F661F771F0694A1F70590079493
S1133D6020F4490F561FC71FD81F990F661F771FCE
S1133D70881F0694A9F784911095177041F0D69581
S1133D80C79557954795F794E7941A95C1F7EEE5CB
S1133D90F2E068941590159135916591959105908F
S1133DA07FE27395E118F10A430B560BC90BD00956
S1133DB0C0F7E10CF11E431F561FC91FD01D7EF42E
S1133DC0703311F48A95E6CFE894015030F0080F6F
S1133DD00AF40027021708F4202F2395022F7A33C0
S1133DE028F079E37D932A95E9F710C07D932A950D
S1133DF089F6069497956795379517951794E11862
S1133E00F10A430B560BC90BD00998F023957E9108
S1133E1073957A3308F070E37C932013B8F77E919E
S1133E2070617D9330F0839571E37D9370E32A95FF
S1133E30E1F71124EF90FF900F911F91CF91DF9143
S1133E40992787FD90950895FC0105906150704075
S1133E500110D8F7809590958E0F9F1F0895FC014F
S1133E606150704001900110D8F7809590958E0FA5
S1133E709F1F08950F931F93CF93DF93009731F4FF
S1133E806115710519F480E090E039C08B01EC01F3
S1133E906EE070E081E090E014D1FC01892B99F38D
S1133EA080E883830115110571F00287138781E887
S1133EB0838380914F2190915021892B21F4E093A9
S1133EC04F21F09350212097C9F0C087D187838177
S1133ED0826083838091512190915221892B71F4C6
S1133EE0E0935121F09352218091532190915421D8
S1133EF0892B21F4E0935321F0935421CF01DF91D6
S1133F00CF911F910F9108950F931F93CF93DF9338
S1133F10FB01238121FD03C08FEF9FEF2CC022FF03
S1133F2016C046815781248135814217530744F4D2
S1133F30A081B1819D012F5F3F4F208331838C93FA
S1133F40268137812F5F3F4F2683378314C08B012F
S1133F50EC01FB010084F185E02D1995892BE1F634
S1133F60D80116968D919C911797019616968D936C
S1133F709C931797CE01DF91CF911F910F910895D4
S1133F80CF93DF93CDB7DEB7AE014A5F5F4FFA013F
S1133F9061917191AF018091512190915221D7DAB1
S1133FA0DF91CF9108950F931F93CF93DF93E09107
S1133FB05121F0915221238121FF1BC08C01D0E0BB
S1133FC0C0E0F80181918F016091512170915221DB
S1133FD0DB011896ED91FC911997882331F019951E
S1133FE0892B79F3DFEFCFEFECCF8AE01995892B9A
S1133FF019F08FEF9FEF02C08D2F9C2FDF91CF918F
S11340001F910F910895FA01AA27283051F1203108
S113401081F1E8946F936E7F6E5F7F4F8F4F9F4F58
S1134020AF4FB1E03ED0B4E03CD0670F781F891F9A
S11340309A1FA11D680F791F8A1F911DA11D6A0F68
S1134040711D811D911DA11D20D009F468943F911B
S11340502AE0269F11243019305D3193DEF6CF011A
S11340600895462F4770405D4193B3E00FD0C9F7E0
S1134070F6CF462F4F70405D4A3318F0495D31FD4D
S11340804052419302D0A9F7EACFB4E0A6959795A0
S1134090879577956795BA95C9F700976105710576
S11340A008959B01AC010A2E0694579547953795C0
S11340B02795BA95C9F7620F731F841F951FA01D1A
S11340C008950F931F93CF93DF93869F8001879F5B
S11340D0100D969F100D1124C8010DD0EC0100970E
S11340E021F0A80160E070E027D1CE01DF91CF91EB
S11340F01F910F9108950F931F93CF93DF938230F5
S1134100910510F482E090E0E0915721F09158215C
S113411020E030E0A0E0B0E0309719F14081518117
S11341200281138148175907C8F08417950769F469
S1134130109731F012960C93129713961C9327C084
S1134140009357211093582122C02115310519F0ED
S11341504217530718F49A01BD01EF01DF01F8017A
S1134160DBCF21153105F9F0281B390B243031053B
S113417080F48A819B816115710521F0FB018283A2
S1134180938304C08093572190935821FE01329663
S113419044C0FE01E20FF31F819391932250310931
S11341A0288339833AC02091552130915621232BFD
S11341B041F4209102203091032020935521309323
S11341C0562120910020309101202115310541F420
S11341D02DB73EB74091042050910520241B350B88
S11341E0E0915521F0915621E217F307A0F42E1B1C
S11341F03F0B2817390778F0AC014E5F5F4F241747
S1134200350748F04E0F5F1F4093552150935621B8
S11342108193919302C0E0E0F0E0CF01DF91CF9170
S11342201F910F910895CF93DF93009709F481C0F4
S1134230FC01329712821382A0915721B091582128
S1134240109781F420813181820F931F2091552191
S1134250309156212817390751F5E0935521F093F1
S1134260562167C0ED0120E030E0CE17DF0740F4AF
S11342704A815B819E0141155105F1F0EA01F5CFB8
S1134280C283D38340815181840F951FC817D907F6
S113429059F488819981840F951F029680839183B4
S11342A08A819B81828393832115310529F4E093CC
S11342B05721F09358213DC0E901EA83FB834991DA
S11342C05991C40FD51FEC17FD0761F480819181CA
S11342D0840F951F0296E9018883998382819381D3
S11342E08A839B83E0E0F0E012968D919C91139772
S11342F0009719F0FD01DC01F7CF8D919C91119786
S11343009D012E5F3F4F820F931F209155213091C5
S113431056212817390769F4309729F41092572148
S11343201092582102C012821382A0935521B09397
S11343305621DF91CF910895DC0101C06D93415066
S10D43405040E0F70895F894FFCF11
S113434A00005921200000C2010003000100C2013B
S113435A00030001546865726D6973746F722049B1
S113436A6E697469616C697A65642E000A0A0A0ABC
S113437A0A43616E7361742056616C6B7972696564
S113438A20496E697469616C697A696E672E2E2E8A
S113439A005541525420496E697469616C697A65A1
S11343AA640048656C6C0079206172652075204749
S11343BA61793F0024504D544B3232302C31303025
S11343CA302A32460024504D544B3235312C35377D
S11343DA3630302A32430024504D544B3331342C76
S11343EA302C302C302C312C302C302C302C302CDE
S11343FA302C302C302C302C302C302C302C302CCF
S113440A302C302C302A32390024504D544B31365A
S10D441A312C302A323800257300DB
S9030000FC
