:100000007EC10000A2C10000A0C100009EC100008E
:100010009CC100009AC1000098C1000096C1000078
:1000200094C1000092C10000D1C70000F2C70000D7
:100030008CC100003BC200000C948D080C94C508D4
:100040000C94FD080C9435090C946D090C94A509C9
:100050000C94DD090C94150A0C944D0A0C94850A35
:1000600074C1000072C1000070C100006EC10000C8
:100070006CC100006AC1000068C1000066C10000D8
:1000800064C1000062C1000060C100005EC10000E8
:100090005CC100005AC1000058C1000045C6000004
:1000A00080C60000BBC60000F6C600004EC10000BE
:1000B0004CC100004AC100005DC200000C94ED0C70
:1000C0000C94250D0C945D0D0C94950D0C94CD0D98
:1000D0000C94050E0C943D0E0C94750E0C94AD0E04
:1000E0000C94E50E32C1000030C100002EC10000AA
:1000F0002CC100002AC1000028C1000026C1000058
:1001000024C1000022C1000020C100001EC1000067
:100110001CC100001AC1000018C1000011C5000078
:100120004CC5000087C50000C2C500000EC100001C
:10013000EFC100000C94BD0A0C94F50A0C942D0B31
:100140000C94650B0C949D0B0C94D50B0C940D0C1E
:100150000C94450C0C947D0C0C94B50CF6C000006E
:10016000F4C00000F2C00000F0C00000EEC00000CB
:10017000ECC00000EAC00000E8C00000E6C00000DB
:10018000E4C00000E2C00000E0C00000DEC00000EB
:10019000DCC00000DAC00000D8C00000D6C00000FB
:1001A000D4C00000D2C00000D0C0000015C20000C2
:1001B0000C941D0F0C94550F0C948D0F0C94C50FBF
:1001C0000C94FD0F0C9435100C946D100C94A5102C
:1001D0000C94DD100C941511B8C00000B6C00000DE
:1001E000B4C00000B2C00000B0C00000AEC000004B
:1001F000ACC00000AAC00000A8C000006E616E0084
:10020000696E660000407A10F35A00A0724E180919
:100210000010A5D4E80000E87648170000E40B546D
:10022000020000CA9A3B000000E1F505000080963C
:100230009800000040420F000000A086010000006E
:10024000102700000000E803000000006400000028
:1002500000000A00000000000100000000002C76F1
:10026000D888DC674F0823DFC1DFAE59E1B1B7960C
:10027000E5E3E453C63AE651997696E8E6C2842669
:10028000EB898C9B62ED407C6FFCEFBC9C9F40F245
:10029000BAA56FA5F490055A2AF75C936B6CF967C1
:1002A0006DC11BFCE0E40D47FEF520E6B500D0ED86
:1002B000902E0300943577050080841E08000020EE
:1002C0004E0A000000C80C333333330F986E12838C
:1002D0001141EF8D2114893BE65516CFFEE6DB1860
:1002E000D1844B381BF77C1D901DA4BBE424203225
:1002F00084725E228100C9F124ECA1E53D2711241E
:100300001FBECFEFCDBFDFE3DEBF00E00CBF18BEE6
:1003100019BE1ABE1BBE10E2A0E0B0E2EEE4F5E3A7
:1003200000E00BBF02C007900D92AE35B107D9F7C0
:100330001BBE20E2AEE5B0E201C01D92A83EB207AE
:10034000E1F70E949D130C94A51A5ACECF93DF9328
:100350001F92CDB7DEB78091CE209091CF20E09153
:10036000C620F091C720BE016F5F7F4F199589812C
:10037000082E000C990B0F90DF91CF910895CF9329
:10038000DF93E0915E20F0915F20848183FF08C0BD
:100390008860848383E0838386EF8093682083C0B2
:1003A000982F947131F083E083838FEF80936820DE
:1003B0007AC086FF43C0CEE5D0E2AA81BB818C81A2
:1003C0009D8114962D913C911597821793076CF49B
:1003D0009C012F5F3F4F2093622030936320A80F32
:1003E000B91F11968C9187835EC080916420909193
:1003F000652018962D913C91199782179307C8F4A0
:1004000020916620222321F08681816086834BC063
:1004100016962D913C911797AC014F5F5F4F40931B
:10042000642050936520D901A80FB91F8C91878350
:100430003AC083E083831092682035C0882384F516
:10044000AEE5B0E21296CD91DC91139716968D91A0
:100450009C9117972885398582179307D8F46E8168
:100460007F819C012F5F3F4F209364203093652054
:100470004781DB01A80FB91F4C9388859985281700
:10048000390718F482E083830EC087E083831092DB
:10049000682009C083E0838389EF8093682003C0CC
:1004A0008BEF80936820DF91CF9108951F920F9278
:1004B0000FB60F92112408B60F9218BE09B60F920C
:1004C00019BE0BB60F921BBE2F933F934F935F93B2
:1004D0006F937F938F939F93AF93BF93EF93FF930C
:1004E0004EDFFF91EF91BF91AF919F918F917F91DF
:1004F0006F915F914F913F912F910F900BBE0F9095
:1005000009BE0F9008BE0F900FBE0F901F90189558
:100510001F920F920FB60F92112408B60F9218BEB9
:1005200009B60F9219BE0BB60F921BBE2F933F93C5
:100530004F935F936F937F938F939F93AF93BF93EB
:10054000EF93FF931CDFFF91EF91BF91AF919F91CC
:100550008F917F916F915F914F913F912F910F906C
:100560000BBE0F9009BE0F9008BE0F900FBE0F90EC
:100570001F9018951F920F920FB60F92112408B674
:100580000F9218BE09B60F9219BE0BB60F921BBE82
:100590002F933F934F935F936F937F938F939F938B
:1005A000AF93BF93EF93FF93EADEFF91EF91BF917B
:1005B000AF919F918F917F916F915F914F913F91FB
:1005C0002F910F900BBE0F9009BE0F9008BE0F9099
:1005D0000FBE0F901F9018951F920F920FB60F929B
:1005E000112408B60F9218BE09B60F9219BE0BB6A9
:1005F0000F921BBE2F933F934F935F936F937F9305
:100600008F939F93AF93BF93EF93FF93B8DEFF91C8
:10061000EF91BF91AF919F918F917F916F915F917A
:100620004F913F912F910F900BBE0F9009BE0F90ED
:1006300008BE0F900FBE0F901F901895FC0191817E
:1006400095FFFDCF608380E090E00895FC019181EB
:100650009923ECF7808108954F925F926F927F9279
:100660008F929F92AF92BF92EF92FF920F931F9340
:10067000CF937C014A015B0128013901FC0184818F
:1006800082FF16C0D901C801689412F8B695A795E3
:10069000979587951694D1F7B901A801032E36E1F5
:1006A00076956795579547953A95D1F7302D15C0B2
:1006B000D901C801689413F8B695A79597958795C1
:1006C0001694D1F7B901A801032E37E17695679505
:1006D000579547953A95D1F7302D88159905AA0574
:1006E000BB0508F4A6C084169506A606B70608F44E
:1006F000A2C0F701848182FD04C0880C991CAA1C49
:10070000BB1CC301B201A50194010E942C172F3F0D
:1007100031054105510508F490C08FEF90E0A0E04D
:10072000B0E0C9EF05C0281739074A075B0758F042
:10073000880F991FAA1FBB1FCD3F0CF48160CF5FAC
:10074000C73089F74FC0CC230CF04CC0D501C40191
:10075000880F991FAA1FBB1F880F991FAA1FBB1FB5
:10076000880F991FAA1FBB1F481A590A6A0A7B0AD9
:10077000CE3FF4F48DEF9FEF8C1B9109C7FD93954D
:1007800004C0440C551C661C771C8A95D2F7D50111
:10079000C401B695A79597958795BC01CD01640DC9
:1007A000751D861D971DA50194010E942C1737C049
:1007B00083E08C0FA501940104C0220F331F441F56
:1007C000551F8A95D2F7DA01C901B695A795979575
:1007D0008795BC01CD01640D751D861D971D0E9476
:1007E0002C171DC083E08C0FA501940104C0220FBB
:1007F000331F441F551F8A95D2F7DA01C901B695F8
:10080000A79597958795BC01CD01640D751D861D33
:10081000971D0E942C172150310941095109832F3E
:100820008F70C295C07FC82BF701C783268381E0F4
:1008300018C080E016C080E014C0D501C401880F44
:10084000991FAA1FBB1F880F991FAA1FBB1F880FC4
:10085000991FAA1FBB1F481A590A6A0A7B0AC9EFC7
:1008600089CFCF911F910F91FF90EF90BF90AF90E4
:100870009F908F907F906F905F904F9008950F930F
:100880001F93CF93DF93EC018B01009709F436C1DE
:10089000803C910521F460E180E082D32FC1C03417
:1008A00084E0D80721F468E080E07AD327C1C1153D
:1008B000E4E0DE0721F464E080E072D31FC1C038B9
:1008C000F1E0DF0721F462E080E06AD317C1C115CF
:1008D00081E0D80721F461E080E062D30FC1C03825
:1008E000E3E0DE0721F461E081E05AD307C1C039BB
:1008F000F3E0DF0721F461E082E052D3FFC0C115CD
:1009000082E0D80721F462E081E04AD3F7C0C03426
:10091000E2E0DE0721F462E082E042D3EFC0C115DD
:10092000F3E0DF0721F464E081E03AD3E7C0C032AE
:1009300083E0D80721F464E082E032D3DFC0C11540
:10094000E8E0DE0721F461E083E02AD3D7C0C115D7
:10095000F9E0DF0721F461E084E022D3CFC0C115C4
:100960008AE0D80721F461E085E01AD3C7C0C11539
:10097000EBE0DE0721F461E086E012D3BFC0C034B3
:10098000F8E0DF0721F462E083E00AD3B7C0C034A7
:1009900089E0D80721F462E084E002D3AFC0C0341C
:1009A000EAE0DE0721F462E085E0FAD2A7C0C034B5
:1009B000FBE0DF0721F462E086E0F2D29FC0C0399D
:1009C00088E0D80721F464E083E0EAD297C0C03918
:1009D000E9E0DE0721F464E084E0E2D28FC0C039B0
:1009E000FAE0DF0721F464E085E0DAD287C0C0399D
:1009F0008BE0D80721F464E086E0D2D27FC0C03C0F
:100A0000E8E0DE0721F468E083E0CAD277C0C03CAA
:100A1000F9E0DF0721F468E084E0C2D26FC0C03C97
:100A20008AE0D80721F468E085E0BAD267C0C03C0C
:100A3000EBE0DE0721F468E086E0B2D25FC0C03AA6
:100A4000F8E0DF0721F460E183E0AAD257C0C03AA2
:100A500089E0D80721F460E184E0A2D24FC0C03A17
:100A6000EAE0DE0721F460E185E09AD247C0C03AAF
:100A7000FBE0DF0721F460E186E092D23FC0C03B9B
:100A800088E0D80721F460E283E08AD237C0C03B17
:100A9000E9E0DE0721F460E284E082D22FC0C03BAF
:100AA000FAE0DF0721F460E285E07AD227C0C03B9C
:100AB0008BE0D80721F460E286E072D21FC0C03814
:100AC000E4E0DE0721F460E483E06AD217C0C039B5
:100AD000F4E0DF0721F460E484E062D20FC0C03AA2
:100AE00084E0D80721F460E485E05AD207C0C03B17
:100AF000E4E0DE0719F460E486E052D28D818F7362
:100B00008D83F80195818481892B9681911198E0DC
:100B1000892B8D83F801408151816281738100E0CE
:100B200018E428EE31E0CE0197DD9C8198609C832B
:100B30009C8190619C83DF91CF911F910F910895CB
:100B40001F920F920FB60F92112408B60F9218BE83
:100B500009B60F9219BE0BB60F921BBE2F933F938F
:100B60004F935F936F937F938F939F93AF93BF93B5
:100B7000EF93FF934091240250912502E091CA2007
:100B8000F091CB2061E080E092E01995FF91EF9128
:100B9000BF91AF919F918F917F916F915F914F9195
:100BA0003F912F910F900BBE0F9009BE0F9008BE82
:100BB0000F900FBE0F901F9018951F920F920FB6B7
:100BC0000F92112408B60F9218BE09B60F9219BEE3
:100BD0000BB60F921BBE2F933F934F935F936F9370
:100BE0007F938F939F93AF93BF93EF93FF93409126
:100BF0002C0250912D02E091CA20F091CB2062E0AE
:100C000080E092E01995FF91EF91BF91AF919F9194
:100C10008F917F916F915F914F913F912F910F90A5
:100C20000BBE0F9009BE0F9008BE0F900FBE0F9025
:100C30001F9018951F920F920FB60F92112408B6AD
:100C40000F9218BE09B60F9219BE0BB60F921BBEBB
:100C50002F933F934F935F936F937F938F939F93C4
:100C6000AF93BF93EF93FF934091340250913502BD
:100C7000E091CA20F091CB2064E080E092E01995E9
:100C8000FF91EF91BF91AF919F918F917F916F9164
:100C90005F914F913F912F910F900BBE0F9009BE26
:100CA0000F9008BE0F900FBE0F901F9018951F92C7
:100CB0000F920FB60F92112408B60F9218BE09B604
:100CC0000F9219BE0BB60F921BBE2F933F934F93FB
:100CD0005F936F937F938F939F93AF93BF93EF93A4
:100CE000FF9340913C0250913D02E091CA20F09167
:100CF000CB2068E080E092E01995FF91EF91BF91E1
:100D0000AF919F918F917F916F915F914F913F91A3
:100D10002F910F900BBE0F9009BE0F9008BE0F9041
:100D20000FBE0F901F9018951F920F920FB60F9243
:100D3000112408B60F9218BE09B60F9219BE0BB651
:100D40000F921BBE2F933F934F935F936F937F93AD
:100D50008F939F93AF93BF93EF93FF934091640260
:100D600050916502E091C820F091C92061E080E4D3
:100D700092E01995FF91EF91BF91AF919F918F9163
:100D80007F916F915F914F913F912F910F900BBE8B
:100D90000F9009BE0F9008BE0F900FBE0F901F90CE
:100DA00018951F920F920FB60F92112408B60F924A
:100DB00018BE09B60F9219BE0BB60F921BBE2F9329
:100DC0003F934F935F936F937F938F939F93AF93D3
:100DD000BF93EF93FF9340916C0250916D02E091AD
:100DE000C820F091C92062E080E492E01995FF915B
:100DF000EF91BF91AF919F918F917F916F915F9193
:100E00004F913F912F910F900BBE0F9009BE0F9005
:100E100008BE0F900FBE0F901F9018951F920F9253
:100E20000FB60F92112408B60F9218BE09B60F9292
:100E300019BE0BB60F921BBE2F933F934F935F9338
:100E40006F937F938F939F93AF93BF93EF93FF9392
:100E50004091740250917502E091C820F091C92030
:100E600064E080E492E01995FF91EF91BF91AF911A
:100E70009F918F917F916F915F914F913F912F91B2
:100E80000F900BBE0F9009BE0F9008BE0F900FBEC3
:100E90000F901F9018951F920F920FB60F9211246A
:100EA00008B60F9218BE09B60F9219BE0BB60F9274
:100EB0001BBE2F933F934F935F936F937F938F93BB
:100EC0009F93AF93BF93EF93FF9340917C02509118
:100ED0007D02E091C820F091C92068E080E492E0B2
:100EE0001995FF91EF91BF91AF919F918F917F9154
:100EF0006F915F914F913F912F910F900BBE0F908B
:100F000009BE0F9008BE0F900FBE0F901F9018954E
:100F1000682F8091CE209091CF20E091CC20F0914D
:100F2000CD20199599231CF081E090E008958FEF72
:100F30009FEF0895CF93DF931F921F92CDB7DEB737
:100F40008FEF809370008093710080937200809384
:100F500073008093740080937500809376008FB740
:100F60008A83F8949A81E0E5F0E080818260808352
:100F70009FBF818181FFFDCF61E080E490E00E940E
:100F800020128FB78983F8949981E0E5F0E08081A1
:100F90008E7F80839FBF0F900F90DF91CF91089538
:100FA000CF93DF931F92CDB7DEB79FB79983F894A5
:100FB0009981E82FF0E0E059FF4F60958081682328
:100FC00060839FBF0F90DF91CF9108951F920F9282
:100FD0000FB60F92112408B60F9218BE0BB60F92DF
:100FE0001BBE8F939F93EF93FF93E6EDF0E280811A
:100FF0009181019680839183FF91EF919F918F91D1
:101000000F900BBE0F9008BE0F900FBE0F901F9059
:1010100018951F920F920FB60F92112408B60F92D7
:1010200018BE09B60F9219BE0BB60F921BBECF9217
:10103000DF92EF92FF920F931F932F933F934F9363
:101040005F936F937F938F939F93AF93BF93EF9330
:10105000FF93E6EDF0E28081918122813381821756
:101060009307F0F121E020930204E091DC20F0915D
:10107000DD203097A9F16091080470910904A0E087
:10108000B0E0DC0199278827AB0160E070E08C01BB
:101090009D01042B152B262B372BC901B801A6ED7A
:1010A000B0E212960D911C91139720E030E0980168
:1010B000112700271496CD90DC901597E12CF12C88
:1010C0000C291D292E293F2906171707280739073C
:1010D00030F0C901B8016F5F7F4F8F4F9F4F199557
:1010E000FF91EF91BF91AF919F918F917F916F9100
:1010F0005F914F913F912F911F910F91FF90EF9032
:10110000DF90CF900F900BBE0F9009BE0F9008BEDE
:101110000F900FBE0F901F9018951F920F920FB651
:101120000F92112408B60F9218BE09B60F9219BE7D
:101130000BB60F921BBE2F933F934F935F936F930A
:101140007F938F939F93AF93BF93EF93FF93E09120
:10115000B720F091B820309709F01995FF91EF91E1
:10116000BF91AF919F918F917F916F915F914F91BF
:101170003F912F910F900BBE0F9009BE0F9008BEAC
:101180000F900FBE0F901F9018951F920F920FB6E1
:101190000F92112408B60F9218BE09B60F9219BE0D
:1011A0000BB60F921BBE2F933F934F935F936F939A
:1011B0007F938F939F93AF93BF93EF93FF93E091B0
:1011C000B520F091B620309709F01995FF91EF9175
:1011D000BF91AF919F918F917F916F915F914F914F
:1011E0003F912F910F900BBE0F9009BE0F9008BE3C
:1011F0000F900FBE0F901F9018951F920F920FB671
:101200000F92112408B60F9218BE09B60F9219BE9C
:101210000BB60F921BBE2F933F934F935F936F9329
:101220007F938F939F93AF93BF93EF93FF93E0913F
:10123000B320F091B420309709F01995FF91EF9108
:10124000BF91AF919F918F917F916F915F914F91DE
:101250003F912F910F900BBE0F9009BE0F9008BECB
:101260000F900FBE0F901F9018951F920F920FB600
:101270000F92112408B60F9218BE09B60F9219BE2C
:101280000BB60F921BBE2F933F934F935F936F93B9
:101290007F938F939F93AF93BF93EF93FF93E091CF
:1012A000B120F091B220309709F01995FF91EF919C
:1012B000BF91AF919F918F917F916F915F914F916E
:1012C0003F912F910F900BBE0F9009BE0F9008BE5B
:1012D0000F900FBE0F901F9018951F920F920FB690
:1012E0000F92112408B60F9218BE09B60F9219BEBC
:1012F0000BB60F921BBE2F933F934F935F936F9349
:101300007F938F939F93AF93BF93EF93FF93E0915E
:10131000AF20F091B020309709F01995FF91EF912F
:10132000BF91AF919F918F917F916F915F914F91FD
:101330003F912F910F900BBE0F9009BE0F9008BEEA
:101340000F900FBE0F901F9018951F920F920FB61F
:101350000F92112408B60F9218BE09B60F9219BE4B
:101360000BB60F921BBE2F933F934F935F936F93D8
:101370007F938F939F93AF93BF93EF93FF93E091EE
:10138000AD20F091AE20309709F01995FF91EF91C3
:10139000BF91AF919F918F917F916F915F914F918D
:1013A0003F912F910F900BBE0F9009BE0F9008BE7A
:1013B0000F900FBE0F901F9018951F920F920FB6AF
:1013C0000F92112408B60F9218BE09B60F9219BEDB
:1013D0000BB60F921BBE2F933F934F935F936F9368
:1013E0007F938F939F93AF93BF93EF93FF93E0917E
:1013F000AB20F091AC20309709F01995FF91EF9157
:10140000BF91AF919F918F917F916F915F914F911C
:101410003F912F910F900BBE0F9009BE0F9008BE09
:101420000F900FBE0F901F9018951F920F920FB63E
:101430000F92112408B60F9218BE09B60F9219BE6A
:101440000BB60F921BBE2F933F934F935F936F93F7
:101450007F938F939F93AF93BF93EF93FF93E0910D
:10146000A920F091AA20309709F01995FF91EF91EA
:10147000BF91AF919F918F917F916F915F914F91AC
:101480003F912F910F900BBE0F9009BE0F9008BE99
:101490000F900FBE0F901F9018951F920F920FB6CE
:1014A0000F92112408B60F9218BE09B60F9219BEFA
:1014B0000BB60F921BBE2F933F934F935F936F9387
:1014C0007F938F939F93AF93BF93EF93FF93E0919D
:1014D000A720F091A820309709F01995FF91EF917E
:1014E000BF91AF919F918F917F916F915F914F913C
:1014F0003F912F910F900BBE0F9009BE0F9008BE29
:101500000F900FBE0F901F9018951F920F920FB65D
:101510000F92112408B60F9218BE09B60F9219BE89
:101520000BB60F921BBE2F933F934F935F936F9316
:101530007F938F939F93AF93BF93EF93FF93E0912C
:10154000A520F091A620309709F01995FF91EF9111
:10155000BF91AF919F918F917F916F915F914F91CB
:101560003F912F910F900BBE0F9009BE0F9008BEB8
:101570000F900FBE0F901F9018951F920F920FB6ED
:101580000F92112408B60F9218BE09B60F9219BE19
:101590000BB60F921BBE2F933F934F935F936F93A6
:1015A0007F938F939F93AF93BF93EF93FF93E091BC
:1015B000A320F091A420309709F01995FF91EF91A5
:1015C000BF91AF919F918F917F916F915F914F915B
:1015D0003F912F910F900BBE0F9009BE0F9008BE48
:1015E0000F900FBE0F901F9018951F920F920FB67D
:1015F0000F92112408B60F9218BE09B60F9219BEA9
:101600000BB60F921BBE2F933F934F935F936F9335
:101610007F938F939F93AF93BF93EF93FF93E0914B
:10162000A120F091A220309709F01995FF91EF9138
:10163000BF91AF919F918F917F916F915F914F91EA
:101640003F912F910F900BBE0F9009BE0F9008BED7
:101650000F900FBE0F901F9018951F920F920FB60C
:101660000F92112408B60F9218BE09B60F9219BE38
:101670000BB60F921BBE2F933F934F935F936F93C5
:101680007F938F939F93AF93BF93EF93FF93E091DB
:101690009F20F091A020309709F01995FF91EF91CC
:1016A000BF91AF919F918F917F916F915F914F917A
:1016B0003F912F910F900BBE0F9009BE0F9008BE67
:1016C0000F900FBE0F901F9018951F920F920FB69C
:1016D0000F92112408B60F9218BE09B60F9219BEC8
:1016E0000BB60F921BBE2F933F934F935F936F9355
:1016F0007F938F939F93AF93BF93EF93FF93E0916B
:101700009D20F0919E20309709F01995FF91EF915F
:10171000BF91AF919F918F917F916F915F914F9109
:101720003F912F910F900BBE0F9009BE0F9008BEF6
:101730000F900FBE0F901F9018951F920F920FB62B
:101740000F92112408B60F9218BE09B60F9219BE57
:101750000BB60F921BBE2F933F934F935F936F93E4
:101760007F938F939F93AF93BF93EF93FF93E091FA
:101770009B20F0919C20309709F01995FF91EF91F3
:10178000BF91AF919F918F917F916F915F914F9199
:101790003F912F910F900BBE0F9009BE0F9008BE86
:1017A0000F900FBE0F901F9018951F920F920FB6BB
:1017B0000F92112408B60F9218BE09B60F9219BEE7
:1017C0000BB60F921BBE2F933F934F935F936F9374
:1017D0007F938F939F93AF93BF93EF93FF93E0918A
:1017E0009920F0919A20309709F01995FF91EF9187
:1017F000BF91AF919F918F917F916F915F914F9129
:101800003F912F910F900BBE0F9009BE0F9008BE15
:101810000F900FBE0F901F9018951F920F920FB64A
:101820000F92112408B60F9218BE09B60F9219BE76
:101830000BB60F921BBE2F933F934F935F936F9303
:101840007F938F939F93AF93BF93EF93FF93E09119
:101850009720F0919820309709F01995FF91EF911A
:10186000BF91AF919F918F917F916F915F914F91B8
:101870003F912F910F900BBE0F9009BE0F9008BEA5
:101880000F900FBE0F901F9018951F920F920FB6DA
:101890000F92112408B60F9218BE09B60F9219BE06
:1018A0000BB60F921BBE2F933F934F935F936F9393
:1018B0007F938F939F93AF93BF93EF93FF93E091A9
:1018C0009520F0919620309709F01995FF91EF91AE
:1018D000BF91AF919F918F917F916F915F914F9148
:1018E0003F912F910F900BBE0F9009BE0F9008BE35
:1018F0000F900FBE0F901F9018951F920F920FB66A
:101900000F92112408B60F9218BE09B60F9219BE95
:101910000BB60F921BBE2F933F934F935F936F9322
:101920007F938F939F93AF93BF93EF93FF93E09138
:101930009320F0919420309709F01995FF91EF9141
:10194000BF91AF919F918F917F916F915F914F91D7
:101950003F912F910F900BBE0F9009BE0F9008BEC4
:101960000F900FBE0F901F9018951F920F920FB6F9
:101970000F92112408B60F9218BE09B60F9219BE25
:101980000BB60F921BBE2F933F934F935F936F93B2
:101990007F938F939F93AF93BF93EF93FF93E091C8
:1019A0009120F0919220309709F01995FF91EF91D5
:1019B000BF91AF919F918F917F916F915F914F9167
:1019C0003F912F910F900BBE0F9009BE0F9008BE54
:1019D0000F900FBE0F901F9018951F920F920FB689
:1019E0000F92112408B60F9218BE09B60F9219BEB5
:1019F0000BB60F921BBE2F933F934F935F936F9342
:101A00007F938F939F93AF93BF93EF93FF93E09157
:101A10008F20F0919020309709F01995FF91EF9168
:101A2000BF91AF919F918F917F916F915F914F91F6
:101A30003F912F910F900BBE0F9009BE0F9008BEE3
:101A40000F900FBE0F901F9018951F920F920FB618
:101A50000F92112408B60F9218BE09B60F9219BE44
:101A60000BB60F921BBE2F933F934F935F936F93D1
:101A70007F938F939F93AF93BF93EF93FF93E091E7
:101A80008D20F0918E20309709F01995FF91EF91FC
:101A9000BF91AF919F918F917F916F915F914F9186
:101AA0003F912F910F900BBE0F9009BE0F9008BE73
:101AB0000F900FBE0F901F9018951F920F920FB6A8
:101AC0000F92112408B60F9218BE09B60F9219BED4
:101AD0000BB60F921BBE2F933F934F935F936F9361
:101AE0007F938F939F93AF93BF93EF93FF93E09177
:101AF0008B20F0918C20309709F01995FF91EF9190
:101B0000BF91AF919F918F917F916F915F914F9115
:101B10003F912F910F900BBE0F9009BE0F9008BE02
:101B20000F900FBE0F901F9018951F920F920FB637
:101B30000F92112408B60F9218BE09B60F9219BE63
:101B40000BB60F921BBE2F933F934F935F936F93F0
:101B50007F938F939F93AF93BF93EF93FF93E09106
:101B60008920F0918A20309709F01995FF91EF9123
:101B7000BF91AF919F918F917F916F915F914F91A5
:101B80003F912F910F900BBE0F9009BE0F9008BE92
:101B90000F900FBE0F901F9018951F920F920FB6C7
:101BA0000F92112408B60F9218BE09B60F9219BEF3
:101BB0000BB60F921BBE2F933F934F935F936F9380
:101BC0007F938F939F93AF93BF93EF93FF93E09196
:101BD0008720F0918820309709F01995FF91EF91B7
:101BE000BF91AF919F918F917F916F915F914F9135
:101BF0003F912F910F900BBE0F9009BE0F9008BE22
:101C00000F900FBE0F901F9018951F920F920FB656
:101C10000F92112408B60F9218BE09B60F9219BE82
:101C20000BB60F921BBE2F933F934F935F936F930F
:101C30007F938F939F93AF93BF93EF93FF93E09125
:101C40008520F0918620309709F01995FF91EF914A
:101C5000BF91AF919F918F917F916F915F914F91C4
:101C60003F912F910F900BBE0F9009BE0F9008BEB1
:101C70000F900FBE0F901F9018951F920F920FB6E6
:101C80000F92112408B60F9218BE09B60F9219BE12
:101C90000BB60F921BBE2F933F934F935F936F939F
:101CA0007F938F939F93AF93BF93EF93FF93E091B5
:101CB0008320F0918420309709F01995FF91EF91DE
:101CC000BF91AF919F918F917F916F915F914F9154
:101CD0003F912F910F900BBE0F9009BE0F9008BE41
:101CE0000F900FBE0F901F9018951F920F920FB676
:101CF0000F92112408B60F9218BE09B60F9219BEA2
:101D00000BB60F921BBE2F933F934F935F936F932E
:101D10007F938F939F93AF93BF93EF93FF93E09144
:101D20008120F0918220309709F01995FF91EF9171
:101D3000BF91AF919F918F917F916F915F914F91E3
:101D40003F912F910F900BBE0F9009BE0F9008BED0
:101D50000F900FBE0F901F9018951F920F920FB605
:101D60000F92112408B60F9218BE09B60F9219BE31
:101D70000BB60F921BBE2F933F934F935F936F93BE
:101D80007F938F939F93AF93BF93EF93FF93E091D4
:101D90007F20F0918020309709F01995FF91EF9105
:101DA000BF91AF919F918F917F916F915F914F9173
:101DB0003F912F910F900BBE0F9009BE0F9008BE60
:101DC0000F900FBE0F901F9018951F920F920FB695
:101DD0000F92112408B60F9218BE09B60F9219BEC1
:101DE0000BB60F921BBE2F933F934F935F936F934E
:101DF0007F938F939F93AF93BF93EF93FF93E09164
:101E00007D20F0917E20309709F01995FF91EF9198
:101E1000BF91AF919F918F917F916F915F914F9102
:101E20003F912F910F900BBE0F9009BE0F9008BEEF
:101E30000F900FBE0F901F9018951F920F920FB624
:101E40000F92112408B60F9218BE09B60F9219BE50
:101E50000BB60F921BBE2F933F934F935F936F93DD
:101E60007F938F939F93AF93BF93EF93FF93E091F3
:101E70007B20F0917C20309709F01995FF91EF912C
:101E8000BF91AF919F918F917F916F915F914F9192
:101E90003F912F910F900BBE0F9009BE0F9008BE7F
:101EA0000F900FBE0F901F9018951F920F920FB6B4
:101EB0000F92112408B60F9218BE09B60F9219BEE0
:101EC0000BB60F921BBE2F933F934F935F936F936D
:101ED0007F938F939F93AF93BF93EF93FF93E09183
:101EE0007920F0917A20309709F01995FF91EF91C0
:101EF000BF91AF919F918F917F916F915F914F9122
:101F00003F912F910F900BBE0F9009BE0F9008BE0E
:101F10000F900FBE0F901F9018951F920F920FB643
:101F20000F92112408B60F9218BE09B60F9219BE6F
:101F30000BB60F921BBE2F933F934F935F936F93FC
:101F40007F938F939F93AF93BF93EF93FF93E09112
:101F50007720F0917820309709F01995FF91EF9153
:101F6000BF91AF919F918F917F916F915F914F91B1
:101F70003F912F910F900BBE0F9009BE0F9008BE9E
:101F80000F900FBE0F901F9018951F920F920FB6D3
:101F90000F92112408B60F9218BE09B60F9219BEFF
:101FA0000BB60F921BBE2F933F934F935F936F938C
:101FB0007F938F939F93AF93BF93EF93FF93E091A2
:101FC0007520F0917620309709F01995FF91EF91E7
:101FD000BF91AF919F918F917F916F915F914F9141
:101FE0003F912F910F900BBE0F9009BE0F9008BE2E
:101FF0000F900FBE0F901F9018951F920F920FB663
:102000000F92112408B60F9218BE09B60F9219BE8E
:102010000BB60F921BBE2F933F934F935F936F931B
:102020007F938F939F93AF93BF93EF93FF93E09131
:102030007320F0917420309709F01995FF91EF917A
:10204000BF91AF919F918F917F916F915F914F91D0
:102050003F912F910F900BBE0F9009BE0F9008BEBD
:102060000F900FBE0F901F9018951F920F920FB6F2
:102070000F92112408B60F9218BE09B60F9219BE1E
:102080000BB60F921BBE2F933F934F935F936F93AB
:102090007F938F939F93AF93BF93EF93FF93E091C1
:1020A0007120F0917220309709F01995FF91EF910E
:1020B000BF91AF919F918F917F916F915F914F9160
:1020C0003F912F910F900BBE0F9009BE0F9008BE4D
:1020D0000F900FBE0F901F9018951F920F920FB682
:1020E0000F92112408B60F9218BE09B60F9219BEAE
:1020F0000BB60F921BBE2F933F934F935F936F933B
:102100007F938F939F93AF93BF93EF93FF93E09150
:102110006F20F0917020309709F01995FF91EF91A1
:10212000BF91AF919F918F917F916F915F914F91EF
:102130003F912F910F900BBE0F9009BE0F9008BEDC
:102140000F900FBE0F901F9018951F920F920FB611
:102150000F92112408B60F9218BE09B60F9219BE3D
:102160000BB60F921BBE2F933F934F935F936F93CA
:102170007F938F939F93AF93BF93EF93FF93E091E0
:102180006D20F0916E20309709F01995FF91EF9135
:10219000BF91AF919F918F917F916F915F914F917F
:1021A0003F912F910F900BBE0F9009BE0F9008BE6C
:1021B0000F900FBE0F901F9018951F920F920FB6A1
:1021C0000F92112408B60F9218BE09B60F9219BECD
:1021D0000BB60F921BBE2F933F934F935F936F935A
:1021E0007F938F939F93AF93BF93EF93FF93E09170
:1021F0006B20F0916C20309709F01995FF91EF91C9
:10220000BF91AF919F918F917F916F915F914F910E
:102210003F912F910F900BBE0F9009BE0F9008BEFB
:102220000F900FBE0F901F9018951F920F920FB630
:102230000F92112408B60F9218BE09B60F9219BE5C
:102240000BB60F921BBE2F933F934F935F936F93E9
:102250007F938F939F93AF93BF93EF93FF93E091FF
:102260006920F0916A20309709F01995FF91EF915C
:10227000BF91AF919F918F917F916F915F914F919E
:102280003F912F910F900BBE0F9009BE0F9008BE8B
:102290000F900FBE0F901F9018951F93CF93DF9351
:1022A0001F921F92CDB7DEB72FB72A83F8941A81F9
:1022B000282F392F211588E0380749F461E083E0A1
:1022C0000E94D00764E083E00E94D0075CC0203405
:1022D00088E0380749F462E083E00E94D00764E0B8
:1022E00083E00E94D0074FC0211589E0380749F4E8
:1022F00061E084E00E94D00764E084E00E94D0079F
:1023000042C0203489E0380749F462E084E00E944A
:10231000D00764E084E00E94D00735C021158AE030
:10232000380749F461E085E00E94D00764E085E069
:102330000E94D00728C020348AE0380749F462E0C0
:1023400085E00E94D00764E085E00E94D0071BC0B2
:1023500021158BE0380749F461E086E00E94D00740
:1023600064E086E00E94D0070EC020343B4049F470
:1023700062E086E00E94D00764E086E00E94D00719
:1023800002C01FBF10C08091D1208F3F09F4FFCF42
:102390008FB78983F8949981E0EDF0E281818F5FB6
:1023A00081839FBF1FBF0F900F90DF91CF911F912F
:1023B0000895811528E0920729F46093B72070935F
:1023C000B8200895803428E0920729F46093AB2068
:1023D0007093AC200895811529E0920729F4609349
:1023E000A3207093A4200895803429E0920729F453
:1023F0006093972070939820089581152AE09207A2
:1024000029F460938F2070939020089580342AE0FF
:10241000920729F460938320709384200895811596
:102420002BE0920729F460937B2070937C20089521
:1024300080349B4021F460936F2070937020089546
:102440001BBEFC0128ED24BF60830895CF93DF936A
:10245000FC0120E030E0C62FD0E0DE01022E02C0F9
:10246000B595A7950A94E2F7A0FD508B2F5F3F4FDB
:1024700031962830310589F740FF0AC041FF03C07B
:10248000FC01658302C0FC016683FC01618302C01C
:10249000FC016283DF91CF91089543E050E068E052
:1024A00080EC97E0D3DF40E058E164E080EC97E017
:1024B000CDCF08958DE090E29F938F9363D6A9EBE3
:1024C000B0E21A96ED91FC911B9794811C968C9129
:1024D000892784830F900F900895AF92BF92CF9277
:1024E000DF92EF92FF920F931F93CF93DF93CDB7BD
:1024F000DEB72D97CDBFDEBFA982BA82CB82DC8248
:102500000F83188729873A874B875C876D87EB8510
:10251000FC8584E294EF8D839E839081862F892BA6
:1025200080830A2D1B2D2C2D3D2D4D815E816F81C9
:10253000788589859A856DD02D96CDBFDEBFDF91D8
:10254000CF911F910F91FF90EF90DF90CF90BF90B0
:10255000AF900895AF92BF92CF92DF92EF92FF9229
:102560000F931F93CF93DF93CDB7DEB72A97CDBFDD
:10257000DEBFE9EBF0E281E0848780E096E08287CD
:102580009387FE0131968AE0DF011D928A95E9F773
:1025900080E896E089839A8380E49AE08B839C8329
:1025A0008AE592E18F83988786E090E089879A8711
:1025B0008AE0A9EBB0E201900D928A95E1F7A09034
:1025C000B920B090BA20C090BB20D090BC20E09041
:1025D000BD20F090BE200091BF201091C02020911E
:1025E000C1203091C2204091C3205091C4206091FD
:1025F000C5208AE572DF2A96CDBFDEBFDF91CF917D
:102600001F910F91FF90EF90DF90CF90BF90AF9010
:1026100008950F931F93CF93DF93CDB7DEB72A971B
:10262000CDBFDEBF09831A832B833C834D835E833A
:102630006F83788789879A870B811C8187E08093D5
:10264000A200C8012ADE6F817885C801B2DEF801D8
:102650008181887F81838D819E8186A397A38681D6
:102660008C7F868386818160868378948081807F59
:102670009985892B80832A96CDBFDEBFDF91CF91CC
:102680001F910F910895CF93DF93EB010E942603D2
:102690008883DF91CF9108950C941E030895CF9302
:1026A000DF93CDB7DEB72797CDBFDEBF60E185E012
:1026B0000E94D007E0E8F6E080818860808380EAAD
:1026C0009AE08093CE209093CF208CE493E1809386
:1026D000CC209093CD2083E493E18093C620909307
:1026E000C720E6E0F0E284818D8385818E83868138
:1026F0008F8380819181A281B38189839A83AB8307
:10270000BC8360E185E00E94D007BE016F5F7F4F10
:1027100080EA9AE00E943F0466EA71E088E897E068
:10272000ABD48BE190E241D580E490E23ED5279690
:10273000CDBFDEBFDF91CF910895AFDE0E949A0733
:10274000AEDF87E08093A20081E590E22ED502DF24
:10275000FFCF2F923F924F925F926F927F928F9214
:102760009F92AF92BF92CF92DF92EF92FF920F9320
:102770001F93CF93DF93CDB7DEB76097CDBFDEBF9A
:102780007C011B016A01FC0116821782838181FF93
:102790002AC39E012F5F3F4F3901F7019381F10159
:1027A00093FD859193FF81911F01882309F417C33D
:1027B000853239F493FD859193FF81911F01853214
:1027C00031F4B70190E0A2D456016501E6CF10E0E4
:1027D000512C912CFFE1F915D8F08B3279F038F4B7
:1027E000803279F08332A1F4F92DF0612EC08D3260
:1027F00061F0803369F4292D21602DC0392D3260BC
:10280000932E892D8460982E2AC0E92DE86015C08A
:1028100097FC2DC020ED280F2A3088F496FE06C0C4
:102820003AE0139F200D1124122F19C08AE0589E00
:10283000200D1124522EE92DE0629E2E10C08E3202
:1028400031F496FCCCC2F92DF0649F2E08C08C3672
:1028500021F4292D2068922E02C0883641F4F1011E
:1028600093FD859193FF81911F018111B3CF9BEB64
:10287000980F933020F4992D9061805E07C09BE9FA
:10288000980F933008F059C1992D9F7E96FF16E05E
:102890009F73992E853619F49064992E08C0863658
:1028A00021F4392F3068932E02C01111115097FE78
:1028B00007C01C3350F444244394410E27E00BC05E
:1028C000183038F027E017E005C027E09CE3492ED8
:1028D00002C0212F412C560184E0A80EB11CF60144
:1028E0006081718182819381042DA301D7D26C0113
:1028F000F981FC87F0FF02C0F3FF06C091FC06C01F
:1029000092FE06C000E205C00DE203C00BE201C06A
:1029100000E08C858C7019F0011143C280C297FED3
:1029200010C04C0CFC85F4FF04C08A81813309F48B
:102930004A94141474F528E0241578F588E0482E9C
:102940002CC096FC2AC0812F90E08C159D059CF030
:102950003CEFC3163FEFD30674F0892D8068982EA4
:102960000AC0E2E0F0E0EC0FFD1FE10FF11D8081F5
:10297000803319F411501111F4CF97FE0EC0442486
:102980004394410E812F90E0C816D9062CF41C19EF
:1029900004C04424439401C010E097FE06C01C14F8
:1029A0001D0434F4C601019605C085E090E002C024
:1029B00081E090E001110196112331F0212F30E0E8
:1029C0002F5F3F4F820F931F252D30E08217930713
:1029D00014F4581A01C0512C892D897041F45520E6
:1029E00031F0B70180E290E091D35A94F8CF002300
:1029F00021F0B701802F90E089D393FC08C05520C7
:102A000031F0B70180E390E081D35A94F8CF97FE7C
:102A10004AC04601D7FE02C0812C912CC6018819FC
:102A20009909F301E80FF91FED87FE879601241934
:102A300031092F87388B012F10E01195019511096D
:102A40003FEF8316930621F4B7018EE290E05ED348
:102A5000C814D9044CF08F8598898815990524F4F9
:102A6000ED85FE85818101C080E3F1E08F1A910838
:102A70002D853E852F5F3F4F2D873E87801691061F
:102A800024F0B70190E042D3DBCFC814D90441F45D
:102A90009A81963320F4953319F43C8534FF81E311
:102AA000B70190E048C08A81813319F09C859F7EF0
:102AB0009C87B70190E02AD3111105C094FC16C081
:102AC00085E690E015C0B7018EE290E01FD31E5F4F
:102AD00082E001E0080FF301E80FF11D8081B701EA
:102AE00090E014D3802F0113F4CFE8CF85E490E079
:102AF000B7010CD3D7FC06C0C114D10441F4EC8556
:102B0000E4FF05C0D194C194D1088DE201C08BE2ED
:102B1000B70190E0FBD280E32AE0C216D1042CF08A
:102B20008F5FFAE0CF1AD108F7CFB70190E0EED26D
:102B3000B701C601C096EAD249C1833631F0833766
:102B400079F0833509F052C01FC0560132E0A30E60
:102B5000B11CF6018081898301E010E0630111C09E
:102B60005601F2E0AF0EB11CF601C080D18096FE96
:102B700003C0612F70E002C06FEF7FEFC60171D21A
:102B80008C01F92DFF7713C0560122E0A20EB11C73
:102B9000F601C080D18096FE03C0612F70E002C0B4
:102BA0006FEF7FEFC60152D28C01F92DF0689F2E96
:102BB000F3FD18C0852D90E00817190798F4B701A8
:102BC00080E290E0A3D25A94F5CFF60197FC85916C
:102BD00097FE81916F01B70190E098D251105A94FD
:102BE000015011090115110581F7F0C0843611F06B
:102BF000893659F5560197FE09C024E0A20EB11C92
:102C0000F60160817181828193810AC0F2E0AF0E8A
:102C1000B11CF60160817181072E000C880B990BA5
:102C2000F92DFF769F2E97FF09C09095809570959E
:102C300061957F4F8F4F9F4FF0689F2E2AE030E0C5
:102C4000A301E3D2C82EC6183EC0092D853721F452
:102C50000F7E2AE030E01DC0097F8F3691F018F416
:102C6000883559F0BCC0803719F0883711F0B7C0EB
:102C7000006104FF09C0046007C094FE08C006603C
:102C800006C028E030E005C020E130E002C020E1CD
:102C900032E0560107FF09C084E0A80EB11CF6011E
:102CA000608171818281938108C0F2E0AF0EB11C16
:102CB000F6016081718180E090E0A301A6D2C82E68
:102CC000C6180F77902E96FE0BC0092D0E7FC116E9
:102CD00050F494FE0AC092FC08C0092D0E7E05C077
:102CE000DC2C092D03C0DC2C01C0D12E04FF0DC04B
:102CF000FE01EC0DF11D8081803311F4097E09C0C5
:102D000002FF06C0D394D39404C0802F867809F0C4
:102D1000D39403FD10C000FF06C01C2DD51478F419
:102D2000150D1D190CC0D51450F4B70180E290E0C8
:102D3000EDD1D394F8CFD51410F45D1801C0512C07
:102D400004FF0FC0B70180E390E0E0D102FF16C09E
:102D500001FD03C088E790E002C088E590E0B7017C
:102D60000CC0802F867851F001FF02C08BE201C0B9
:102D700080E207FD8DE2B70190E0C8D1C11630F4C2
:102D8000B70180E390E0C2D11150F8CFCA94F301AB
:102D9000EC0DF11D8081B70190E0B8D1C110F6CFE4
:102DA00015C0F4E0F51550F584E0581A93FE1EC0E6
:102DB000011125C02C8523FF27C00CEF11E0392D10
:102DC0003071932EF8018491811121C0552009F4AE
:102DD000FCCCB70180E290E099D15A94F7CFF7018B
:102DE0008681978123C08FEF9FEF20C0B70180E2DB
:102DF00090E08CD15A945110F9CFDACF512CB70111
:102E0000802F90E083D1D6CF00E012E0D8CF911090
:102E10008052B70190E07AD10F5F1F4FD3CF23E0EC
:102E2000251510F483E0C1CF512CC4CF6096CDBFDF
:102E3000DEBFDF91CF911F910F91FF90EF90DF9058
:102E4000CF90BF90AF909F908F907F906F905F904A
:102E50004F903F902F900895A1E21A2EAA1BBB1B02
:102E6000FD010DC0AA1FBB1FEE1FFF1FA217B30756
:102E7000E407F50720F0A21BB30BE40BF50B661F6C
:102E8000771F881F991F1A9469F760957095809530
:102E900090959B01AC01BD01CF010895283008F049
:102EA00027E03327DA01990F311D87FD91600096E5
:102EB0006105710539F432602E5F3D9330E32A9548
:102EC000E1F708959F3F30F080387105610509F002
:102ED0003C5F3C5F3D93913008F08068911DDF932B
:102EE000CF931F930F93FF92EF92192F987F969590
:102EF000E92F96959695E90FFF27E25AFD4F9927FE
:102F00003327EE24FF24A701E701059008940794D6
:102F100028F4360FE71EF81E491F511D660F771F54
:102F2000881F991F0694A1F70590079428F4E70ECF
:102F3000F81E491F561FC11D770F881F991F661F56
:102F40000694A1F70590079428F4F80E491F561F20
:102F5000C71FD11D880F991F661F771F0694A1F701
:102F60000590079420F4490F561FC71FD81F990FCB
:102F7000661F771F881F0694A9F784911095177014
:102F800041F0D695C79557954795F794E7941A95CC
:102F9000C1F7E4E0F2E068941590159135916591E0
:102FA000959105907FE27395E118F10A430B560B5A
:102FB000C90BD009C0F7E10CF11E431F561FC91FF2
:102FC000D01D7EF4703311F48A95E6CFE894015059
:102FD00030F0080F0AF40027021708F4202F239579
:102FE000022F7A3328F079E37D932A95E9F710C010
:102FF0007D932A9589F60694979567953795179549
:103000001794E118F10A430B560BC90BD00998F03D
:1030100023957E9173957A3308F070E37C932013A7
:10302000B8F77E9170617D9330F0839571E37D9365
:1030300070E32A95E1F71124EF90FF900F911F9113
:10304000CF91DF91992787FD90950895FC01059018
:10305000615070400110D8F7809590958E0F9F1F9A
:103060000895FC016150704001900110D8F78095DF
:1030700090958E0F9F1F08950F931F93CF93DF930B
:10308000009731F46115710519F480E090E039C0C2
:103090008B01EC016EE070E081E090E014D1FC0166
:1030A000892B99F380E883830115110571F002875C
:1030B000138781E883838091DE209091DF20892B24
:1030C00021F4E093DE20F093DF202097C9F0C08741
:1030D000D1878381826083838091E0209091E12079
:1030E000892B71F4E093E020F093E1208091E220BD
:1030F0009091E320892B21F4E093E220F093E320E8
:10310000CF01DF91CF911F910F9108950F931F93DE
:10311000CF93DF93FB01238121FD03C08FEF9FEF4E
:103120002CC022FF16C04681578124813581421769
:10313000530744F4A081B1819D012F5F3F4F20834D
:1031400031838C93268137812F5F3F4F26833783CE
:1031500014C08B01EC01FB010084F185E02D199571
:10316000892BE1F6D80116968D919C9117970196BF
:1031700016968D939C931797CE01DF91CF911F9157
:103180000F910895CF93DF93CDB7DEB7AE014A5FBD
:103190005F4FFA0161917191AF018091E0209091B0
:1031A000E120D7DADF91CF9108950F931F93CF934A
:1031B000DF93E091E020F091E120238121FF1BC00B
:1031C0008C01D0E0C0E0F80181918F016091E02096
:1031D0007091E120DB011896ED91FC9119978823FD
:1031E00031F01995892B79F3DFEFCFEFECCF8AE03F
:1031F0001995892B19F08FEF9FEF02C08D2F9C2F0F
:10320000DF91CF911F910F910895FA01AA272830DD
:1032100051F1203181F1E8946F936E7F6E5F7F4FA3
:103220008F4F9F4FAF4FB1E03ED0B4E03CD0670F1F
:10323000781F891F9A1FA11D680F791F8A1F911D72
:10324000A11D6A0F711D811D911DA11D20D009F4C2
:1032500068943F912AE0269F11243019305D319304
:10326000DEF6CF010895462F4770405D4193B3E0ED
:103270000FD0C9F7F6CF462F4F70405D4A3318F094
:10328000495D31FD4052419302D0A9F7EACFB4E045
:10329000A6959795879577956795BA95C9F70097FD
:1032A0006105710508959B01AC010A2E069457959E
:1032B000479537952795BA95C9F7620F731F841FF5
:1032C000951FA01D08950F931F93CF93DF93869FA3
:1032D0008001879F100D969F100D1124C8010DD0FD
:1032E000EC01009721F0A80160E070E027D1CE0149
:1032F000DF91CF911F910F9108950F931F93CF935B
:10330000DF938230910510F482E090E0E091E620B6
:10331000F091E72020E030E0A0E0B0E0309719F134
:10332000408151810281138148175907C8F08417E1
:10333000950769F4109731F012960C931297139633
:103340001C9327C00093E6201093E72022C021158C
:10335000310519F04217530718F49A01BD01EF0126
:10336000DF01F801DBCF21153105F9F0281B390BFE
:103370002430310580F48A819B816115710521F02B
:10338000FB018283938304C08093E6209093E7201F
:10339000FE01329644C0FE01E20FF31F8193919328
:1033A00022503109288339833AC02091E42030919A
:1033B000E520232B41F4209102203091032020931B
:1033C000E4203093E5202091002030910120211548
:1033D000310541F42DB73EB74091042050910520AE
:1033E000241B350BE091E420F091E520E217F30770
:1033F000A0F42E1B3F0B2817390778F0AC014E5F65
:103400005F4F2417350748F04E0F5F1F4093E420AD
:103410005093E5208193919302C0E0E0F0E0CF016A
:10342000DF91CF911F910F910895CF93DF93009774
:1034300009F481C0FC01329712821382A091E62028
:10344000B091E720109781F420813181820F931F82
:103450002091E4203091E5202817390751F5E093B9
:10346000E420F093E52067C0ED0120E030E0CE17C6
:10347000DF0740F44A815B819E0141155105F1F05F
:10348000EA01F5CFC283D38340815181840F951F18
:10349000C817D90759F488819981840F951F02961E
:1034A000808391838A819B81828393832115310557
:1034B00029F4E093E620F093E7203DC0E901EA8398
:1034C000FB8349915991C40FD51FEC17FD0761F497
:1034D00080819181840F951F0296E90188839983E9
:1034E000828193818A839B83E0E0F0E012968D9144
:1034F0009C911397009719F0FD01DC01F7CF8D9196
:103500009C9111979D012E5F3F4F820F931F209139
:10351000E4203091E5202817390769F4309729F421
:103520001092E6201092E72002C012821382A0932C
:10353000E420B093E520DF91CF910895DC0101C034
:0E3540006D9341505040E0F70895F894FFCF8E
:10354E000000E820200000C2010003000168656C45
:10355E006C6F2074686572650A73000A0A0A0A0A9B
:10356E0043616E7361742056616C6B79726965206C
:10357E00496E697469616C697A696E672E2E2E00C8
:10358E005541525420496E697469616C697A65645B
:0E359E000079206172652075204761793F0039
:00000001FF
