:10000000ABC10000CFC10000CDC10000CBC10000DA
:10001000C9C10000C7C10000C5C10000C3C10000C4
:10002000C1C10000BFC100000C944F0D0C94720DB3
:10003000B9C10000FAC200000C94F60D0C942E0E0B
:100040000C94660E0C949E0E0C94D60E0C940E0F0F
:100050000C94460F0C947E0F0C94B60F0C94EE0F7C
:10006000A1C100009FC100009DC100009BC1000014
:1000700099C1000097C1000095C1000093C1000024
:1000800091C100008FC100008DC100008BC1000034
:1000900089C1000087C1000085C100000C94590A85
:1000A0000C94960A0C94D30A0C94100B7BC100009C
:1000B00079C1000077C100001CC300000C945612E7
:1000C0000C948E120C94C6120C94FE120C943613DF
:1000D0000C946E130C94A6130C94DE130C9416144B
:1000E0000C944E145FC100005DC100005BC10000B4
:1000F00059C1000057C1000055C1000053C10000A4
:1001000051C100004FC100004DC100004BC10000B3
:1001100049C1000047C1000045C100000C946509B9
:100120000C94A2090C94DF090C941C0A3BC100003A
:10013000AEC200000C9426100C945E100C94961025
:100140000C94CE100C9406110C943E110C94761164
:100150000C94AE110C94E6110C941E1223C10000F5
:1001600021C100001FC100001DC100001BC1000013
:1001700019C1000017C1000015C1000013C1000023
:1001800011C100000FC100000DC100000BC1000033
:1001900009C1000007C1000005C1000003C1000043
:1001A00001C10000FFC00000FDC00000D4C200007B
:1001B0000C9486140C94BE140C94F6140C942E1506
:1001C0000C9466150C949E150C94D6150C940E1672
:1001D0000C9446160C947E16E5C00000E3C00000A7
:1001E000E1C00000DFC00000DDC00000DBC0000097
:1001F000D9C00000D7C00000D5C000000800000032
:10020000BE922449123EABAAAA2ABECDCCCC4C3E0B
:1002100000000080BEABAAAAAA3E00000000BF00FA
:100220000000803F0000000000084178D3BB4387F6
:10023000D1133D190E3CC3BD4282AD2B3E68EC820A
:1002400076BED98FE1A93E4C80EFFFBE01C4FF7F8F
:100250003F00000000006E616E00696E66000040A5
:100260007A10F35A00A0724E18090010A5D4E800C5
:1002700000E87648170000E40B54020000CA9A3BDD
:10028000000000E1F5050000809698000000404263
:100290000F000000A08601000000102700000000F1
:1002A000E803000000006400000000000A000000F5
:1002B00000000100000000002C76D888DC674F08A1
:1002C00023DFC1DFAE59E1B1B796E5E3E453C63AA7
:1002D000E651997696E8E6C28426EB898C9B62ED1E
:1002E000407C6FFCEFBC9C9F40F2BAA56FA5F490D8
:1002F000055A2AF75C936B6CF9676DC11BFCE0E44F
:100300000D47FEF520E6B500D0ED902E03009435A4
:1003100077050080841E080000204E0A000000C8F7
:100320000C333333330F986E12831141EF8D211448
:10033000893BE65516CFFEE6DB18D1844B381BF718
:100340007C1D901DA4BBE424203284725E228100B7
:10035000C9F124ECA1E53D2711241FBECFEFCDBF8D
:10036000DFE3DEBF00E00CBF18BE19BE1ABE1BBE25
:1003700010E2A0E0B0E2EAE7F5E400E00BBF02C063
:1003800007900D92AC37B107D9F71BBE21E2ACE75D
:10039000B0E201C01D92A731B207E1F70E94A11897
:1003A0000C94BB222DCECF93DF931F92CDB7DEB737
:1003B0008091FD209091FE20E091D920F091DA20EB
:1003C000BE016F5F7F4F19958981082E000C990B34
:1003D0000F90DF91CF910895811522E0920769F483
:1003E00080917D2091E0980F90937D20811114C021
:1003F00062E081E00C94240D08958034924061F411
:1004000080917C2091E0980F90937C20811104C012
:1004100062E082E00C94240D0895811522E0920799
:1004200061F480917D20815080937D20811113C0E3
:1004300062E081E00C943A0D08958034924059F4C2
:1004400080917C20815080937C20811104C062E0E7
:1004500082E00C943A0D0895EF92FF921F93CF9390
:10046000DF931F921F92CDB7DEB77C018FB78983D0
:10047000F8941981C701B0DFF70180818160808322
:100480001FBF809100218F3F09F4FFCF8FB78A8370
:10049000F8949A81EFEFF0E281818F5F81839FBFB3
:1004A0000F900F90DF91CF911F91FF90EF900895E3
:1004B0001F93CF93DF931F921F92CDB7DEB72FB755
:1004C0002983F8941981FC0120812E7F2083A5DFE8
:1004D0001FBF80910021811101C0FFCF8FB78A8398
:1004E000F8949A81EFEFF0E28181815081839FBF80
:1004F0000F900F90DF91CF911F910895CF93DF93CD
:10050000E0917E20F0917F20848183FF08C0886085
:10051000848383E0838386EF8093882083C0982F31
:10052000947131F083E083838FEF809388207AC0C9
:1005300086FF43C0CEE7D0E2AA81BB818C819D813A
:1005400014962D913C911597821793076CF49C019A
:100550002F5F3F4F2093822030938320A80FB91F35
:1005600011968C9187835EC0809184209091852024
:1005700018962D913C91199782179307C8F42091F2
:100580008620222321F08681816086834BC01696C7
:100590002D913C911797AC014F5F5F4F40938420A2
:1005A00050938520D901A80FB91F8C9187833AC039
:1005B00083E083831092882035C0882384F5AEE7DA
:1005C000B0E21296CD91DC91139716968D919C9185
:1005D00017972885398582179307D8F46E817F8114
:1005E0009C012F5F3F4F20938420309385204781CB
:1005F000DB01A80FB91F4C93888599852817390707
:1006000018F482E083830EC087E0838310928820F1
:1006100009C083E0838389EF8093882003C08BEF38
:1006200080938820DF91CF9108951F920F920FB68B
:100630000F92112408B60F9218BE09B60F9219BE78
:100640000BB60F921BBE2F933F934F935F936F9305
:100650007F938F939F93AF93BF93EF93FF934EDF5F
:10066000FF91EF91BF91AF919F918F917F916F918A
:100670005F914F913F912F910F900BBE0F9009BE4C
:100680000F9008BE0F900FBE0F901F9018951F92ED
:100690000F920FB60F92112408B60F9218BE09B62A
:1006A0000F9219BE0BB60F921BBE2F933F934F9321
:1006B0005F936F937F938F939F93AF93BF93EF93CA
:1006C000FF931CDFFF91EF91BF91AF919F918F91AD
:1006D0007F916F915F914F913F912F910F900BBE42
:1006E0000F9009BE0F9008BE0F900FBE0F901F9085
:1006F00018951F920F920FB60F92112408B60F9201
:1007000018BE09B60F9219BE0BB60F921BBE2F93DF
:100710003F934F935F936F937F938F939F93AF9389
:10072000BF93EF93FF93EADEFF91EF91BF91AF91FB
:100730009F918F917F916F915F914F913F912F91F9
:100740000F900BBE0F9009BE0F9008BE0F900FBE0A
:100750000F901F9018951F920F920FB60F921124B1
:1007600008B60F9218BE09B60F9219BE0BB60F92BB
:100770001BBE2F933F934F935F936F937F938F9302
:100780009F93AF93BF93EF93FF93B8DEFF91EF91E9
:10079000BF91AF919F918F917F916F915F914F9199
:1007A0003F912F910F900BBE0F9009BE0F9008BE86
:1007B0000F900FBE0F901F901895FC01918195FF2F
:1007C000FDCF608380E090E00895FC019181992342
:1007D000ECF7808108954F925F926F927F928F9293
:1007E0009F92AF92BF92EF92FF920F931F93CF937E
:1007F0007C014A015B0128013901FC01848182FFEF
:1008000016C0D901C801689412F8B695A7959795B6
:1008100087951694D1F7B901A801032E36E1769594
:100820006795579547953A95D1F7302D15C0D90161
:10083000C801689413F8B695A7959795879516946F
:10084000D1F7B901A801032E37E176956795579541
:1008500047953A95D1F7302D88159905AA05BB051E
:1008600008F4A6C084169506A606B70608F4A2C02A
:10087000F701848182FD04C0880C991CAA1CBB1C52
:10088000C301B201A50194010E94811E2F3F3105D1
:100890004105510508F490C08FEF90E0A0E0B0E072
:1008A000C9EF05C0281739074A075B0758F0880FBA
:1008B000991FAA1FBB1FCD3F0CF48160CF5FC730CB
:1008C00089F74FC0CC230CF04CC0D501C401880F70
:1008D000991FAA1FBB1F880F991FAA1FBB1F880F34
:1008E000991FAA1FBB1F481A590A6A0A7B0ACE3FE2
:1008F000F4F48DEF9FEF8C1B9109C7FD939504C015
:10090000440C551C661C771C8A95D2F7D501C4018E
:10091000B695A79597958795BC01CD01640D751D7A
:10092000861D971DA50194010E94811E37C083E09A
:100930008C0FA501940104C0220F331F441F551FC3
:100940008A95D2F7DA01C901B695A795979587954B
:10095000BC01CD01640D751D861D971D0E94811E71
:100960001DC083E08C0FA501940104C0220F331F2A
:10097000441F551F8A95D2F7DA01C901B695A7958C
:1009800097958795BC01CD01640D751D861D971D3A
:100990000E94811E2150310941095109832F8F7016
:1009A000C295C07FC82BF701C783268381E018C09A
:1009B00080E016C080E014C0D501C401880F991FE3
:1009C000AA1FBB1F880F991FAA1FBB1F880F991F43
:1009D000AA1FBB1F481A590A6A0A7B0AC9EF89CFA6
:1009E000CF911F910F91FF90EF90BF90AF909F908C
:1009F0008F907F906F905F904F9008950F931F930B
:100A0000CF93DF93EC018B01009709F439C1803C4F
:100A1000910529F460E180E00E94240D31C1C034C9
:100A200084E0D80729F468E080E00E94240D28C102
:100A3000C115E4E0DE0729F464E080E00E94240DA3
:100A40001FC1C038F1E0DF0721F462E080E0FCD78D
:100A500017C1C11581E0D80721F461E080E0F4D727
:100A60000FC1C038E3E0DE0721F461E081E0ECD79C
:100A700007C1C039F3E0DF0721F461E082E0E4D789
:100A8000FFC0C11582E0D80721F462E081E0DCD725
:100A9000F7C0C034E2E0DE0721F462E082E0D4D7A0
:100AA000EFC0C115F3E0DF0721F464E081E0CCD7AB
:100AB000E7C0C03283E0D80721F464E082E0C4D705
:100AC000DFC0C115E8E0DE0721F461E083E0BCD7B8
:100AD000D7C0C115F9E0DF0721F461E084E0B4D7A5
:100AE000CFC0C1158AE0D80721F461E085E0ACD71A
:100AF000C7C0C115EBE0DE0721F461E086E0A4D7B2
:100B0000BFC0C034F8E0DF0721F462E083E09CD787
:100B1000B7C0C03489E0D80721F462E084E094D7FC
:100B2000AFC0C034EAE0DE0721F462E085E08CD794
:100B3000A7C0C034FBE0DF0721F462E086E084D781
:100B40009FC0C03988E0D80721F464E083E07CD7F7
:100B500097C0C039E9E0DE0721F464E084E074D78F
:100B60008FC0C039FAE0DF0721F464E085E06CD77C
:100B700087C0C0398BE0D80721F464E086E064D7F1
:100B80007FC0C03CE8E0DE0721F468E083E05CD78A
:100B900077C0C03CF9E0DF0721F468E084E054D777
:100BA0006FC0C03C8AE0D80721F468E085E04CD7EC
:100BB00067C0C03CEBE0DE0721F468E086E044D784
:100BC0005FC0C03AF8E0DF0721F460E183E03CD782
:100BD00057C0C03A89E0D80721F460E184E034D7F7
:100BE0004FC0C03AEAE0DE0721F460E185E02CD78F
:100BF00047C0C03AFBE0DF0721F460E186E024D77C
:100C00003FC0C03B88E0D80721F460E283E01CD7F6
:100C100037C0C03BE9E0DE0721F460E284E014D78E
:100C20002FC0C03BFAE0DF0721F460E285E00CD77B
:100C300027C0C03B8BE0D80721F460E286E004D7F0
:100C40001FC0C038E4E0DE0721F460E483E0FCD696
:100C500017C0C039F4E0DF0721F460E484E0F4D683
:100C60000FC0C03A84E0D80721F460E485E0ECD6F8
:100C700007C0C03BE4E0DE0719F460E486E0E4D698
:100C80008D818F738D83F80195818481892B968165
:100C9000911198E0892B8D83F80140815181628107
:100CA000738100E018E428EE31E0CE0194DD9C81F0
:100CB00098609C839C8190619C83DF91CF911F9170
:100CC0000F910895EF92FF920F931F93CF93DF93AD
:100CD000CDB7DEB72B97CDBFDEBF7C01062F142F1B
:100CE000BE016F5F7F4F45D5AE01485F5F4F602FFC
:100CF000C701C7D58A819B819F789B83817E8A8328
:100D00001C8286E08D83103138F018861051110F47
:100D1000110F110F198706C081E08887110F110F7D
:100D2000110F19878A818F778A838B8182608B83E9
:100D3000BE016F5F7F4FC701B0D4AE01485F5F4F08
:100D4000602FC70151D52B96CDBFDEBFDF91CF916C
:100D50001F910F91FF90EF900895EF92FF920F93E4
:100D60001F93CF93DF931F92CDB7DEB77C01162F71
:100D700073DB8FB78983F8949981F7018081212FE4
:100D8000220F220F822B80839FBFF7018681812350
:100D90001813FBCF1683812F837021F416951695B7
:100DA00082E001C080E010FF8F5FF701B09698E00D
:100DB000899FE00DF11D112404811581C70178DBA5
:100DC000B80180E090E00E9495190F90DF91CF91DB
:100DD0001F910F91FF90EF90089546E061E080E051
:100DE00092E070DF87E190E20C94EB2008950F937E
:100DF0001F93CF93DF9361E080E092E0AEDF20E0CD
:100E000030E040E859E30E94681A2AE037ED43E2F7
:100E10005DE30E94C8189B01AC0163E373E383E5C3
:100E200090E40E942D1920E030E040E85FE30E944A
:100E3000C81820E030E04AE754E40E94681A20E035
:100E400030E44CE156E40E942D190E94281A23E652
:100E50003DE14BE959E30E94681A2FE03FEC4BE576
:100E60005BE30E94C9189B01AC0160E070E080E880
:100E70009FE30E942D1923E333E948E853E40E94DD
:100E8000C818062F172FD82FC92F9F938F937F93A2
:100E90006F938FE290E29F938F930E94D8200F90E0
:100EA0000F900F900F900F900F90602F712F8D2F3C
:100EB0009C2FDF91CF911F910F91089540E058E151
:100EC00060E180E496E00E94991743E050E060E220
:100ED00080E496E00E94991740E050E060E480E4EE
:100EE00096E00E94991743E050E060E880E496E0C5
:100EF0000C94991708952F923F924F925F926F92A0
:100F00007F928F929F92AF92BF92CF92DF92EF9299
:100F1000FF920F931F93CF93DF93CDB7DEB72E973A
:100F2000CDBFDEBF81E18983BE016F5F7F4F80EC63
:100F300098E028D50F2EF6E0EF2EF0E2FF2EF02DF0
:100F400003EF10E20F2EFBEFCF2EF0E2DF2EF02D9D
:100F5000D7016D917D0170E041E050E080EC98E0B8
:100F6000EFD4F80161917191819191918F0144E0E9
:100F700050E080EC98E0F3D40C151D0549F7BE0154
:100F80006F5F7F4F80EC98E013D503EF10E2D8013C
:100F900013968C9113978F9312968C9112978F932F
:100FA00011968C9111978F938C918F938CE390E293
:100FB0009F938F930E94D820F80120803180428037
:100FC00053802092EF203092F0204092F1205092F6
:100FD000F22044815581668177814093E7205093C8
:100FE000E8206093E9207093EA208091EB209091B3
:100FF000EC20A0E0B0E0BA2FA92F982F88278A0113
:101000009B01081B190B2A0B3B0B0A831B832C83A8
:101010003D83330F000B102F98010E831F83288709
:1010200039874091E1205091E220AA80BB80CC809A
:10103000DD80EE80FE2C0E2D1E2D242F352F40E05E
:1010400050E060E070E080E090E00E94B21EC22EAE
:10105000932E842E752E662E7A87A82EB92E0F9089
:101060000F900F900F900F900F90A0E00E94581FCC
:101070005CF4AFE70E94431FC22E932E842E752E80
:10108000662E7A87A82EB92E2C2D392D482D572D56
:10109000662D7A858A2D9B2D07E00E941C1F622EEB
:1010A000732E842E952EB62FA72FF82FE92FA09000
:1010B000DF20B090E0202A2D3B2D40E050E060E0A2
:1010C00070E080E090E000E10E94031FA22EB32EAA
:1010D000C42ED52EE62EF72E082F192F262D372DAC
:1010E000482D592D6B2F7A2F8F2F9E2F0E943A1F3C
:1010F000A22CB32CC42CD52CE12CF12C00E010E058
:101100000E94B21E722E832E942EA52EB62EC72EAE
:10111000582E692EA0E00E94581F84F421503109F6
:10112000404E5F4F6F4F7F4F8F4F9F4F722E832EDA
:10113000942EA52EB62EC72E582E692E272D382D6B
:10114000492D5A2D6B2D7C2D852D962D05E10E9464
:101150001C1F622E732E842E5A876B877C878D8787
:101160009E874091ED205091EE20AA80BB80CC80DC
:10117000DD80EE80FE2C0E2D1E2D242F352F40E01D
:1011800050E060E070E080E090E00E94B21EC22E6D
:10119000532E442E352E262E972EA82EB92EA0E0A3
:1011A0000E94581F5CF4AFE30E94431FC22E532ECF
:1011B000442E352E262E972EA82EB92E2C2D352DC9
:1011C000442D532D622D792D8A2D9B2D06E00E94F2
:1011D0001C1F222E332E442E552EB62FA72FF82F4C
:1011E000E92FA090E320B090E4202A2D3B2D40E091
:1011F00050E060E070E080E090E001E10E94031FB9
:10120000A22EB32EC42ED52EE62EF72E082F192F80
:10121000222D332D442D552D6B2F7A2F8F2F9E2F5E
:101220000E943A1FA22EB32EC42ED52EE62EF72EE4
:10123000082F192F262D372D482D5A856B857C8533
:101240008D859E850E944F1F722E832E942EA52E73
:10125000B62EC72E582E692EA0E00E94581F84F487
:10126000215030484F4F5F4F6F4F7F4F8F4F9F4FF1
:10127000722E832E942EA52EB62EC72E582E692E92
:10128000272D382D492D5A2D6B2D7C2D852D962DF2
:101290000FE00E941C1F622F732F842F952F2E9614
:1012A000CDBFDEBFDF91CF911F910F91FF90EF90E7
:1012B000DF90CF90BF90AF909F908F907F906F9076
:1012C0005F904F903F902F9008951F920F920FB60E
:1012D0000F92112408B60F9218BE09B60F9219BECC
:1012E0000BB60F921BBE2F933F934F935F936F9359
:1012F0007F938F939F93AF93BF93EF93FF9340910F
:10130000240250912502E091DD20F091DE2061E081
:1013100080E092E01995FF91EF91BF91AF919F917D
:101320008F917F916F915F914F913F912F910F908E
:101330000BBE0F9009BE0F9008BE0F900FBE0F900E
:101340001F9018951F920F920FB60F92112408B696
:101350000F9218BE09B60F9219BE0BB60F921BBEA4
:101360002F933F934F935F936F937F938F939F93AD
:10137000AF93BF93EF93FF9340912C0250912D02B6
:10138000E091DD20F091DE2062E080E092E01995AE
:10139000FF91EF91BF91AF919F918F917F916F914D
:1013A0005F914F913F912F910F900BBE0F9009BE0F
:1013B0000F9008BE0F900FBE0F901F9018951F92B0
:1013C0000F920FB60F92112408B60F9218BE09B6ED
:1013D0000F9219BE0BB60F921BBE2F933F934F93E4
:1013E0005F936F937F938F939F93AF93BF93EF938D
:1013F000FF934091340250913502E091DD20F0914D
:10140000DE2064E080E092E01995FF91EF91BF91BA
:10141000AF919F918F917F916F915F914F913F918C
:101420002F910F900BBE0F9009BE0F9008BE0F902A
:101430000FBE0F901F9018951F920F920FB60F922C
:10144000112408B60F9218BE09B60F9219BE0BB63A
:101450000F921BBE2F933F934F935F936F937F9396
:101460008F939F93AF93BF93EF93FF9340913C0271
:1014700050913D02E091DD20F091DE2068E080E0B7
:1014800092E01995FF91EF91BF91AF919F918F914C
:101490007F916F915F914F913F912F910F900BBE74
:1014A0000F9009BE0F9008BE0F900FBE0F901F90B7
:1014B00018951F920F920FB60F92112408B60F9233
:1014C00018BE09B60F9219BE0BB60F921BBE2F9312
:1014D0003F934F935F936F937F938F939F93AF93BC
:1014E000BF93EF93FF934091640250916502E091A6
:1014F000DB20F091DC2061E080E492E01995FF911F
:10150000EF91BF91AF919F918F917F916F915F917B
:101510004F913F912F910F900BBE0F9009BE0F90EE
:1015200008BE0F900FBE0F901F9018951F920F923C
:101530000FB60F92112408B60F9218BE09B60F927B
:1015400019BE0BB60F921BBE2F933F934F935F9321
:101550006F937F938F939F93AF93BF93EF93FF937B
:1015600040916C0250916D02E091DB20F091DC2003
:1015700062E080E492E01995FF91EF91BF91AF9105
:101580009F918F917F916F915F914F913F912F919B
:101590000F900BBE0F9009BE0F9008BE0F900FBEAC
:1015A0000F901F9018951F920F920FB60F92112453
:1015B00008B60F9218BE09B60F9219BE0BB60F925D
:1015C0001BBE2F933F934F935F936F937F938F93A4
:1015D0009F93AF93BF93EF93FF9340917402509109
:1015E0007502E091DB20F091DC2064E080E492E081
:1015F0001995FF91EF91BF91AF919F918F917F913D
:101600006F915F914F913F912F910F900BBE0F9073
:1016100009BE0F9008BE0F900FBE0F901F90189537
:101620001F920F920FB60F92112408B60F9218BE98
:1016300009B60F9219BE0BB60F921BBE2F933F93A4
:101640004F935F936F937F938F939F93AF93BF93CA
:10165000EF93FF9340917C0250917D02E091DB205B
:10166000F091DC2068E080E492E01995FF91EF9121
:10167000BF91AF919F918F917F916F915F914F91AA
:101680003F912F910F900BBE0F9009BE0F9008BE97
:101690000F900FBE0F901F901895BF92CF92DF92C0
:1016A000EF92FF920F931F93CF93DF931F92CDB7CB
:1016B000DEB78C017B01811522E0920781F461E2A3
:1016C00070E082E00E948917C82ED12C60E270E0A1
:1016D00082E00E948917DC2CCC24C82A12C08034F6
:1016E0009240E1F565E270E082E00E948917C82E21
:1016F000D12C64E270E082E00E948917DC2CCC24BB
:10170000C82A8FB78983F894B980C8010E94EC0178
:10171000F801808192E09083C486D586F701258107
:101720003681F801208F318FF7019281F801928381
:10173000F7019481F8019483F7019381F801938371
:10174000F7019181F80191838170F7019081892BD4
:10175000F8018083C8010E940D02BFBE0F90DF9187
:10176000CF911F910F91FF90EF90DF90CF90BF909E
:101770000895DF92EF92FF920F931F93CF93DF9321
:101780001F92CDB7DEB78C017B018FB78983F894A8
:10179000D980C8010E94EC01F8018081807CF701AA
:1017A0008083F801808D918DF70185839683F80100
:1017B0008281F7018283F8018481F7018483F80133
:1017C0008381F7018383F8018181F7018183C80157
:1017D0000E940D02DFBE0F90DF91CF911F910F91FC
:1017E000FF90EF90DF900895AF92BF92CF92DF927B
:1017F000EF92FF920F931F93CF93DF931F92CDB77A
:10180000DEB76C01B62E7A01862F837029F4962FED
:101810009695969582E002C0962F80E090FF8F5FAC
:101820008601005E1F4F98E0899F000D111D112455
:101830008FB78983F894A980C6010E94EC01F70153
:101840008081F8018083F7018281F8018283F701AA
:101850008181F8018183B0FE04C0F7018381F80122
:101860008683C6010E940D02AFBE0F90DF91CF911B
:101870001F910F91FF90EF90DF90CF90BF90AF90AE
:101880000895AF92BF92CF92DF92EF92FF920F93A3
:101890001F93CF93DF931F92CDB7DEB76C01B62EA7
:1018A0007A01862F837029F4962F9695969582E07B
:1018B00002C0962F80E090FF8F5F8601005E1F4F71
:1018C00098E0899F000D111D11248FB78983F8942A
:1018D000A980C6010E94EC01F8018081F701808394
:1018E000F8018281F7018283F8018181F701818308
:1018F000B0FE04C0F8018681F7018383C6010E940F
:101900000D02AFBE0F90DF91CF911F910F91FF900D
:10191000EF90DF90CF90BF90AF900895682F8091A7
:10192000FD209091FE20E091FB20F091FC20199584
:1019300099231CF081E090E008958FEF9FEF0895C8
:10194000FC01DB01460F571F05C08D9183839281F7
:101950009923ECF7A417B507C1F780E00895FC01BF
:10196000DB014115510561F0460F571F2FEF23830F
:1019700092819923ECF783818D934A175B07B9F71E
:1019800080E00895FB018081E82FE695E695E695D5
:1019900040E2E49FF0011124FA5F877021E030E01B
:1019A000A90102C0440F551F8A95E2F746830895A6
:1019B000FB018081E82FE695E695E69540E2E49FFD
:1019C000F0011124FA5F877021E030E0A90102C024
:1019D000440F551F8A95E2F745830895CF93DF930F
:1019E0001F921F92CDB7DEB78FEF80937000809368
:1019F00071008093720080937300809374008093D1
:101A00007500809376008FB78A83F8949A81E0E519
:101A1000F0E08081826080839FBF818181FFFDCF64
:101A200061E080E490E00E9493178FB78983F89477
:101A30009981E0E5F0E080818E7F80839FBF0F90E9
:101A40000F90DF91CF910895CF93DF931F92CDB781
:101A5000DEB79FB79983F8949981E82FF0E0E059B9
:101A6000FF4F60958081682360839FBF0F90DF9157
:101A7000CF910895CF93DF931F92CDB7DEB79FB775
:101A80009983F8949981E82FF0E0E059FF4F808125
:101A9000682B60839FBF0F90DF91CF9108951F92B5
:101AA0000F920FB60F92112408B60F9218BE0BB604
:101AB0000F921BBE8F939F93EF93FF93E5E0F1E2AC
:101AC00080819181019680839183FF91EF919F9115
:101AD0008F910F900BBE0F9008BE0F900FBE0F900E
:101AE0001F9018951F920F920FB60F92112408B6EF
:101AF0000F9218BE09B60F9219BE0BB60F921BBEFD
:101B0000CF92DF92EF92FF920F931F932F933F9309
:101B10004F935F936F937F938F939F93AF93BF93F5
:101B2000EF93FF93E5E0F1E280819181228133819F
:101B300082179307F0F121E020930204E0910B213A
:101B4000F0910C213097A9F160910804709109047B
:101B5000A0E0B0E0DC0199278827AB0160E070E0ED
:101B60008C019D01042B152B262B372BC901B801A5
:101B7000A5E0B1E212960D911C91139720E030E0A0
:101B80009801112700271496CD90DC901597E12C31
:101B9000F12C0C291D292E293F2906171707280784
:101BA000390730F0C901B8016F5F7F4F8F4F9F4FEA
:101BB0001995FF91EF91BF91AF919F918F917F9177
:101BC0006F915F914F913F912F911F910F91FF90D6
:101BD000EF90DF90CF900F900BBE0F9009BE0F904B
:101BE00008BE0F900FBE0F901F9018951F920F9276
:101BF0000FB60F92112408B60F9218BE09B60F92B5
:101C000019BE0BB60F921BBE2F933F934F935F935A
:101C10006F937F938F939F93AF93BF93EF93FF93B4
:101C2000E091D720F091D820309709F01995FF91D5
:101C3000EF91BF91AF919F918F917F916F915F9144
:101C40004F913F912F910F900BBE0F9009BE0F90B7
:101C500008BE0F900FBE0F901F9018951F920F9205
:101C60000FB60F92112408B60F9218BE09B60F9244
:101C700019BE0BB60F921BBE2F933F934F935F93EA
:101C80006F937F938F939F93AF93BF93EF93FF9344
:101C9000E091D520F091D620309709F01995FF9169
:101CA000EF91BF91AF919F918F917F916F915F91D4
:101CB0004F913F912F910F900BBE0F9009BE0F9047
:101CC00008BE0F900FBE0F901F9018951F920F9295
:101CD0000FB60F92112408B60F9218BE09B60F92D4
:101CE00019BE0BB60F921BBE2F933F934F935F937A
:101CF0006F937F938F939F93AF93BF93EF93FF93D4
:101D0000E091D320F091D420309709F01995FF91FC
:101D1000EF91BF91AF919F918F917F916F915F9163
:101D20004F913F912F910F900BBE0F9009BE0F90D6
:101D300008BE0F900FBE0F901F9018951F920F9224
:101D40000FB60F92112408B60F9218BE09B60F9263
:101D500019BE0BB60F921BBE2F933F934F935F9309
:101D60006F937F938F939F93AF93BF93EF93FF9363
:101D7000E091D120F091D220309709F01995FF9190
:101D8000EF91BF91AF919F918F917F916F915F91F3
:101D90004F913F912F910F900BBE0F9009BE0F9066
:101DA00008BE0F900FBE0F901F9018951F920F92B4
:101DB0000FB60F92112408B60F9218BE09B60F92F3
:101DC00019BE0BB60F921BBE2F933F934F935F9399
:101DD0006F937F938F939F93AF93BF93EF93FF93F3
:101DE000E091CF20F091D020309709F01995FF9124
:101DF000EF91BF91AF919F918F917F916F915F9183
:101E00004F913F912F910F900BBE0F9009BE0F90F5
:101E100008BE0F900FBE0F901F9018951F920F9243
:101E20000FB60F92112408B60F9218BE09B60F9282
:101E300019BE0BB60F921BBE2F933F934F935F9328
:101E40006F937F938F939F93AF93BF93EF93FF9382
:101E5000E091CD20F091CE20309709F01995FF91B7
:101E6000EF91BF91AF919F918F917F916F915F9112
:101E70004F913F912F910F900BBE0F9009BE0F9085
:101E800008BE0F900FBE0F901F9018951F920F92D3
:101E90000FB60F92112408B60F9218BE09B60F9212
:101EA00019BE0BB60F921BBE2F933F934F935F93B8
:101EB0006F937F938F939F93AF93BF93EF93FF9312
:101EC000E091CB20F091CC20309709F01995FF914B
:101ED000EF91BF91AF919F918F917F916F915F91A2
:101EE0004F913F912F910F900BBE0F9009BE0F9015
:101EF00008BE0F900FBE0F901F9018951F920F9263
:101F00000FB60F92112408B60F9218BE09B60F92A1
:101F100019BE0BB60F921BBE2F933F934F935F9347
:101F20006F937F938F939F93AF93BF93EF93FF93A1
:101F3000E091C920F091CA20309709F01995FF91DE
:101F4000EF91BF91AF919F918F917F916F915F9131
:101F50004F913F912F910F900BBE0F9009BE0F90A4
:101F600008BE0F900FBE0F901F9018951F920F92F2
:101F70000FB60F92112408B60F9218BE09B60F9231
:101F800019BE0BB60F921BBE2F933F934F935F93D7
:101F90006F937F938F939F93AF93BF93EF93FF9331
:101FA000E091C720F091C820309709F01995FF9172
:101FB000EF91BF91AF919F918F917F916F915F91C1
:101FC0004F913F912F910F900BBE0F9009BE0F9034
:101FD00008BE0F900FBE0F901F9018951F920F9282
:101FE0000FB60F92112408B60F9218BE09B60F92C1
:101FF00019BE0BB60F921BBE2F933F934F935F9367
:102000006F937F938F939F93AF93BF93EF93FF93C0
:10201000E091C520F091C620309709F01995FF9105
:10202000EF91BF91AF919F918F917F916F915F9150
:102030004F913F912F910F900BBE0F9009BE0F90C3
:1020400008BE0F900FBE0F901F9018951F920F9211
:102050000FB60F92112408B60F9218BE09B60F9250
:1020600019BE0BB60F921BBE2F933F934F935F93F6
:102070006F937F938F939F93AF93BF93EF93FF9350
:10208000E091C320F091C420309709F01995FF9199
:10209000EF91BF91AF919F918F917F916F915F91E0
:1020A0004F913F912F910F900BBE0F9009BE0F9053
:1020B00008BE0F900FBE0F901F9018951F920F92A1
:1020C0000FB60F92112408B60F9218BE09B60F92E0
:1020D00019BE0BB60F921BBE2F933F934F935F9386
:1020E0006F937F938F939F93AF93BF93EF93FF93E0
:1020F000E091C120F091C220309709F01995FF912D
:10210000EF91BF91AF919F918F917F916F915F916F
:102110004F913F912F910F900BBE0F9009BE0F90E2
:1021200008BE0F900FBE0F901F9018951F920F9230
:102130000FB60F92112408B60F9218BE09B60F926F
:1021400019BE0BB60F921BBE2F933F934F935F9315
:102150006F937F938F939F93AF93BF93EF93FF936F
:10216000E091BF20F091C020309709F01995FF91C0
:10217000EF91BF91AF919F918F917F916F915F91FF
:102180004F913F912F910F900BBE0F9009BE0F9072
:1021900008BE0F900FBE0F901F9018951F920F92C0
:1021A0000FB60F92112408B60F9218BE09B60F92FF
:1021B00019BE0BB60F921BBE2F933F934F935F93A5
:1021C0006F937F938F939F93AF93BF93EF93FF93FF
:1021D000E091BD20F091BE20309709F01995FF9154
:1021E000EF91BF91AF919F918F917F916F915F918F
:1021F0004F913F912F910F900BBE0F9009BE0F9002
:1022000008BE0F900FBE0F901F9018951F920F924F
:102210000FB60F92112408B60F9218BE09B60F928E
:1022200019BE0BB60F921BBE2F933F934F935F9334
:102230006F937F938F939F93AF93BF93EF93FF938E
:10224000E091BB20F091BC20309709F01995FF91E7
:10225000EF91BF91AF919F918F917F916F915F911E
:102260004F913F912F910F900BBE0F9009BE0F9091
:1022700008BE0F900FBE0F901F9018951F920F92DF
:102280000FB60F92112408B60F9218BE09B60F921E
:1022900019BE0BB60F921BBE2F933F934F935F93C4
:1022A0006F937F938F939F93AF93BF93EF93FF931E
:1022B000E091B920F091BA20309709F01995FF917B
:1022C000EF91BF91AF919F918F917F916F915F91AE
:1022D0004F913F912F910F900BBE0F9009BE0F9021
:1022E00008BE0F900FBE0F901F9018951F920F926F
:1022F0000FB60F92112408B60F9218BE09B60F92AE
:1023000019BE0BB60F921BBE2F933F934F935F9353
:102310006F937F938F939F93AF93BF93EF93FF93AD
:10232000E091B720F091B820309709F01995FF910E
:10233000EF91BF91AF919F918F917F916F915F913D
:102340004F913F912F910F900BBE0F9009BE0F90B0
:1023500008BE0F900FBE0F901F9018951F920F92FE
:102360000FB60F92112408B60F9218BE09B60F923D
:1023700019BE0BB60F921BBE2F933F934F935F93E3
:102380006F937F938F939F93AF93BF93EF93FF933D
:10239000E091B520F091B620309709F01995FF91A2
:1023A000EF91BF91AF919F918F917F916F915F91CD
:1023B0004F913F912F910F900BBE0F9009BE0F9040
:1023C00008BE0F900FBE0F901F9018951F920F928E
:1023D0000FB60F92112408B60F9218BE09B60F92CD
:1023E00019BE0BB60F921BBE2F933F934F935F9373
:1023F0006F937F938F939F93AF93BF93EF93FF93CD
:10240000E091B320F091B420309709F01995FF9135
:10241000EF91BF91AF919F918F917F916F915F915C
:102420004F913F912F910F900BBE0F9009BE0F90CF
:1024300008BE0F900FBE0F901F9018951F920F921D
:102440000FB60F92112408B60F9218BE09B60F925C
:1024500019BE0BB60F921BBE2F933F934F935F9302
:102460006F937F938F939F93AF93BF93EF93FF935C
:10247000E091B120F091B220309709F01995FF91C9
:10248000EF91BF91AF919F918F917F916F915F91EC
:102490004F913F912F910F900BBE0F9009BE0F905F
:1024A00008BE0F900FBE0F901F9018951F920F92AD
:1024B0000FB60F92112408B60F9218BE09B60F92EC
:1024C00019BE0BB60F921BBE2F933F934F935F9392
:1024D0006F937F938F939F93AF93BF93EF93FF93EC
:1024E000E091AF20F091B020309709F01995FF915D
:1024F000EF91BF91AF919F918F917F916F915F917C
:102500004F913F912F910F900BBE0F9009BE0F90EE
:1025100008BE0F900FBE0F901F9018951F920F923C
:102520000FB60F92112408B60F9218BE09B60F927B
:1025300019BE0BB60F921BBE2F933F934F935F9321
:102540006F937F938F939F93AF93BF93EF93FF937B
:10255000E091AD20F091AE20309709F01995FF91F0
:10256000EF91BF91AF919F918F917F916F915F910B
:102570004F913F912F910F900BBE0F9009BE0F907E
:1025800008BE0F900FBE0F901F9018951F920F92CC
:102590000FB60F92112408B60F9218BE09B60F920B
:1025A00019BE0BB60F921BBE2F933F934F935F93B1
:1025B0006F937F938F939F93AF93BF93EF93FF930B
:1025C000E091AB20F091AC20309709F01995FF9184
:1025D000EF91BF91AF919F918F917F916F915F919B
:1025E0004F913F912F910F900BBE0F9009BE0F900E
:1025F00008BE0F900FBE0F901F9018951F920F925C
:102600000FB60F92112408B60F9218BE09B60F929A
:1026100019BE0BB60F921BBE2F933F934F935F9340
:102620006F937F938F939F93AF93BF93EF93FF939A
:10263000E091A920F091AA20309709F01995FF9117
:10264000EF91BF91AF919F918F917F916F915F912A
:102650004F913F912F910F900BBE0F9009BE0F909D
:1026600008BE0F900FBE0F901F9018951F920F92EB
:102670000FB60F92112408B60F9218BE09B60F922A
:1026800019BE0BB60F921BBE2F933F934F935F93D0
:102690006F937F938F939F93AF93BF93EF93FF932A
:1026A000E091A720F091A820309709F01995FF91AB
:1026B000EF91BF91AF919F918F917F916F915F91BA
:1026C0004F913F912F910F900BBE0F9009BE0F902D
:1026D00008BE0F900FBE0F901F9018951F920F927B
:1026E0000FB60F92112408B60F9218BE09B60F92BA
:1026F00019BE0BB60F921BBE2F933F934F935F9360
:102700006F937F938F939F93AF93BF93EF93FF93B9
:10271000E091A520F091A620309709F01995FF913E
:10272000EF91BF91AF919F918F917F916F915F9149
:102730004F913F912F910F900BBE0F9009BE0F90BC
:1027400008BE0F900FBE0F901F9018951F920F920A
:102750000FB60F92112408B60F9218BE09B60F9249
:1027600019BE0BB60F921BBE2F933F934F935F93EF
:102770006F937F938F939F93AF93BF93EF93FF9349
:10278000E091A320F091A420309709F01995FF91D2
:10279000EF91BF91AF919F918F917F916F915F91D9
:1027A0004F913F912F910F900BBE0F9009BE0F904C
:1027B00008BE0F900FBE0F901F9018951F920F929A
:1027C0000FB60F92112408B60F9218BE09B60F92D9
:1027D00019BE0BB60F921BBE2F933F934F935F937F
:1027E0006F937F938F939F93AF93BF93EF93FF93D9
:1027F000E091A120F091A220309709F01995FF9166
:10280000EF91BF91AF919F918F917F916F915F9168
:102810004F913F912F910F900BBE0F9009BE0F90DB
:1028200008BE0F900FBE0F901F9018951F920F9229
:102830000FB60F92112408B60F9218BE09B60F9268
:1028400019BE0BB60F921BBE2F933F934F935F930E
:102850006F937F938F939F93AF93BF93EF93FF9368
:10286000E0919F20F091A020309709F01995FF91F9
:10287000EF91BF91AF919F918F917F916F915F91F8
:102880004F913F912F910F900BBE0F9009BE0F906B
:1028900008BE0F900FBE0F901F9018951F920F92B9
:1028A0000FB60F92112408B60F9218BE09B60F92F8
:1028B00019BE0BB60F921BBE2F933F934F935F939E
:1028C0006F937F938F939F93AF93BF93EF93FF93F8
:1028D000E0919D20F0919E20309709F01995FF918D
:1028E000EF91BF91AF919F918F917F916F915F9188
:1028F0004F913F912F910F900BBE0F9009BE0F90FB
:1029000008BE0F900FBE0F901F9018951F920F9248
:102910000FB60F92112408B60F9218BE09B60F9287
:1029200019BE0BB60F921BBE2F933F934F935F932D
:102930006F937F938F939F93AF93BF93EF93FF9387
:10294000E0919B20F0919C20309709F01995FF9120
:10295000EF91BF91AF919F918F917F916F915F9117
:102960004F913F912F910F900BBE0F9009BE0F908A
:1029700008BE0F900FBE0F901F9018951F920F92D8
:102980000FB60F92112408B60F9218BE09B60F9217
:1029900019BE0BB60F921BBE2F933F934F935F93BD
:1029A0006F937F938F939F93AF93BF93EF93FF9317
:1029B000E0919920F0919A20309709F01995FF91B4
:1029C000EF91BF91AF919F918F917F916F915F91A7
:1029D0004F913F912F910F900BBE0F9009BE0F901A
:1029E00008BE0F900FBE0F901F9018951F920F9268
:1029F0000FB60F92112408B60F9218BE09B60F92A7
:102A000019BE0BB60F921BBE2F933F934F935F934C
:102A10006F937F938F939F93AF93BF93EF93FF93A6
:102A2000E0919720F0919820309709F01995FF9147
:102A3000EF91BF91AF919F918F917F916F915F9136
:102A40004F913F912F910F900BBE0F9009BE0F90A9
:102A500008BE0F900FBE0F901F9018951F920F92F7
:102A60000FB60F92112408B60F9218BE09B60F9236
:102A700019BE0BB60F921BBE2F933F934F935F93DC
:102A80006F937F938F939F93AF93BF93EF93FF9336
:102A9000E0919520F0919620309709F01995FF91DB
:102AA000EF91BF91AF919F918F917F916F915F91C6
:102AB0004F913F912F910F900BBE0F9009BE0F9039
:102AC00008BE0F900FBE0F901F9018951F920F9287
:102AD0000FB60F92112408B60F9218BE09B60F92C6
:102AE00019BE0BB60F921BBE2F933F934F935F936C
:102AF0006F937F938F939F93AF93BF93EF93FF93C6
:102B0000E0919320F0919420309709F01995FF916E
:102B1000EF91BF91AF919F918F917F916F915F9155
:102B20004F913F912F910F900BBE0F9009BE0F90C8
:102B300008BE0F900FBE0F901F9018951F920F9216
:102B40000FB60F92112408B60F9218BE09B60F9255
:102B500019BE0BB60F921BBE2F933F934F935F93FB
:102B60006F937F938F939F93AF93BF93EF93FF9355
:102B7000E0919120F0919220309709F01995FF9102
:102B8000EF91BF91AF919F918F917F916F915F91E5
:102B90004F913F912F910F900BBE0F9009BE0F9058
:102BA00008BE0F900FBE0F901F9018951F920F92A6
:102BB0000FB60F92112408B60F9218BE09B60F92E5
:102BC00019BE0BB60F921BBE2F933F934F935F938B
:102BD0006F937F938F939F93AF93BF93EF93FF93E5
:102BE000E0918F20F0919020309709F01995FF9196
:102BF000EF91BF91AF919F918F917F916F915F9175
:102C00004F913F912F910F900BBE0F9009BE0F90E7
:102C100008BE0F900FBE0F901F9018951F920F9235
:102C20000FB60F92112408B60F9218BE09B60F9274
:102C300019BE0BB60F921BBE2F933F934F935F931A
:102C40006F937F938F939F93AF93BF93EF93FF9374
:102C5000E0918D20F0918E20309709F01995FF9129
:102C6000EF91BF91AF919F918F917F916F915F9104
:102C70004F913F912F910F900BBE0F9009BE0F9077
:102C800008BE0F900FBE0F901F9018951F920F92C5
:102C90000FB60F92112408B60F9218BE09B60F9204
:102CA00019BE0BB60F921BBE2F933F934F935F93AA
:102CB0006F937F938F939F93AF93BF93EF93FF9304
:102CC000E0918B20F0918C20309709F01995FF91BD
:102CD000EF91BF91AF919F918F917F916F915F9194
:102CE0004F913F912F910F900BBE0F9009BE0F9007
:102CF00008BE0F900FBE0F901F9018951F920F9255
:102D00000FB60F92112408B60F9218BE09B60F9293
:102D100019BE0BB60F921BBE2F933F934F935F9339
:102D20006F937F938F939F93AF93BF93EF93FF9393
:102D3000E0918920F0918A20309709F01995FF9150
:102D4000EF91BF91AF919F918F917F916F915F9123
:102D50004F913F912F910F900BBE0F9009BE0F9096
:102D600008BE0F900FBE0F901F9018951F93CF9322
:102D7000DF931F921F92CDB7DEB72FB72A83F89447
:102D80001A81282F392F211588E0380749F461E08E
:102D900083E00E94240D64E083E00E94240D5CC067
:102DA000203488E0380749F462E083E00E94240D73
:102DB00064E083E00E94240D4FC0211589E03807AC
:102DC00049F461E084E00E94240D64E084E00E9404
:102DD000240D42C0203489E0380749F462E084E0E1
:102DE0000E94240D64E084E00E94240D35C021156A
:102DF0008AE0380749F461E085E00E94240D64E030
:102E000085E00E94240D28C020348AE0380749F468
:102E100062E085E00E94240D64E085E00E94240DBC
:102E20001BC021158BE0380749F461E086E00E9461
:102E3000240D64E086E00E94240D0EC020343B4047
:102E400049F462E086E00E94240D64E086E00E947E
:102E5000240D02C01FBF10C0809100218F3F09F4D4
:102E6000FFCF8FB78983F8949981EFEFF0E28181EA
:102E70008F5F81839FBF1FBF0F900F90DF91CF9116
:102E80001F910895811528E0920729F46093D720B7
:102E90007093D8200895803428E0920729F4609335
:102EA000CB207093CC200895811529E0920729F456
:102EB0006093C3207093C4200895803429E0920762
:102EC00029F46093B7207093B820089581152AE003
:102ED000920729F46093AF207093B0200895803456
:102EE0002AE0920729F46093A3207093A420089508
:102EF00081152BE0920729F460939B2070939C200E
:102F0000089580349B4021F460938F20709390202B
:102F100008954091CA01E62FF72F8093CA0184914A
:102F20004093CA0108951BBEFC0128ED24BF6083B5
:102F30000895CF93DF93FC0120E030E0C62FD0E06E
:102F4000DE01022E02C0B595A7950A94E2F7A0FD16
:102F5000508B2F5F3F4F31962830310589F740FF66
:102F60000AC041FF03C0FC01658302C0FC01668307
:102F7000FC01618302C0FC016283DF91CF9108955F
:102F800043E050E068E080EC97E0D3DF40E058E1B8
:102F900064E080EC97E0CDCF089504C061507109E2
:102FA000810991096115710581059105B9F70895A8
:102FB000E0ECF7E0948188E08927848308950F93FB
:102FC0001F93CF93DF93CDB7DEB72897CDBFDEBF7A
:102FD00029833A834B835C836D837E838F839887B9
:102FE0000B811C8187E08093A200C801BFDE6F8146
:102FF0007885C80147DFF8018181887F81838D81D1
:103000009E8186A397A386818C7F8683868181603B
:10301000868378948081807F876080832896CDBF67
:10302000DEBFDF91CF911F910F910895CF93DF9372
:10303000CDB7DEB72897CDBFDEBFE0ECF7E08081EB
:103040008860808388E0EFE0F0E2DE011196019075
:103050000D928A95E1F729813A814B815C816D81DE
:103060007E818F819885ABDF6CEA76EE86E991E010
:1030700094DF89E09DE38093260A9093270A28969F
:10308000CDBFDEBFDF91CF910895CF93DF93EB01EA
:103090000E94E5038883DF91CF9108950C94DD03AE
:1030A0000895CF93DF93CDB7DEB72797CDBFDEBFAF
:1030B00060E185E00E94240DE0E8F6E08081886010
:1030C000808380EA9AE08093FD209093FE208EE436
:1030D00098E18093FB209093FC2085E498E1809315
:1030E000D9209093DA20E8E0F0E284818D83858115
:1030F0008E8386818F8380819181A281B381898330
:103100009A83AB83BC8360E185E00E94240DBE01FD
:103110006F5F7F4F80EA9AE00E94FE0463ED71E0EA
:103120008EE89CE0BFD780E490E20E94EB2085E629
:1031300090E20E94EB202796CDBFDEBFDF91CF91BA
:1031400008951EDF0E94EE0CACDFE0EAF0E087E0BD
:103150008283828180688283789486E790E29F935D
:103160008F930E94D8200E945E070E94ED065EDFCA
:103170000F900F90C0ECD7E018E0888582FD02C068
:103180001E8301C01D830E947B070E94F706F5CFB6
:103190005058BB27AA270ED01CC10DD130F012D138
:1031A00020F031F49F3F11F41EF402C10EF4E095BB
:1031B000E7FBF8C0E92F1ED180F3BA176207730747
:1031C0008407950718F071F49EF536C10EF4E0956A
:1031D0000B2EBA2FA02D0B01B90190010C01CA01D1
:1031E000A0011124FF27591B99F0593F50F4503E7C
:1031F00068F11A16F040A22F232F342F4427585F6E
:10320000F3CF469537952795A795F0405395C9F785
:103210007EF41F16BA0B620B730B840BBAF091503D
:10322000A1F0FF0FBB1F661F771F881FC2F70EC0DC
:10323000BA0F621F731F841F48F4879577956795AF
:10324000B795F7959E3F08F0B3CF9395880F08F098
:103250009927EE0F9795879508950CD0BAC0B2D0F4
:1032600040F0A9D030F021F45F3F19F09BC051111C
:10327000E4C09EC0BFD098F39923C9F35523B1F39E
:10328000951B550BBB27AA2762177307840738F0D5
:103290009F5F5F4F220F331F441FAA1FA9F333D034
:1032A0000E2E3AF0E0E830D091505040E695001CE8
:1032B000CAF729D0FE2F27D0660F771F881FBB1FA4
:1032C000261737074807AB07B0E809F0BB0B802D7E
:1032D000BF01FF2793585F4F2AF09E3F510568F0CA
:1032E00061C0ABC05F3FECF3983EDCF38695779509
:1032F0006795B795F7959F5FC9F7880F911D9695CC
:10330000879597F90895E1E0660F771F881FBB1F27
:10331000621773078407BA0720F0621B730B840BD4
:10332000BA0BEE1F88F7E0950895E89409C097FB63
:103330003EF490958095709561957F4F8F4F9F4F8C
:103340009923A9F0F92F96E9BB279395F6958795D0
:1033500077956795B795F111F8CFFAF4BB0F11F493
:1033600060FF1BC06F5F7F4F8F4F9F4F16C088233A
:1033700011F096E911C0772321F09EE8872F762F70
:1033800005C0662371F096E8862F70E060E02AF0B1
:103390009A95660F771F881FDAF7880F969587959D
:1033A00097F9089597F99F6780E870E060E00895C5
:1033B0009FEF80EC089500240A941616170618064D
:1033C0000906089500240A94121613061406050629
:1033D0000895092E0394000C11F4882352F0BB0FBA
:1033E00040F4BF2B11F460FF04C06F5F7F4F8F4F1D
:1033F0009F4F089557FD9058440F551F59F05F3F58
:1034000071F04795880F97FB991F61F09F3F79F006
:1034100087950895121613061406551FF2CF469588
:10342000F1DF08C0161617061806991FF1CF86950A
:103430007105610508940895E894BB2766277727EE
:10344000CB0197F908950EF0A6C0B2CF6894AACF29
:10345000D9DFC8F39923D1F3C6F3DF93CF931F933A
:103460000F93FF92C92FDD2788232AF02197660F3B
:10347000771F881FDAF720E030E040E85FEB9FE33A
:10348000883920F0803E30F021968F7782DEECEF95
:10349000F1E003C07EDEE9E2F2E08BD08B01BE01F9
:1034A000EC01FB2E6F5771097595771F880B990BEF
:1034B0003EDF28E132E741E35FE316D0AF2D98010C
:1034C000AE01FF900F911F91CF91DF9173DE81CFFD
:1034D0000BD07FCF70DF28F075DF18F0952309F04F
:1034E00061CF66CF1124A9CF85DFA0F3959FD1F3DB
:1034F000950F50E0551F629FF001729FBB27F00DA2
:10350000B11D639FAA27F00DB11DAA1F649F6627F6
:10351000B00DA11D661F829F2227B00DA11D621F45
:10352000739FB00DA11D621F839FA00D611D221FFF
:10353000749F3327A00D611D231F849F600D211DE3
:10354000822F762F6A2F11249F5750408AF0E1F086
:1035500088234AF0EE0FFF1FBB1F661F771F881FCF
:1035600091505040A9F79E3F510570F01BCF65CF99
:103570005F3FECF3983EDCF3869577956795B795BA
:10358000F795E7959F5FC1F7FE2B880F911D9695E4
:10359000879597F908959F3F31F0915020F48795D2
:1035A00077956795B795880F911D9695879597F9AB
:1035B0000895DF93CF931F930F93FF92EF92DF92C3
:1035C0007B018C01689405C0DA2EEF018DDFFE01CE
:1035D000E894A5912591359145915591AEF3EF0170
:1035E000E9DDFE019701A801DA9479F7DF90EF9009
:1035F000FF900F911F91CF91DF9108952F923F92ED
:103600004F925F926F927F928F929F92AF92BF92F2
:10361000CF92DF92EF92FF920F931F93CF93DF939E
:10362000CDB7DEB76097CDBFDEBF7C011B016A015D
:10363000FC0116821782838181FF2AC39E012F5FBE
:103640003F4F3901F7019381F10193FD859193FF7C
:1036500081911F01882309F417C3853239F493FD42
:10366000859193FF81911F01853231F4B70190E07C
:1036700063D556016501E6CF10E0512C912CFFE196
:10368000F915D8F08B3279F038F4803279F0833242
:10369000A1F4F92DF0612EC08D3261F0803369F410
:1036A000292D21602DC0392D3260932E892D846003
:1036B000982E2AC0E92DE86015C097FC2DC020ED9A
:1036C000280F2A3088F496FE06C03AE0139F200D9A
:1036D0001124122F19C08AE0589E200D1124522E59
:1036E000E92DE0629E2E10C08E3231F496FCCCC2E1
:1036F000F92DF0649F2E08C08C3621F4292D206806
:10370000922E02C0883641F4F10193FD859193FF1A
:1037100081911F018111B3CF9BEB980F933020F45F
:10372000992D9061805E07C09BE9980F933008F057
:1037300059C1992D9F7E96FF16E09F73992E85366D
:1037400019F49064992E08C0863621F4392F306818
:10375000932E02C01111115097FE07C01C3350F474
:1037600044244394410E27E00BC0183038F027E082
:1037700017E005C027E09CE3492E02C0212F412C11
:10378000560184E0A80EB11CF6016081718182812E
:103790009381042DA30198D36C01F981FC87F0FF7C
:1037A00002C0F3FF06C091FC06C092FE06C000E214
:1037B00005C00DE203C00BE201C000E08C858C70F7
:1037C00019F0011143C280C297FE10C04C0CFC8559
:1037D000F4FF04C08A81813309F44A94141474F507
:1037E00028E0241578F588E0482E2CC096FC2AC0E5
:1037F000812F90E08C159D059CF03CEFC3163FEFA8
:10380000D30674F0892D8068982E0AC0E2E0F0E0BB
:10381000EC0FFD1FE10FF11D8081803319F4115071
:103820001111F4CF97FE0EC044244394410E812F12
:1038300090E0C816D9062CF41C1904C04424439403
:1038400001C010E097FE06C01C141D0434F4C6012C
:10385000019605C085E090E002C081E090E0011192
:103860000196112331F0212F30E02F5F3F4F820F5F
:10387000931F252D30E08217930714F4581A01C0C6
:10388000512C892D897041F4552031F0B70180E227
:1038900090E052D45A94F8CF002321F0B701802F42
:1038A00090E04AD493FC08C0552031F0B70180E382
:1038B00090E042D45A94F8CF97FE4AC04601D7FE12
:1038C00002C0812C912CC60188199909F301E80FD7
:1038D000F91FED87FE879601241931092F87388B50
:1038E000012F10E01195019511093FEF8316930602
:1038F00021F4B7018EE290E01FD4C814D9044CF033
:103900008F8598898815990524F4ED85FE85818138
:1039100001C080E3F1E08F1A91082D853E852F5F6D
:103920003F4F2D873E878016910624F0B70190E027
:1039300003D4DBCFC814D90441F49A81963320F420
:10394000953319F43C8534FF81E3B70190E048C01A
:103950008A81813319F09C859F7E9C87B70190E016
:10396000EBD3111105C094FC16C085E690E015C09C
:10397000B7018EE290E0E0D31E5F82E001E0080F25
:10398000F301E80FF11D8081B70190E0D5D3802FBE
:103990000113F4CFE8CF85E490E0B701CDD3D7FC95
:1039A00006C0C114D10441F4EC85E4FF05C0D194F4
:1039B000C194D1088DE201C08BE2B70190E0BCD385
:1039C00080E32AE0C216D1042CF08F5FFAE0CF1A10
:1039D000D108F7CFB70190E0AFD3B701C601C096C9
:1039E000ABD349C1833631F0833779F0833509F0A1
:1039F00052C01FC0560132E0A30EB11CF6018081F7
:103A0000898301E010E0630111C05601F2E0AF0EBE
:103A1000B11CF601C080D18096FE03C0612F70E01A
:103A200002C06FEF7FEFC60132D38C01F92DFF7713
:103A300013C0560122E0A20EB11CF601C080D18055
:103A400096FE03C0612F70E002C06FEF7FEFC601EA
:103A500013D38C01F92DF0689F2EF3FD18C0852D2E
:103A600090E00817190798F4B70180E290E064D35A
:103A70005A94F5CFF60197FC859197FE81916F01DD
:103A8000B70190E059D351105A9401501109011512
:103A9000110581F7F0C0843611F0893659F55601C9
:103AA00097FE09C024E0A20EB11CF601608171816D
:103AB000828193810AC0F2E0AF0EB11CF6016081F1
:103AC0007181072E000C880B990BF92DFF769F2E24
:103AD00097FF09C090958095709561957F4F8F4FA6
:103AE0009F4FF0689F2E2AE030E0A301A4D3C82E98
:103AF000C6183EC0092D853721F40F7E2AE030E03C
:103B00001DC0097F8F3691F018F4883559F0BCC07C
:103B1000803719F0883711F0B7C0006104FF09C081
:103B2000046007C094FE08C0066006C028E030E0CC
:103B300005C020E130E002C020E132E0560107FF7D
:103B400009C084E0A80EB11CF601608171818281F8
:103B5000938108C0F2E0AF0EB11CF6016081718163
:103B600080E090E0A30167D3C82EC6180F77902E8F
:103B700096FE0BC0092D0E7FC11650F494FE0AC0AC
:103B800092FC08C0092D0E7E05C0DC2C092D03C057
:103B9000DC2C01C0D12E04FF0DC0FE01EC0DF11D87
:103BA0008081803311F4097E09C002FF06C0D394DE
:103BB000D39404C0802F867809F0D39403FD10C0FD
:103BC00000FF06C01C2DD51478F4150D1D190CC06E
:103BD000D51450F4B70180E290E0AED2D394F8CF80
:103BE000D51410F45D1801C0512C04FF0FC0B701AB
:103BF00080E390E0A1D202FF16C001FD03C088E778
:103C000090E002C088E590E0B7010CC0802F867874
:103C100051F001FF02C08BE201C080E207FD8DE29E
:103C2000B70190E089D2C11630F4B70180E390E08B
:103C300083D21150F8CFCA94F301EC0DF11D8081AD
:103C4000B70190E079D2C110F6CF15C0F4E0F515B8
:103C500050F584E0581A93FE1EC0011125C02C8532
:103C600023FF27C006E512E0392D3071932EF801AD
:103C70008491811121C0552009F4FCCCB70180E268
:103C800090E05AD25A94F7CFF7018681978123C0EA
:103C90008FEF9FEF20C0B70180E290E04DD25A94A1
:103CA0005110F9CFDACF512CB701802F90E044D2D8
:103CB000D6CF0AE512E0D8CF91108052B70190E03C
:103CC0003BD20F5F1F4FD3CF23E0251510F483E0C5
:103CD000C1CF512CC4CF6096CDBFDEBFDF91CF9155
:103CE0001F910F91FF90EF90DF90CF90BF90AF901A
:103CF0009F908F907F906F905F904F903F902F900C
:103D00000895A1E21A2EAA1BBB1BFD010DC0AA1F1C
:103D1000BB1FEE1FFF1FA217B307E407F50720F034
:103D2000A21BB30BE40BF50B661F771F881F991FAF
:103D30001A9469F760957095809590959B01AC01F8
:103D4000BD01CF010895A29FB001B39FC001A39F01
:103D5000700D811D1124911DB29F700D811D1124C4
:103D6000911D0895DF93CF931F930F939A9DF02D8C
:103D7000219FF00D8B9DF00D8A9DE02DF10D039F8D
:103D8000F00D029FE00DF11D4E9DE00DF11D5E9DB9
:103D9000F00D4F9DF00D7F936F93BF92AF925F93A5
:103DA0004F93D501D0DF8B01AC01D701CCDFEB0104
:103DB000E80FF91FD6011FD02F913F91D601C3DF25
:103DC000C60FD71FE81FF91FAF91BF9114D02F91D5
:103DD0003F91B9DFC60FD71FE81FF91FD601B3DF28
:103DE000E60FF71F9801BE01CF0111240F911F911B
:103DF000CF91DF910895A7DF460F571FC81FD91F26
:103E000008F4319608950F93083090F0982F872F7B
:103E1000762F652F542F432F322F22270850F4CFAF
:103E2000220F331F441F551F661F771F881F991FBE
:103E30000A95B2F70F91089597FB10F816940008B1
:103E40000F93083098F00850232F342F452F562F0A
:103E5000672F782F892F902DF4CF0594979587950C
:103E60007795679557954795379527950A95AAF7BA
:103E70000F9108952A0D3B1D4C1D5D1D6E1D7F1D6C
:103E8000801F911F08950024A7FD00942A0F301D64
:103E9000401D501D601D701D801D901D08952A1924
:103EA0003B094C095D096E097F09800B910B089550
:103EB0000024A7FD00942A17300540055005600531
:103EC0007005800590050895283008F027E0332715
:103ED000DA01990F311D87FD91600096610571052A
:103EE00039F432602E5F3D9330E32A95E1F708956F
:103EF0009F3F30F080387105610509F03C5F3C5F01
:103F00003D93913008F08068911DDF93CF931F930C
:103F10000F93FF92EF92192F987F9695E92F969520
:103F20009695E90FFF27E854FD4F99273327EE2494
:103F3000FF24A701E70105900894079428F4360FA1
:103F4000E71EF81E491F511D660F771F881F991F16
:103F50000694A1F70590079428F4E70EF81E491F70
:103F6000561FC11D770F881F991F661F0694A1F762
:103F70000590079428F4F80E491F561FC71FD11D3E
:103F8000880F991F661F771F0694A1F70590079465
:103F900020F4490F561FC71FD81F990F661F771FA0
:103FA000881F0694A9F784911095177041F0D69553
:103FB000C79557954795F794E7941A95C1F7EEE59D
:103FC000F2E0689415901591359165919591059061
:103FD0007FE27395E118F10A430B560BC90BD00928
:103FE000C0F7E10CF11E431F561FC91FD01D7EF400
:103FF000703311F48A95E6CFE894015030F0080F41
:104000000AF40027021708F4202F2395022F7A3391
:1040100028F079E37D932A95E9F710C07D932A95DE
:1040200089F6069497956795379517951794E11833
:10403000F10A430B560BC90BD00998F023957E91DA
:1040400073957A3308F070E37C932013B8F77E9170
:1040500070617D9330F0839571E37D9370E32A95D1
:10406000E1F71124EF90FF900F911F91CF91DF9115
:10407000992787FD90950895FC0105906150704047
:104080000110D8F7809590958E0F9F1F0895FC0121
:104090006150704001900110D8F7809590958E0F77
:1040A0009F1F08950F931F93CF93DF93009731F4D1
:1040B0006115710519F480E090E039C08B01EC01C5
:1040C0006EE070E081E090E014D1FC01892B99F35F
:1040D00080E883830115110571F00287138781E859
:1040E000838380910D2190910E21892B21F4E093FF
:1040F0000D21F0930E212097C9F0C087D1878381CD
:104100008260838380910F2190911021892B71F41B
:10411000E0930F21F09310218091112190911221B1
:10412000892B21F4E0931121F0931221CF01DF912B
:10413000CF911F910F9108950F931F93CF93DF930A
:10414000FB01238121FD03C08FEF9FEF2CC022FFD5
:1041500016C046815781248135814217530744F4A4
:10416000A081B1819D012F5F3F4F208331838C93CC
:10417000268137812F5F3F4F2683378314C08B0101
:10418000EC01FB010084F185E02D1995892BE1F606
:10419000D80116968D919C911797019616968D933E
:1041A0009C931797CE01DF91CF911F910F910895A6
:1041B000CF93DF93CDB7DEB7AE014A5F5F4FFA0111
:1041C00061917191AF0180910F219091102116DAC8
:1041D000DF91CF9108950F931F93CF93DF93E091D9
:1041E0000F21F0911021238121FF1BC08C01D0E011
:1041F000C0E0F80181918F0160910F217091102131
:10420000DB011896ED91FC911997882331F01995EF
:10421000892B79F3DFEFCFEFECCF8AE01995892B6B
:1042200019F08FEF9FEF02C08D2F9C2FDF91CF9160
:104230001F910F910895FA01AA27283051F12031DA
:1042400081F1E8946F936E7F6E5F7F4F8F4F9F4F2A
:10425000AF4FB1E03ED0B4E03CD0670F781F891F6C
:104260009A1FA11D680F791F8A1F911DA11D6A0F3A
:10427000711D811D911DA11D20D009F468943F91ED
:104280002AE0269F11243019305D3193DEF6CF01EC
:104290000895462F4770405D4193B3E00FD0C9F7B2
:1042A000F6CF462F4F70405D4A3318F0495D31FD1F
:1042B0004052419302D0A9F7EACFB4E0A695979572
:1042C000879577956795BA95C9F700976105710548
:1042D00008959B01AC010A2E069457954795379592
:1042E0002795BA95C9F7620F731F841F951FA01DEC
:1042F00008950F931F93CF93DF93869F8001879F2D
:10430000100D969F100D1124C8010DD0EC010097DF
:1043100021F0A80160E070E027D1CE01DF91CF91BC
:104320001F910F9108950F931F93CF93DF938230C6
:10433000910510F482E090E0E0911521F0911621B2
:1043400020E030E0A0E0B0E0309719F140815181E9
:104350000281138148175907C8F08417950769F43B
:10436000109731F012960C93129713961C9327C056
:10437000009315211093162122C02115310519F043
:104380004217530718F49A01BD01EF01DF01F8014C
:10439000DBCF21153105F9F0281B390B243031050D
:1043A00080F48A819B816115710521F0FB01828374
:1043B000938304C08093152190931621FE013296B9
:1043C00044C0FE01E20FF31F819391932250310903
:1043D000288339833AC02091132130911421232B53
:1043E00041F4209102203091032020931321309337
:1043F000142120910020309101202115310541F434
:104400002DB73EB74091042050910520241B350B59
:10441000E0911321F0911421E217F307A0F42E1B71
:104420003F0B2817390778F0AC014E5F5F4F241718
:10443000350748F04E0F5F1F40931321509314210E
:104440008193919302C0E0E0F0E0CF01DF91CF9142
:104450001F910F910895CF93DF93009709F481C0C6
:10446000FC01329712821382A0911521B09116217E
:10447000109781F420813181820F931F20911321A5
:10448000309114212817390751F5E0931321F09347
:10449000142167C0ED0120E030E0CE17DF0740F4C3
:1044A0004A815B819E0141155105F1F0EA01F5CF8A
:1044B000C283D38340815181840F951FC817D907C8
:1044C00059F488819981840F951F02968083918386
:1044D0008A819B81828393832115310529F4E0939E
:1044E0001521F09316213DC0E901EA83FB83499130
:1044F0005991C40FD51FEC17FD0761F4808191819C
:10450000840F951F0296E9018883998382819381A4
:104510008A839B83E0E0F0E012968D919C91139743
:10452000009719F0FD01DC01F7CF8D919C91119757
:104530009D012E5F3F4F820F931F209113213091D9
:1045400014212817390769F4309729F4109215219E
:104550001092162102C012821382A0931321B093ED
:104560001421DF91CF910895DC0101C06D9341507A
:0A4570005040E0F70895F894FFCFE3
:10457A00000017212000485800C2010003000180F2
:10458A0006000A127AD817546865726D6973746FD7
:10459A007220496E697469616C697A65642E007467
:1045AA00656D703A2025332E32660A0025660A00A8
:1045BA000A0A0A0A0A43616E7361742056616C6BB7
:1045CA007972696520496E697469616C697A696E84
:1045DA00672E2E2E005541525420496E6974696126
:0C45EA006C697A656400752047617900F7
:00000001FF
