S019000056616C6B7972696550726F746F747970652E73726563EE
S11300002AC100004EC100004CC100004AC10000DA
S113001048C1000046C1000044C1000042C10000C4
S113002040C100003EC100000C94780A0C949B0A65
S113003038C1000079C200000C941F0B0C94570BBC
S11300400C948F0B0C94C70B0C94FF0B0C94370C73
S11300500C946F0C0C94A70C0C94DF0C0C94170DDF
S113006020C100001EC100001CC100001AC1000014
S113007018C1000016C1000014C1000012C1000024
S113008010C100000EC100000CC100000AC1000034
S113009008C1000006C1000004C1000085C70000BB
S11300A0C0C70000FBC700000C948B08FAC0000016
S11300B0F8C00000F6C000009BC200000C947F0F43
S11300C00C94B70F0C94EF0F0C9427100C945F1042
S11300D00C9497100C94CF100C9407110C943F11AE
S11300E00C947711DEC00000DCC00000DAC0000010
S11300F0D8C00000D6C00000D4C00000D2C00000A8
S1130100D0C00000CEC00000CCC00000CAC00000B7
S1130110C8C00000C6C00000C4C0000051C6000032
S11301208CC60000C7C6000002C70000BAC00000A9
S11301302DC200000C944F0D0C94870D0C94BF0D30
S11301400C94F70D0C942F0E0C94670E0C949F0EC8
S11301500C94D70E0C940F0F0C94470FA2C0000000
S1130160A0C000009EC000009CC000009AC0000017
S113017098C0000096C0000094C0000092C0000027
S113018090C000008EC000008CC000008AC0000037
S113019088C0000086C0000084C0000082C0000047
S11301A080C000007EC000007CC0000053C200007C
S11301B00C94AF110C94E7110C941F120C94571269
S11301C00C948F120C94C7120C94FF120C943713D6
S11301D00C946F130C94A71364C0000062C0000059
S11301E060C000005EC000005CC000005AC0000097
S11301F058C0000056C0000054C0000008000000B1
S1130200BE922449123EABAAAA2ABECDCCCC4C3E07
S113021000000080BEABAAAAAA3E00000000BF00F6
S11302200000803F0000000000084178D3BB4387F2
S1130230D1133D190E3CC3BD4282AD2B3E68EC8206
S113024076BED98FE1A93E4C80EFFFBE01C4FF7F8B
S11302503F000000000011241FBECFEFCDBFDFE33D
S1130260DEBF00E00CBF18BE19BE1ABE1BBE10E2F2
S1130270A0E0B0E2EAEBF9E300E00BBF02C00790B4
S11302800D92A437B107D9F71BBE20E2A4E7B0E270
S113029001C01D92A33FB207E1F70E94C8150C9458
S11302A0DB1CAECECF93DF931F92CDB7DEB7809128
S11302B0D9209091DA20E091D120F091D220BE0192
S11302C06F5F7F4F19958981082E000C990B0F9051
S11302D0DF91CF910895811522E0920769F480910E
S11302E0752091E0980F90937520811114C062E0FD
S11302F081E00C944D0A08958034924061F4809119
S1130300742091E0980F90937420811104C062E0EE
S113031082E00C944D0A0895811522E0920761F45D
S113032080917520815080937520811113C062E003
S113033081E00C94630A08958034924059F48091CA
S11303407420815080937420811104C062E082E0A3
S11303500C94630A0895EF92FF921F93CF93DF9357
S11303601F921F92CDB7DEB77C018FB78983F894B3
S11303701981C701B0DFF7018081816080831FBFCD
S11303808091DC208F3F09F4FFCF8FB78A83F894E4
S11303909A81EBEDF0E281818F5F81839FBF0F90A3
S11303A00F90DF91CF911F91FF90EF9008951F93CD
S11303B0CF93DF931F921F92CDB7DEB72FB7298358
S11303C0F8941981FC0120812E7F2083A5DF1FBFB3
S11303D08091DC20811101C0FFCF8FB78A83F8940C
S11303E09A81EBEDF0E28181815081839FBF0F9070
S11303F00F90DF91CF911F910895CF93DF93E091F8
S11304007620F0917720848183FF08C088608483FC
S113041083E0838386EF8093802083C0982F947138
S113042031F083E083838FEF809380207AC086FF4E
S113043043C0C6E7D0E2AA81BB818C819D8114961A
S11304402D913C911597821793076CF49C012F5FB3
S11304503F4F20937A2030937B20A80FB91F119629
S11304608C9187835EC080917C2090917D2018962A
S11304702D913C91199782179307C8F420917E20FF
S1130480222321F08681816086834BC016962D91AC
S11304903C911797AC014F5F5F4F40937C20509382
S11304A07D20D901A80FB91F8C9187833AC083E0BE
S11304B083831092802035C0882384F5A6E7B0E2B8
S11304C01296CD91DC91139716968D919C91179766
S11304D02885398582179307D8F46E817F819C0122
S11304E02F5F3F4F20937C2030937D204781DB0199
S11304F0A80FB91F4C93888599852817390718F4D4
S113050082E083830EC087E083831092802009C039
S113051083E0838389EF8093802003C08BEF8093F3
S11305208020DF91CF9108951F920F920FB60F9202
S1130530112408B60F9218BE09B60F9219BE0BB655
S11305400F921BBE2F933F934F935F936F937F93B1
S11305508F939F93AF93BF93EF93FF934EDFFF91DE
S1130560EF91BF91AF919F918F917F916F915F9127
S11305704F913F912F910F900BBE0F9009BE0F909A
S113058008BE0F900FBE0F901F9018951F920F92E8
S11305900FB60F92112408B60F9218BE09B60F9227
S11305A019BE0BB60F921BBE2F933F934F935F93CD
S11305B06F937F938F939F93AF93BF93EF93FF9327
S11305C01CDFFF91EF91BF91AF919F918F917F912C
S11305D06F915F914F913F912F910F900BBE0F90B0
S11305E009BE0F9008BE0F900FBE0F901F90189574
S11305F01F920F920FB60F92112408B60F9218BED5
S113060009B60F9219BE0BB60F921BBE2F933F93E0
S11306104F935F936F937F938F939F93AF93BF9306
S1130620EF93FF93EADEFF91EF91BF91AF919F911A
S11306308F917F916F915F914F913F912F910F9087
S11306400BBE0F9009BE0F9008BE0F900FBE0F9007
S11306501F9018951F920F920FB60F92112408B68F
S11306600F9218BE09B60F9219BE0BB60F921BBE9D
S11306702F933F934F935F936F937F938F939F93A6
S1130680AF93BF93EF93FF93B8DEFF91EF91BF91C8
S1130690AF919F918F917F916F915F914F913F9116
S11306A02F910F900BBE0F9009BE0F9008BE0F90B4
S11306B00FBE0F901F901895FC01918195FFFDCFFF
S11306C0608380E090E00895FC0191819923ECF728
S11306D0808108954F925F926F927F928F929F9242
S11306E0AF92BF92EF92FF920F931F93CF937C012F
S11306F04A015B0128013901FC01848182FF16C093
S1130700D901C801689412F8B695A795979587956D
S11307101694D1F7B901A801032E36E176956795B1
S1130720579547953A95D1F7302D15C0D901C80191
S1130730689413F8B695A795979587951694D1F76D
S1130740B901A801032E37E176956795579547952A
S11307503A95D1F7302D88159905AA05BB0508F4FB
S1130760A6C084169506A606B70608F4A2C0F7012B
S1130770848182FD04C0880C991CAA1CBB1CC30183
S1130780B201A50194010E9443182F3F3105410590
S1130790510508F490C08FEF90E0A0E0B0E0C9EFFD
S11307A005C0281739074A075B0758F0880F991FB7
S11307B0AA1FBB1FCD3F0CF48160CF5FC73089F700
S11307C04FC0CC230CF04CC0D501C401880F991F35
S11307D0AA1FBB1F880F991FAA1FBB1F880F991F31
S11307E0AA1FBB1F481A590A6A0A7B0ACE3FF4F4AF
S11307F08DEF9FEF8C1B9109C7FD939504C0440CAA
S1130800551C661C771C8A95D2F7D501C401B69590
S1130810A79597958795BC01CD01640D751D861D1F
S1130820971DA50194010E94431837C083E08C0FE3
S1130830A501940104C0220F331F441F551F8A953C
S1130840D2F7DA01C901B695A79597958795BC01AA
S1130850CD01640D751D861D971D0E9443181DC092
S113086083E08C0FA501940104C0220F331F441FA1
S1130870551F8A95D2F7DA01C901B695A7959795C0
S11308808795BC01CD01640D751D861D971D0E94C1
S113089043182150310941095109832F8F70C295A2
S11308A0C07FC82BF701C783268381E018C080E08E
S11308B016C080E014C0D501C401880F991FAA1F77
S11308C0BB1F880F991FAA1FBB1F880F991FAA1F40
S11308D0BB1F481A590A6A0A7B0AC9EF89CFCF910C
S11308E01F910F91FF90EF90BF90AF909F908F90CA
S11308F07F906F905F904F9008950F931F93CF93C5
S1130900DF93EC018B01009709F436C1803C91051B
S113091021F460E180E0C1D52FC1C03484E0D80760
S113092021F468E080E0B9D527C1C115E4E0DE0711
S113093021F464E080E0B1D51FC1C038F1E0DF07E5
S113094021F462E080E0A9D517C1C11581E0D80780
S113095021F461E080E0A1D50FC1C038E3E0DE07F7
S113096021F461E081E099D507C1C039F3E0DF07E4
S113097021F461E082E091D5FFC0C11582E0D8077F
S113098021F462E081E089D5F7C0C034E2E0DE07FB
S113099021F462E082E081D5EFC0C115F3E0DF0706
S11309A021F464E081E079D5E7C0C03283E0D80760
S11309B021F464E082E071D5DFC0C115E8E0DE0710
S11309C021F461E083E069D5D7C0C115F9E0DF0700
S11309D021F461E084E061D5CFC0C1158AE0D80775
S11309E021F461E085E059D5C7C0C115EBE0DE070D
S11309F021F461E086E051D5BFC0C034F8E0DF07E0
S1130A0021F462E083E049D5B7C0C03489E0D80757
S1130A1021F462E084E041D5AFC0C034EAE0DE07EF
S1130A2021F462E085E039D5A7C0C034FBE0DF07DC
S1130A3021F462E086E031D59FC0C03988E0D80750
S1130A4021F464E083E029D597C0C039E9E0DE07EA
S1130A5021F464E084E021D58FC0C039FAE0DF07D7
S1130A6021F464E085E019D587C0C0398BE0D8074C
S1130A7021F464E086E011D57FC0C03CE8E0DE07E5
S1130A8021F468E083E009D577C0C03CF9E0DF07D2
S1130A9021F468E084E001D56FC0C03C8AE0D80747
S1130AA021F468E085E0F9D467C0C03CEBE0DE07E0
S1130AB021F468E086E0F1D45FC0C03AF8E0DF07D3
S1130AC021F460E183E0E9D457C0C03A89E0D80753
S1130AD021F460E184E0E1D44FC0C03AEAE0DE07EB
S1130AE021F460E185E0D9D447C0C03AFBE0DF07D8
S1130AF021F460E186E0D1D43FC0C03B88E0D80750
S1130B0021F460E283E0C9D437C0C03BE9E0DE07EA
S1130B1021F460E284E0C1D42FC0C03BFAE0DF07D7
S1130B2021F460E285E0B9D427C0C03B8BE0D8074C
S1130B3021F460E286E0B1D41FC0C038E4E0DE07EF
S1130B4021F460E483E0A9D417C0C039F4E0DF07DE
S1130B5021F460E484E0A1D40FC0C03A84E0D80753
S1130B6021F460E485E099D407C0C03BE4E0DE07EB
S1130B7019F460E486E091D48D818F738D83F8013C
S1130B8095818481892B9681911198E0892B8D839D
S1130B90F801408151816281738100E018E428EEFC
S1130BA031E0CE0197DD9C8198609C839C819061AB
S1130BB09C83DF91CF911F910F910895EF92FF9243
S1130BC00F931F93CF93DF93CDB7DEB72B97CDBF92
S1130BD0DEBF7C01062F142FBE016F5F7F4F42D30F
S1130BE0AE01485F5F4F602FC701C2D39A818B81EA
S1130BF08F7880618B83892F817E8A831C8286E033
S1130C008D83103138F018861051110F110F110F08
S1130C10198706C081E08887110F110F110F1987FA
S1130C20BE016F5F7F4FC701B3D2AE01485F5F4F14
S1130C30602FC70150D32B96CDBFDEBFDF91CF917C
S1130C401F910F91FF90EF900895EF92FF920F93F1
S1130C501F93CF93DF931F92CDB7DEB77C01162F7E
S1130C607ADB8FB78983F8949981F7018081212FEA
S1130C70220F220F822B80839FBFF701868181235D
S1130C801813FBCF1683812F837021F416951695C4
S1130C9082E001C080E010FF8F5FF701B09698E01A
S1130CA0899FE00DF11D112404811581C7017FDBAB
S1130CB0B80180E090E00E94DA160F90DF91CF91A6
S1130CC01F910F91FF90EF90089546E061E080E05E
S1130CD092E074DF85E190E20C94C2180895CF92FB
S1130CE0DF92EF92FF920F931F93CF93DF9361E014
S1130CF080E092E0AADF25EE30ED42E25FE30E945D
S1130D00AD17F62EE72ED82EC92E762F272F3E2D7F
S1130D104D2D5C2D60E070E080E895E40E9446165D
S1130D2020E030E040E85FE30E94E1150E946D1787
S1130D302CE734ED43E859E30E94AD172FE03FEC74
S1130D404BE55BE30E94E2159B01AC0160E070E0BF
S1130D5080E89FE30E9446160E94AE160E94DA16AF
S1130D6023E333E948E853E40E94E115062F172FE3
S1130D70D82FC92F9F938F937F936F938DE290E227
S1130D809F938F930E94AF18CF92DF92EF92FF92BE
S1130D9083E390E29F938F930E94AF188DB79EB721
S1130DA00C968DBF9EBF602F712F8D2F9C2FDF91CE
S1130DB0CF911F910F91FF90EF90DF90CF90089506
S1130DC01F920F920FB60F92112408B60F9218BEFD
S1130DD009B60F9219BE0BB60F921BBE2F933F9309
S1130DE04F935F936F937F938F939F93AF93BF932F
S1130DF0EF93FF934091240250912502E091D52076
S1130E00F091D62061E080E092E01995FF91EF9196
S1130E10BF91AF919F918F917F916F915F914F910E
S1130E203F912F910F900BBE0F9009BE0F9008BEFB
S1130E300F900FBE0F901F9018951F920F920FB630
S1130E400F92112408B60F9218BE09B60F9219BE5C
S1130E500BB60F921BBE2F933F934F935F936F93E9
S1130E607F938F939F93AF93BF93EF93FF9340919F
S1130E702C0250912D02E091D520F091D62062E011
S1130E8080E092E01995FF91EF91BF91AF919F910E
S1130E908F917F916F915F914F913F912F910F901F
S1130EA00BBE0F9009BE0F9008BE0F900FBE0F909F
S1130EB01F9018951F920F920FB60F92112408B627
S1130EC00F9218BE09B60F9219BE0BB60F921BBE35
S1130ED02F933F934F935F936F937F938F939F933E
S1130EE0AF93BF93EF93FF93409134025091350237
S1130EF0E091D520F091D62064E080E092E019954D
S1130F00FF91EF91BF91AF919F918F917F916F91DD
S1130F105F914F913F912F910F900BBE0F9009BE9F
S1130F200F9008BE0F900FBE0F901F9018951F9240
S1130F300F920FB60F92112408B60F9218BE09B67D
S1130F400F9219BE0BB60F921BBE2F933F934F9374
S1130F505F936F937F938F939F93AF93BF93EF931D
S1130F60FF9340913C0250913D02E091D520F091D5
S1130F70D62068E080E092E01995FF91EF91BF914F
S1130F80AF919F918F917F916F915F914F913F911D
S1130F902F910F900BBE0F9009BE0F9008BE0F90BB
S1130FA00FBE0F901F9018951F920F920FB60F92BD
S1130FB0112408B60F9218BE09B60F9219BE0BB6CB
S1130FC00F921BBE2F933F934F935F936F937F9327
S1130FD08F939F93AF93BF93EF93FF9340916402DA
S1130FE050916502E091D320F091D42061E080E437
S1130FF092E01995FF91EF91BF91AF919F918F91DD
S11310007F916F915F914F913F912F910F900BBE04
S11310100F9009BE0F9008BE0F900FBE0F901F9047
S113102018951F920F920FB60F92112408B60F92C3
S113103018BE09B60F9219BE0BB60F921BBE2F93A2
S11310403F934F935F936F937F938F939F93AF934C
S1131050BF93EF93FF9340916C0250916D02E09126
S1131060D320F091D42062E080E492E01995FF91BE
S1131070EF91BF91AF919F918F917F916F915F910C
S11310804F913F912F910F900BBE0F9009BE0F907F
S113109008BE0F900FBE0F901F9018951F920F92CD
S11310A00FB60F92112408B60F9218BE09B60F920C
S11310B019BE0BB60F921BBE2F933F934F935F93B2
S11310C06F937F938F939F93AF93BF93EF93FF930C
S11310D04091740250917502E091D320F091D42094
S11310E064E080E492E01995FF91EF91BF91AF9194
S11310F09F918F917F916F915F914F913F912F912C
S11311000F900BBE0F9009BE0F9008BE0F900FBE3C
S11311100F901F9018951F920F920FB60F921124E3
S113112008B60F9218BE09B60F9219BE0BB60F92ED
S11311301BBE2F933F934F935F936F937F938F9334
S11311409F93AF93BF93EF93FF9340917C02509191
S11311507D02E091D320F091D42068E080E492E015
S11311601995FF91EF91BF91AF919F918F917F91CD
S11311706F915F914F913F912F910F900BBE0F9004
S113118009BE0F9008BE0F900FBE0F901F901895C8
S1131190BF92CF92DF92EF92FF920F931F93CF9360
S11311A0DF931F92CDB7DEB78C017B01811522E05E
S11311B0920781F461E270E082E00E94B214C82ECA
S11311C0D12C60E270E082E00E94B214DC2CCC24CA
S11311D0C82A12C080349240D1F565E270E082E002
S11311E00E94B214C82ED12C64E270E082E00E9406
S11311F0B214DC2CCC24C82A8FB78983F894B98024
S1131200C80169D8F801808192E09083C486D586AC
S1131210F70125813681F801208F318FF701928102
S1131220F8019283F7019481F8019483F701938183
S1131230F8019383F7019181F80191838170F7019B
S11312409081892BF8018083C80166D8BFBE0F90B6
S1131250DF91CF911F910F91FF90EF90DF90CF908E
S1131260BF900895DF92EF92FF920F931F93CF9355
S1131270DF931F92CDB7DEB78C017B018FB78983D3
S1131280F894D980C80127D8F8018081807CF701BF
S11312908083F801808D918DF70185839683F80111
S11312A08281F7018283F8018481F7018483F80144
S11312B08381F7018383F8018181F7018183C80168
S11312C02BD8DFBE0F90DF91CF911F910F91FF902C
S11312D0EF90DF900895AF92BF92CF92DF92EF929A
S11312E0FF920F931F93CF93DF931F92CDB7DEB777
S11312F06C01B62E7A01862F837029F4962F969569
S1131300969582E002C0962F80E090FF8F5F860161
S1131310005E1F4F98E0899F000D111D11248FB7A7
S11313208983F894A980C6010E946B01F70180812A
S1131330F8018083F7018281F8018283F7018181BA
S1131340F8018183B0FE04C0F7018381F80186832C
S1131350C6010E948C01AFBE0F90DF91CF911F9107
S11313600F91FF90EF90DF90CF90BF90AF900895D2
S1131370AF92BF92CF92DF92EF92FF920F931F939F
S1131380CF93DF931F92CDB7DEB76C01B62E7A01EF
S1131390862F837029F4962F9695969582E002C045
S11313A0962F80E090FF8F5F8601005E1F4F98E0CC
S11313B0899F000D111D11248FB78983F894A9808A
S11313C0C6010E946B01F8018081F7018083F80156
S11313D08281F7018283F8018181F7018183B0FE64
S11313E004C0F8018681F7018383C6010E948C0141
S11313F0AFBE0F90DF91CF911F910F91FF90EF90AF
S1131400DF90CF90BF90AF900895682F8091D9203E
S11314109091DA20E091D720F091D8201995992362
S11314201CF081E090E008958FEF9FEF0895CF9333
S1131430DF931F921F92CDB7DEB78FEF80937000BA
S11314408093710080937200809373008093740082
S113145080937500809376008FB78A83F8949A817D
S1131460E0E5F0E08081826080839FBF818181FF1D
S1131470FDCF61E080E490E00E94BC148FB78983C3
S1131480F8949981E0E5F0E080818E7F80839FBFAE
S11314900F900F90DF91CF910895CF93DF931F9218
S11314A0CDB7DEB79FB79983F8949981E82FF0E020
S11314B0E059FF4F60958081682360839FBF0F9040
S11314C0DF91CF910895CF93DF931F92CDB7DEB70D
S11314D09FB79983F8949981E82FF0E0E059FF4F82
S11314E08081682B60839FBF0F90DF91CF91089517
S11314F01F920F920FB60F92112408B60F9218BEC6
S11315000BB60F921BBE8F939F93EF93FF93E1EE65
S1131510F0E280819181019680839183FF91EF9124
S11315209F918F910F900BBE0F9008BE0F900FBE2E
S11315300F901F9018951F920F920FB60F921124BF
S113154008B60F9218BE09B60F9219BE0BB60F92C9
S11315501BBECF92DF92EF92FF920F931F932F93B4
S11315603F934F935F936F937F938F939F93AF9327
S1131570BF93EF93FF93E1EEF0E2808191812281AA
S1131580338182179307F0F121E020930204E09164
S1131590E720F091E8203097A9F160910804709158
S11315A00904A0E0B0E0DC0199278827AB0160E0E2
S11315B070E08C019D01042B152B262B372BC901C0
S11315C0B801A1EEB0E212960D911C91139720E0A0
S11315D030E09801112700271496CD90DC901597E0
S11315E0E12CF12C0C291D292E293F290617170758
S11315F02807390730F0C901B8016F5F7F4F8F4F5B
S11316009F4F1995FF91EF91BF91AF919F918F914A
S11316107F916F915F914F913F912F911F910F9106
S1131620FF90EF90DF90CF900F900BBE0F9009BE0C
S11316300F9008BE0F900FBE0F901F9018951F9229
S11316400F920FB60F92112408B60F9218BE09B666
S11316500F9219BE0BB60F921BBE2F933F934F935D
S11316605F936F937F938F939F93AF93BF93EF9306
S1131670FF93E091CF20F091D020309709F0199595
S1131680FF91EF91BF91AF919F918F917F916F9156
S11316905F914F913F912F910F900BBE0F9009BE18
S11316A00F9008BE0F900FBE0F901F9018951F92B9
S11316B00F920FB60F92112408B60F9218BE09B6F6
S11316C00F9219BE0BB60F921BBE2F933F934F93ED
S11316D05F936F937F938F939F93AF93BF93EF9396
S11316E0FF93E091CD20F091CE20309709F0199529
S11316F0FF91EF91BF91AF919F918F917F916F91E6
S11317005F914F913F912F910F900BBE0F9009BEA7
S11317100F9008BE0F900FBE0F901F9018951F9248
S11317200F920FB60F92112408B60F9218BE09B685
S11317300F9219BE0BB60F921BBE2F933F934F937C
S11317405F936F937F938F939F93AF93BF93EF9325
S1131750FF93E091CB20F091CC20309709F01995BC
S1131760FF91EF91BF91AF919F918F917F916F9175
S11317705F914F913F912F910F900BBE0F9009BE37
S11317800F9008BE0F900FBE0F901F9018951F92D8
S11317900F920FB60F92112408B60F9218BE09B615
S11317A00F9219BE0BB60F921BBE2F933F934F930C
S11317B05F936F937F938F939F93AF93BF93EF93B5
S11317C0FF93E091C920F091CA20309709F0199550
S11317D0FF91EF91BF91AF919F918F917F916F9105
S11317E05F914F913F912F910F900BBE0F9009BEC7
S11317F00F9008BE0F900FBE0F901F9018951F9268
S11318000F920FB60F92112408B60F9218BE09B6A4
S11318100F9219BE0BB60F921BBE2F933F934F939B
S11318205F936F937F938F939F93AF93BF93EF9344
S1131830FF93E091C720F091C820309709F01995E3
S1131840FF91EF91BF91AF919F918F917F916F9194
S11318505F914F913F912F910F900BBE0F9009BE56
S11318600F9008BE0F900FBE0F901F9018951F92F7
S11318700F920FB60F92112408B60F9218BE09B634
S11318800F9219BE0BB60F921BBE2F933F934F932B
S11318905F936F937F938F939F93AF93BF93EF93D4
S11318A0FF93E091C520F091C620309709F0199577
S11318B0FF91EF91BF91AF919F918F917F916F9124
S11318C05F914F913F912F910F900BBE0F9009BEE6
S11318D00F9008BE0F900FBE0F901F9018951F9287
S11318E00F920FB60F92112408B60F9218BE09B6C4
S11318F00F9219BE0BB60F921BBE2F933F934F93BB
S11319005F936F937F938F939F93AF93BF93EF9363
S1131910FF93E091C320F091C420309709F019950A
S1131920FF91EF91BF91AF919F918F917F916F91B3
S11319305F914F913F912F910F900BBE0F9009BE75
S11319400F9008BE0F900FBE0F901F9018951F9216
S11319500F920FB60F92112408B60F9218BE09B653
S11319600F9219BE0BB60F921BBE2F933F934F934A
S11319705F936F937F938F939F93AF93BF93EF93F3
S1131980FF93E091C120F091C220309709F019959E
S1131990FF91EF91BF91AF919F918F917F916F9143
S11319A05F914F913F912F910F900BBE0F9009BE05
S11319B00F9008BE0F900FBE0F901F9018951F92A6
S11319C00F920FB60F92112408B60F9218BE09B6E3
S11319D00F9219BE0BB60F921BBE2F933F934F93DA
S11319E05F936F937F938F939F93AF93BF93EF9383
S11319F0FF93E091BF20F091C020309709F0199532
S1131A00FF91EF91BF91AF919F918F917F916F91D2
S1131A105F914F913F912F910F900BBE0F9009BE94
S1131A200F9008BE0F900FBE0F901F9018951F9235
S1131A300F920FB60F92112408B60F9218BE09B672
S1131A400F9219BE0BB60F921BBE2F933F934F9369
S1131A505F936F937F938F939F93AF93BF93EF9312
S1131A60FF93E091BD20F091BE20309709F01995C5
S1131A70FF91EF91BF91AF919F918F917F916F9162
S1131A805F914F913F912F910F900BBE0F9009BE24
S1131A900F9008BE0F900FBE0F901F9018951F92C5
S1131AA00F920FB60F92112408B60F9218BE09B602
S1131AB00F9219BE0BB60F921BBE2F933F934F93F9
S1131AC05F936F937F938F939F93AF93BF93EF93A2
S1131AD0FF93E091BB20F091BC20309709F0199559
S1131AE0FF91EF91BF91AF919F918F917F916F91F2
S1131AF05F914F913F912F910F900BBE0F9009BEB4
S1131B000F9008BE0F900FBE0F901F9018951F9254
S1131B100F920FB60F92112408B60F9218BE09B691
S1131B200F9219BE0BB60F921BBE2F933F934F9388
S1131B305F936F937F938F939F93AF93BF93EF9331
S1131B40FF93E091B920F091BA20309709F01995EC
S1131B50FF91EF91BF91AF919F918F917F916F9181
S1131B605F914F913F912F910F900BBE0F9009BE43
S1131B700F9008BE0F900FBE0F901F9018951F92E4
S1131B800F920FB60F92112408B60F9218BE09B621
S1131B900F9219BE0BB60F921BBE2F933F934F9318
S1131BA05F936F937F938F939F93AF93BF93EF93C1
S1131BB0FF93E091B720F091B820309709F0199580
S1131BC0FF91EF91BF91AF919F918F917F916F9111
S1131BD05F914F913F912F910F900BBE0F9009BED3
S1131BE00F9008BE0F900FBE0F901F9018951F9274
S1131BF00F920FB60F92112408B60F9218BE09B6B1
S1131C000F9219BE0BB60F921BBE2F933F934F93A7
S1131C105F936F937F938F939F93AF93BF93EF9350
S1131C20FF93E091B520F091B620309709F0199513
S1131C30FF91EF91BF91AF919F918F917F916F91A0
S1131C405F914F913F912F910F900BBE0F9009BE62
S1131C500F9008BE0F900FBE0F901F9018951F9203
S1131C600F920FB60F92112408B60F9218BE09B640
S1131C700F9219BE0BB60F921BBE2F933F934F9337
S1131C805F936F937F938F939F93AF93BF93EF93E0
S1131C90FF93E091B320F091B420309709F01995A7
S1131CA0FF91EF91BF91AF919F918F917F916F9130
S1131CB05F914F913F912F910F900BBE0F9009BEF2
S1131CC00F9008BE0F900FBE0F901F9018951F9293
S1131CD00F920FB60F92112408B60F9218BE09B6D0
S1131CE00F9219BE0BB60F921BBE2F933F934F93C7
S1131CF05F936F937F938F939F93AF93BF93EF9370
S1131D00FF93E091B120F091B220309709F019953A
S1131D10FF91EF91BF91AF919F918F917F916F91BF
S1131D205F914F913F912F910F900BBE0F9009BE81
S1131D300F9008BE0F900FBE0F901F9018951F9222
S1131D400F920FB60F92112408B60F9218BE09B65F
S1131D500F9219BE0BB60F921BBE2F933F934F9356
S1131D605F936F937F938F939F93AF93BF93EF93FF
S1131D70FF93E091AF20F091B020309709F01995CE
S1131D80FF91EF91BF91AF919F918F917F916F914F
S1131D905F914F913F912F910F900BBE0F9009BE11
S1131DA00F9008BE0F900FBE0F901F9018951F92B2
S1131DB00F920FB60F92112408B60F9218BE09B6EF
S1131DC00F9219BE0BB60F921BBE2F933F934F93E6
S1131DD05F936F937F938F939F93AF93BF93EF938F
S1131DE0FF93E091AD20F091AE20309709F0199562
S1131DF0FF91EF91BF91AF919F918F917F916F91DF
S1131E005F914F913F912F910F900BBE0F9009BEA0
S1131E100F9008BE0F900FBE0F901F9018951F9241
S1131E200F920FB60F92112408B60F9218BE09B67E
S1131E300F9219BE0BB60F921BBE2F933F934F9375
S1131E405F936F937F938F939F93AF93BF93EF931E
S1131E50FF93E091AB20F091AC20309709F01995F5
S1131E60FF91EF91BF91AF919F918F917F916F916E
S1131E705F914F913F912F910F900BBE0F9009BE30
S1131E800F9008BE0F900FBE0F901F9018951F92D1
S1131E900F920FB60F92112408B60F9218BE09B60E
S1131EA00F9219BE0BB60F921BBE2F933F934F9305
S1131EB05F936F937F938F939F93AF93BF93EF93AE
S1131EC0FF93E091A920F091AA20309709F0199589
S1131ED0FF91EF91BF91AF919F918F917F916F91FE
S1131EE05F914F913F912F910F900BBE0F9009BEC0
S1131EF00F9008BE0F900FBE0F901F9018951F9261
S1131F000F920FB60F92112408B60F9218BE09B69D
S1131F100F9219BE0BB60F921BBE2F933F934F9394
S1131F205F936F937F938F939F93AF93BF93EF933D
S1131F30FF93E091A720F091A820309709F019951C
S1131F40FF91EF91BF91AF919F918F917F916F918D
S1131F505F914F913F912F910F900BBE0F9009BE4F
S1131F600F9008BE0F900FBE0F901F9018951F92F0
S1131F700F920FB60F92112408B60F9218BE09B62D
S1131F800F9219BE0BB60F921BBE2F933F934F9324
S1131F905F936F937F938F939F93AF93BF93EF93CD
S1131FA0FF93E091A520F091A620309709F01995B0
S1131FB0FF91EF91BF91AF919F918F917F916F911D
S1131FC05F914F913F912F910F900BBE0F9009BEDF
S1131FD00F9008BE0F900FBE0F901F9018951F9280
S1131FE00F920FB60F92112408B60F9218BE09B6BD
S1131FF00F9219BE0BB60F921BBE2F933F934F93B4
S11320005F936F937F938F939F93AF93BF93EF935C
S1132010FF93E091A320F091A420309709F0199543
S1132020FF91EF91BF91AF919F918F917F916F91AC
S11320305F914F913F912F910F900BBE0F9009BE6E
S11320400F9008BE0F900FBE0F901F9018951F920F
S11320500F920FB60F92112408B60F9218BE09B64C
S11320600F9219BE0BB60F921BBE2F933F934F9343
S11320705F936F937F938F939F93AF93BF93EF93EC
S1132080FF93E091A120F091A220309709F01995D7
S1132090FF91EF91BF91AF919F918F917F916F913C
S11320A05F914F913F912F910F900BBE0F9009BEFE
S11320B00F9008BE0F900FBE0F901F9018951F929F
S11320C00F920FB60F92112408B60F9218BE09B6DC
S11320D00F9219BE0BB60F921BBE2F933F934F93D3
S11320E05F936F937F938F939F93AF93BF93EF937C
S11320F0FF93E0919F20F091A020309709F019956B
S1132100FF91EF91BF91AF919F918F917F916F91CB
S11321105F914F913F912F910F900BBE0F9009BE8D
S11321200F9008BE0F900FBE0F901F9018951F922E
S11321300F920FB60F92112408B60F9218BE09B66B
S11321400F9219BE0BB60F921BBE2F933F934F9362
S11321505F936F937F938F939F93AF93BF93EF930B
S1132160FF93E0919D20F0919E20309709F01995FE
S1132170FF91EF91BF91AF919F918F917F916F915B
S11321805F914F913F912F910F900BBE0F9009BE1D
S11321900F9008BE0F900FBE0F901F9018951F92BE
S11321A00F920FB60F92112408B60F9218BE09B6FB
S11321B00F9219BE0BB60F921BBE2F933F934F93F2
S11321C05F936F937F938F939F93AF93BF93EF939B
S11321D0FF93E0919B20F0919C20309709F0199592
S11321E0FF91EF91BF91AF919F918F917F916F91EB
S11321F05F914F913F912F910F900BBE0F9009BEAD
S11322000F9008BE0F900FBE0F901F9018951F924D
S11322100F920FB60F92112408B60F9218BE09B68A
S11322200F9219BE0BB60F921BBE2F933F934F9381
S11322305F936F937F938F939F93AF93BF93EF932A
S1132240FF93E0919920F0919A20309709F0199525
S1132250FF91EF91BF91AF919F918F917F916F917A
S11322605F914F913F912F910F900BBE0F9009BE3C
S11322700F9008BE0F900FBE0F901F9018951F92DD
S11322800F920FB60F92112408B60F9218BE09B61A
S11322900F9219BE0BB60F921BBE2F933F934F9311
S11322A05F936F937F938F939F93AF93BF93EF93BA
S11322B0FF93E0919720F0919820309709F01995B9
S11322C0FF91EF91BF91AF919F918F917F916F910A
S11322D05F914F913F912F910F900BBE0F9009BECC
S11322E00F9008BE0F900FBE0F901F9018951F926D
S11322F00F920FB60F92112408B60F9218BE09B6AA
S11323000F9219BE0BB60F921BBE2F933F934F93A0
S11323105F936F937F938F939F93AF93BF93EF9349
S1132320FF93E0919520F0919620309709F019954C
S1132330FF91EF91BF91AF919F918F917F916F9199
S11323405F914F913F912F910F900BBE0F9009BE5B
S11323500F9008BE0F900FBE0F901F9018951F92FC
S11323600F920FB60F92112408B60F9218BE09B639
S11323700F9219BE0BB60F921BBE2F933F934F9330
S11323805F936F937F938F939F93AF93BF93EF93D9
S1132390FF93E0919320F0919420309709F01995E0
S11323A0FF91EF91BF91AF919F918F917F916F9129
S11323B05F914F913F912F910F900BBE0F9009BEEB
S11323C00F9008BE0F900FBE0F901F9018951F928C
S11323D00F920FB60F92112408B60F9218BE09B6C9
S11323E00F9219BE0BB60F921BBE2F933F934F93C0
S11323F05F936F937F938F939F93AF93BF93EF9369
S1132400FF93E0919120F0919220309709F0199573
S1132410FF91EF91BF91AF919F918F917F916F91B8
S11324205F914F913F912F910F900BBE0F9009BE7A
S11324300F9008BE0F900FBE0F901F9018951F921B
S11324400F920FB60F92112408B60F9218BE09B658
S11324500F9219BE0BB60F921BBE2F933F934F934F
S11324605F936F937F938F939F93AF93BF93EF93F8
S1132470FF93E0918F20F0919020309709F0199507
S1132480FF91EF91BF91AF919F918F917F916F9148
S11324905F914F913F912F910F900BBE0F9009BE0A
S11324A00F9008BE0F900FBE0F901F9018951F92AB
S11324B00F920FB60F92112408B60F9218BE09B6E8
S11324C00F9219BE0BB60F921BBE2F933F934F93DF
S11324D05F936F937F938F939F93AF93BF93EF9388
S11324E0FF93E0918D20F0918E20309709F019959B
S11324F0FF91EF91BF91AF919F918F917F916F91D8
S11325005F914F913F912F910F900BBE0F9009BE99
S11325100F9008BE0F900FBE0F901F9018951F923A
S11325200F920FB60F92112408B60F9218BE09B677
S11325300F9219BE0BB60F921BBE2F933F934F936E
S11325405F936F937F938F939F93AF93BF93EF9317
S1132550FF93E0918B20F0918C20309709F019952E
S1132560FF91EF91BF91AF919F918F917F916F9167
S11325705F914F913F912F910F900BBE0F9009BE29
S11325800F9008BE0F900FBE0F901F9018951F92CA
S11325900F920FB60F92112408B60F9218BE09B607
S11325A00F9219BE0BB60F921BBE2F933F934F93FE
S11325B05F936F937F938F939F93AF93BF93EF93A7
S11325C0FF93E0918920F0918A20309709F01995C2
S11325D0FF91EF91BF91AF919F918F917F916F91F7
S11325E05F914F913F912F910F900BBE0F9009BEB9
S11325F00F9008BE0F900FBE0F901F9018951F925A
S11326000F920FB60F92112408B60F9218BE09B696
S11326100F9219BE0BB60F921BBE2F933F934F938D
S11326205F936F937F938F939F93AF93BF93EF9336
S1132630FF93E0918720F0918820309709F0199555
S1132640FF91EF91BF91AF919F918F917F916F9186
S11326505F914F913F912F910F900BBE0F9009BE48
S11326600F9008BE0F900FBE0F901F9018951F92E9
S11326700F920FB60F92112408B60F9218BE09B626
S11326800F9219BE0BB60F921BBE2F933F934F931D
S11326905F936F937F938F939F93AF93BF93EF93C6
S11326A0FF93E0918520F0918620309709F01995E9
S11326B0FF91EF91BF91AF919F918F917F916F9116
S11326C05F914F913F912F910F900BBE0F9009BED8
S11326D00F9008BE0F900FBE0F901F9018951F9279
S11326E00F920FB60F92112408B60F9218BE09B6B6
S11326F00F9219BE0BB60F921BBE2F933F934F93AD
S11327005F936F937F938F939F93AF93BF93EF9355
S1132710FF93E0918320F0918420309709F019957C
S1132720FF91EF91BF91AF919F918F917F916F91A5
S11327305F914F913F912F910F900BBE0F9009BE67
S11327400F9008BE0F900FBE0F901F9018951F9208
S11327500F920FB60F92112408B60F9218BE09B645
S11327600F9219BE0BB60F921BBE2F933F934F933C
S11327705F936F937F938F939F93AF93BF93EF93E5
S1132780FF93E0918120F0918220309709F0199510
S1132790FF91EF91BF91AF919F918F917F916F9135
S11327A05F914F913F912F910F900BBE0F9009BEF7
S11327B00F9008BE0F900FBE0F901F9018951F9397
S11327C0CF93DF931F921F92CDB7DEB72FB72A8323
S11327D0F8941A81282F392F211588E0380749F4F5
S11327E061E083E00E944D0A64E083E00E944D0AA8
S11327F05CC0203488E0380749F462E083E00E943A
S11328004D0A64E083E00E944D0A4FC0211589E01F
S1132810380749F461E084E00E944D0A64E084E0F2
S11328200E944D0A42C0203489E0380749F462E02E
S113283084E00E944D0A64E084E00E944D0A35C0A1
S113284021158AE0380749F461E085E00E944D0AC9
S113285064E085E00E944D0A28C020348AE03807ED
S113286049F462E085E00E944D0A64E085E00E943C
S11328704D0A1BC021158BE0380749F461E086E05E
S11328800E944D0A64E086E00E944D0A0EC0203486
S11328903B4049F462E086E00E944D0A64E086E031
S11328A00E944D0A02C01FBF10C08091DC208F3FE0
S11328B009F4FFCF8FB78983F8949981EBEDF0E2A7
S11328C081818F5F81839FBF1FBF0F900F90DF9126
S11328D0CF911F910895811528E0920729F4609300
S11328E0CF207093D0200895803428E0920729F4F3
S11328F06093C3207093C4200895811529E0920742
S113290029F46093BB207093BC200895803429E09F
S1132910920729F46093AF207093B0200895811535
S11329202AE0920729F46093A7207093A8200895C1
S113293080342AE0920729F460939B2070939C20B2
S1132940089581152BE0920729F4609393207093E6
S11329509420089580349B4021F4609387207093E1
S1132960882008954091CA01E62FF72F8093CA0169
S113297084914093CA0108951BBEFC0128ED24BF35
S113298060830895CF93DF93FC0120E030E0C62FED
S1132990D0E0DE01022E02C0B595A7950A94E2F7B5
S11329A0A0FD508B2F5F3F4F31962830310589F7BA
S11329B040FF0AC041FF03C0FC01658302C0FC0163
S11329C06683FC01618302C0FC016283DF91CF91C5
S11329D0089543E050E068E080EC97E0D3DF40E006
S11329E058E164E080EC97E0CDCF089504C06150D5
S11329F07109810991096115710581059105B9F77D
S1132A000895E0ECF7E0948188E0892784830895B1
S1132A100F931F93CF93DF93CDB7DEB72897CDBF26
S1132A20DEBF29833A834B835C836D837E838F83EC
S1132A3098870B811C8187E08093A200C801BFDEC8
S1132A406F817885C80147DFF8018181887F8183A0
S1132A508D819E8186A397A386818C7F86838681C0
S1132A608160868378948081807F876080832896C4
S1132A70CDBFDEBFDF91CF911F910F910895CF930A
S1132A80DF93CDB7DEB72897CDBFDEBFE0ECF7E02C
S1132A9080818860808388E0EDE0F0E2DE011196B9
S1132AA001900D928A95E1F729813A814B815C81ED
S1132AB06D817E818F819885ABDF6CEA76EE86E945
S1132AC091E094DF89E09DE38093260A9093270A9E
S1132AD02896CDBFDEBFDF91CF910895CF93DF93CA
S1132AE0EB010E9464038883DF91CF9108950C94D5
S1132AF05C030895CF93DF93CDB7DEB72797CDBF9F
S1132B00DEBF60E185E00E944D0AE0E8F6E08081E6
S1132B108860808380EA9AE08093D9209093DA20B9
S1132B2087E795E18093D7209093D8208EE695E1AE
S1132B308093D1209093D220E6E0F0E284818D83CB
S1132B4085818E8386818F8380819181A281B381E7
S1132B5089839A83AB83BC8360E185E00E944D0A3C
S1132B60BE016F5F7F4F80EA9AE00E947D0462E5B8
S1132B7071E085E09AE0A9D287E390E203D38CE583
S1132B8090E200D32796CDBFDEBFDF91CF910895A9
S1132B9020DF0E94170AAEDFE0EAF0E087E08283DC
S1132BA082818068828378948DE690E29F938F93EC
S1132BB0D6D20E94650663DF0F900F900E946F06C5
S1132BC0FDCF5058BB27AA270ED048C139D130F0C9
S1132BD03ED120F031F49F3F11F41EF42EC10EF4C7
S1132BE0E095E7FB24C1E92F4AD180F3BA176207C5
S1132BF073078407950718F071F49EF562C10EF40B
S1132C00E0950B2EBA2FA02D0B01B90190010C01F8
S1132C10CA01A0011124FF27591B99F0593F50F410
S1132C20503E68F11A16F040A22F232F342F442768
S1132C30585FF3CF469537952795A795F040539560
S1132C40C9F77EF41F16BA0B620B730B840BBAF030
S1132C509150A1F0FF0FBB1F661F771F881FC2F79B
S1132C600EC0BA0F621F731F841F48F487957795AF
S1132C706795B795F7959E3F08F0B3CF9395880F66
S1132C8008F09927EE0F9795879508950CD0E6C024
S1132C90DED040F0D5D030F021F45F3F19F0C7C04A
S1132CA0511110C1CAC0EBD098F39923C9F355232D
S1132CB0B1F3951B550BBB27AA276217730784072B
S1132CC038F09F5F5F4F220F331F441FAA1FA9F3E1
S1132CD033D00E2E3AF0E0E830D091505040E695D3
S1132CE0001CCAF729D0FE2F27D0660F771F881F34
S1132CF0BB1F261737074807AB07B0E809F0BB0B23
S1132D00802DBF01FF2793585F4F2AF09E3F510546
S1132D1068F08DC0D7C05F3FECF3983EDCF3869536
S1132D2077956795B795F7959F5FC9F7880F911DBC
S1132D309695879597F90895E1E0660F771F881FA8
S1132D40BB1F621773078407BA0720F0621B730B5B
S1132D50840BBA0BEE1F88F7E095089598D088F09D
S1132D609F5790F0B92F9927B751A0F0D1F0660F73
S1132D70771F881F991F1AF0BA95C9F712C0B1308E
S1132D8081F09FD0B1E008959CC0672F782F8827E9
S1132D90B85F39F0B93FCCF3869577956795B395CD
S1132DA0D9F73EF490958095709561957F4F8F4F3C
S1132DB09F4F0895E89409C097FB3EF49095809541
S1132DC0709561957F4F8F4F9F4F9923A9F0F92FED
S1132DD096E9BB279395F695879577956795B7956B
S1132DE0F111F8CFFAF4BB0F11F460FF1BC06F5F51
S1132DF07F4F8F4F9F4F16C0882311F096E911C063
S1132E00772321F09EE8872F762F05C0662371F083
S1132E1096E8862F70E060E02AF09A95660F771F97
S1132E20881FDAF7880F9695879597F9089597F98B
S1132E309F6780E870E060E008959FEF80EC08955C
S1132E4000240A9416161706180609060895002485
S1132E500A9412161306140605060895092E0394FF
S1132E60000C11F4882352F0BB0F40F4BF2B11F473
S1132E7060FF04C06F5F7F4F8F4F9F4F089557FDD2
S1132E809058440F551F59F05F3F71F04795880FD4
S1132E9097FB991F61F09F3F79F08795089512166B
S1132EA013061406551FF2CF4695F1DF08C0161617
S1132EB017061806991FF1CF8695710561050894C8
S1132EC00895E894BB2766277727CB0197F90895DF
S1132ED00EF0A6C0B2CF6894AACFD9DFC8F3992365
S1132EE0D1F3C6F3DF93CF931F930F93FF92C92FB0
S1132EF0DD2788232AF02197660F771F881FDAF7CA
S1132F0020E030E040E85FEB9FE3883920F0803E2A
S1132F1030F021968F7756DEECEFF1E003C052DEFD
S1132F20E9E2F2E08BD08B01BE01EC01FB2E6F577E
S1132F3071097595771F880B990B3EDF28E132E7FD
S1132F4041E35FE316D0AF2D9801AE01FF900F91DE
S1132F501F91CF91DF9147DE81CF0BD07FCF70DF00
S1132F6028F075DF18F0952309F061CF66CF11249E
S1132F70A9CF85DFA0F3959FD1F3950F50E0551F9E
S1132F80629FF001729FBB27F00DB11D639FAA27BA
S1132F90F00DB11DAA1F649F6627B00DA11D661F09
S1132FA0829F2227B00DA11D621F739FB00DA11D2A
S1132FB0621F839FA00D611D221F749F3327A00DE4
S1132FC0611D231F849F600D211D822F762F6A2F80
S1132FD011249F5750408AF0E1F088234AF0EE0F05
S1132FE0FF1FBB1F661F771F881F91505040A9F712
S1132FF09E3F510570F01BCF65CF5F3FECF3983EC9
S1133000DCF3869577956795B795F795E7959F5F78
S1133010C1F7FE2B880F911D9695879597F9089512
S11330209F3F31F0915020F4879577956795B79538
S1133030880F911D9695879597F90895DF93CF93FF
S11330401F930F93FF92EF92DF927B018C016894A0
S113305005C0DA2EEF018DDFFE01E894A5912591DC
S1133060359145915591AEF3EF01BDDDFE01970118
S1133070A801DA9479F7DF90EF90FF900F911F91F8
S1133080CF91DF910895A1E21A2EAA1BBB1BFD016B
S11330900DC0AA1FBB1FEE1FFF1FA217B307E40733
S11330A0F50720F0A21BB30BE40BF50B661F771F8B
S11330B0881F991F1A9469F760957095809590956B
S11330C09B01AC01BD01CF0108950F931F93CF93D2
S11330D0DF93009731F46115710519F480E090E0F5
S11330E039C08B01EC016EE070E081E090E071D2B8
S11330F0FC01892B99F380E883830115110571F094
S11331000287138781E883838091E9209091EA20E4
S1133110892B21F4E093E920F093EA202097C9F069
S1133120C087D1878381826083838091EB209091D3
S1133130EC20892B71F4E093EB20F093EC20809148
S1133140ED209091EE20892B21F4E093ED20F09373
S1133150EE20CF01DF91CF911F910F910895CF936E
S1133160DF93CDB7DEB7AE014A5F5F4FFA016191DD
S11331707191AF018091EB209091EC2033D0DF91DD
S1133180CF9108950F931F93CF93DF93E091EB209A
S1133190F091EC20238121FF1BC08C01D0E0C0E022
S11331A0F80181918F016091EB207091EC20DB019B
S11331B01896ED91FC911997882331F01995892B74
S11331C079F3DFEFCFEFECCF8AE01995892B19F073
S11331D08FEF9FEF02C08D2F9C2FDF91CF911F9116
S11331E00F9108952F923F924F925F926F927F9228
S11331F08F929F92AF92BF92CF92DF92EF92FF9203
S11332000F931F93CF93DF93CDB7DEB72B97CDBF2B
S1133210DEBF6C017B018A01FC0116821782838167
S113322081FFBFC1CE0101963C01F6019381F701F4
S113323093FD859193FF81917F01882309F4ADC1AA
S1133240853239F493FD859193FF81917F01853215
S113325021F4B60190E015D3E8CF912C212C312C28
S1133260FFE1F315D8F08B3279F038F4803279F03D
S11332708332A1F4232D20611DC08D3261F080338F
S113328069F4232D216016C0832D8260382EE32D2E
S1133290E4603E2E2AC0F32DF8601DC037FC2DC01B
S11332A020ED280F2A3040F08E32B9F436FC75C177
S11332B0232D2064322E19C036FE06C08AE0989E63
S11332C0200D1124922E11C0EAE02E9E200D11240F
S11332D0222EF32DF0623F2E08C08C3621F4832D6C
S11332E08068382E02C0883641F4F70193FD859139
S11332F093FF81917F018111B3CF982F9F7D9554C6
S1133300933028F40C5F1F4F9FE399830DC08336DD
S113331031F0833771F0833509F055C020C0F801CE
S1133320808189830E5F1F4F88248394912C5301DD
S113333012C02801F2E04F0E511CF801A080B180A8
S113334036FE03C0692D70E002C06FEF7FEFC50148
S11333508DD24C018201F32DFF773F2E15C0280139
S113336022E0420E511CF801A080B18036FE03C059
S1133370692D70E002C06FEF7FEFC50165D24C018B
S1133380F32DF0683F2E820133FC19C0822D90E0AA
S113339088169906A0F4B60180E290E072D22A94CD
S11333A0F5CFF50137FC859137FE81915F01B601B8
S11333B090E067D221102A9421E0821A91088114A6
S11333C0910479F7E1C0843611F0893639F5F801B2
S11333D037FE07C060817181828193810C5F1F4F2A
S11333E008C060817181072E000C880B990B0E5F59
S11333F01F4FF32DFF763F2E97FF09C090958095C0
S1133400709561957F4F8F4F9F4FF0683F2E2AE054
S113341030E0A30172D2882E861844C0853731F477
S1133420232D2F7EB22E2AE030E025C0932D997FE4
S1133430B92E8F36C1F018F4883579F0AEC08037D4
S113344019F0883721F0A9C0E92FE061BE2EB4FE3F
S11334500DC0FB2DF460BF2E09C034FE0AC0292F15
S11334602660B22E06C028E030E005C020E130E03E
S113347002C020E132E0F801B7FE07C0608171812B
S1133480828193810C5F1F4F06C06081718180E04F
S113349090E00E5F1F4FA30130D2882E8618FB2DBB
S11334A0FF773F2E36FE0DC0232D2E7FA22E8914CA
S11334B058F434FE0BC032FC09C0832D8E7EA82E36
S11334C005C0B82CA32C03C0B82C01C0B92CA4FE91
S11334D00FC0FE01E80DF11D8081803321F49A2D87
S11334E0997EA92E09C0A2FE06C0B394B39404C069
S11334F08A2D867809F0B394A3FC10C0A0FE06C000
S1133500B21480F4280C922C9B180DC0B21458F4F9
S1133510B60180E290E0B5D1B394F8CFB21418F4B8
S11335202B1802C0982C212CA4FE0FC0B60180E3F6
S113353090E0A7D1A2FE16C0A1FC03C088E790E0EA
S113354002C088E590E0B6010CC08A2D867851F05F
S1133550A1FE02C08BE201C080E2A7FC8DE2B601AD
S113356090E08FD1891430F4B60180E390E089D1E2
S11335709A94F8CF8A94F301E80DF11D8081B60185
S113358090E07FD18110F6CF222009F44ECEB6010F
S113359080E290E076D12A94F7CFF6018681978174
S11335A002C08FEF9FEF2B96CDBFDEBFDF91CF918F
S11335B01F910F91FF90EF90DF90CF90BF90AF904D
S11335C09F908F907F906F905F904F903F902F903F
S11335D008950F931F93CF93DF93869F8001879F56
S11335E0100D969F100D1124C8010DD0EC01009709
S11335F021F0A80160E070E032D1CE01DF91CF91DB
S11336001F910F9108950F931F93CF93DF938230EF
S1133610910510F482E090E0E091F120F091F22025
S113362020E030E0A0E0B0E0309719F14081518112
S11336300281138148175907C8F08417950769F464
S1133640109731F012960C93129713961C9327C07F
S11336500093F1201093F22022C02115310519F0B6
S11336604217530718F49A01BD01EF01DF01F80175
S1133670DBCF21153105F9F0281B390B2430310536
S113368080F48A819B816115710521F0FB0182839D
S1133690938304C08093F1209093F220FE0132962C
S11336A044C0FE01E20FF31F81939193225031092C
S11336B0288339833AC02091EF203091F020232BC6
S11336C041F420910220309103202093EF20309385
S11336D0F02020910020309101202115310541F482
S11336E02DB73EB74091042050910520241B350B83
S11336F0E091EF20F091F020E217F307A0F42E1BE5
S11337003F0B2817390778F0AC014E5F5F4F241741
S1133710350748F04E0F5F1F4093EF205093F02081
S11337208193919302C0E0E0F0E0CF01DF91CF916B
S11337301F910F910895CF93DF93009709F481C0EF
S1133740FC01329712821382A091F120B091F220F1
S1133750109781F420813181820F931F2091EF20F3
S11337603091F0202817390751F5E093EF20F093BA
S1133770F02067C0ED0120E030E0CE17DF0740F411
S11337804A815B819E0141155105F1F0EA01F5CFB3
S1133790C283D38340815181840F951FC817D907F1
S11337A059F488819981840F951F029680839183AF
S11337B08A819B81828393832115310529F4E093C7
S11337C0F120F093F2203DC0E901EA83FB834991A3
S11337D05991C40FD51FEC17FD0761F480819181C5
S11337E0840F951F0296E9018883998382819381CE
S11337F08A839B83E0E0F0E012968D919C9113976D
S1133800009719F0FD01DC01F7CF8D919C91119780
S11338109D012E5F3F4F820F931F2091EF20309127
S1133820F0202817390769F4309729F41092F12011
S11338301092F22002C012821382A093EF20B09360
S1133840F020DF91CF910895FC0105906150704004
S11338500110D8F7809590958E0F9F1F0895DC0175
S113386001C06D9341505040E0F70895FC01615050
S1133870704001900110D8F7809590958E0F9F1F8E
S113388008950F931F93CF93DF93FB01238121FDB1
S113389003C08FEF9FEF2CC022FF16C046815781D3
S11338A0248135814217530744F4A081B1819D01DD
S11338B02F5F3F4F208331838C93268137812F5F85
S11338C03F4F2683378314C08B01EC01FB01008436
S11338D0F185E02D1995892BE1F6D80116968D9185
S11338E09C911797019616968D939C931797CE01EA
S11338F0DF91CF911F910F910895FA01AA272830E3
S113390051F1203181F1E8946F936E7F6E5F7F4FA8
S11339108F4F9F4FAF4FB1E03ED0B4E03CD0670F24
S1133920781F891F9A1FA11D680F791F8A1F911D77
S1133930A11D6A0F711D811D911DA11D20D009F4C7
S113394068943F912AE0269F11243019305D319309
S1133950DEF6CF010895462F4770405D4193B3E0F2
S11339600FD0C9F7F6CF462F4F70405D4A3318F099
S1133970495D31FD4052419302D0A9F7EACFB4E04A
S1133980A6959795879577956795BA95C9F7009702
S11339906105710508959B01AC010A2E06945795A3
S11339A0479537952795BA95C9F7620F731F841FFA
S10D39B0951FA01D0895F894FFCFA1
S11339BA0000F320200000C2010003000180060079
S11339CA0A127A0115546865726D6973746F7220EC
S11339DA496E697469616C697A65642E0074656DEF
S11339EA703A2025660A000A0A0A0A0A43616E73B3
S11339FA61742056616C6B7972696520496E6974C9
S1133A0A69616C697A696E672E2E2E00554152548B
S1133A1A20496E697469616C697A65640075204726
S1073A2A61790000BA
S9030000FC
