:10000000ABC10000CFC10000CDC10000CBC10000DA
:10001000C9C10000C7C10000C5C10000C3C10000C4
:10002000C1C10000BFC100000C94F90A0C941C0B64
:10003000B9C10000FAC200000C94A00B0C94D80BBC
:100040000C94100C0C94480C0C94800C0C94B80C70
:100050000C94F00C0C94280D0C94600D0C94980DDD
:10006000A1C100009FC100009DC100009BC1000014
:1000700099C1000097C1000095C1000093C1000024
:1000800091C100008FC100008DC100008BC1000034
:1000900089C1000087C1000085C100000C9455088B
:1000A0000C9492080C94CF080C940C097BC10000AE
:1000B00079C1000077C100001CC300000C9400103F
:1000C0000C9438100C9470100C94A8100C94E01040
:1000D0000C9418110C9450110C9488110C94C011AC
:1000E0000C94F8115FC100005DC100005BC100000D
:1000F00059C1000057C1000055C1000053C10000A4
:1001000051C100004FC100004DC100004BC10000B3
:1001100049C1000047C1000045C10000D2C600002F
:100120000DC7000048C7000083C700003BC10000A6
:10013000AEC200000C94D00D0C94080E0C94400E2E
:100140000C94780E0C94B00E0C94E80E0C94200FC6
:100150000C94580F0C94900F0C94C80F23C10000FE
:1001600021C100001FC100001DC100001BC1000013
:1001700019C1000017C1000015C1000013C1000023
:1001800011C100000FC100000DC100000BC1000033
:1001900009C1000007C1000005C1000003C1000043
:1001A00001C10000FFC00000FDC00000D4C200007B
:1001B0000C9430120C9468120C94A0120C94D81267
:1001C0000C9410130C9448130C9480130C94B813D3
:1001D0000C94F0130C942814E5C00000E3C0000058
:1001E000E1C00000DFC00000DDC00000DBC0000097
:1001F000D9C00000D7C00000D5C000000800000032
:10020000BE922449123EABAAAA2ABECDCCCC4C3E0B
:1002100000000080BEABAAAAAA3E00000000BF00FA
:100220000000803F0000000000084178D3BB4387F6
:10023000D1133D190E3CC3BD4282AD2B3E68EC820A
:1002400076BED98FE1A93E4C80EFFFBE01C4FF7F8F
:100250003F00000000006E616E00696E66000040A5
:100260007A10F35A00A0724E18090010A5D4E800C5
:1002700000E87648170000E40B54020000CA9A3BDD
:10028000000000E1F5050000809698000000404263
:100290000F000000A08601000000102700000000F1
:1002A000E803000000006400000000000A000000F5
:1002B00000000100000000002C76D888DC674F08A1
:1002C00023DFC1DFAE59E1B1B796E5E3E453C63AA7
:1002D000E651997696E8E6C28426EB898C9B62ED1E
:1002E000407C6FFCEFBC9C9F40F2BAA56FA5F490D8
:1002F000055A2AF75C936B6CF9676DC11BFCE0E44F
:100300000D47FEF520E6B500D0ED902E03009435A4
:1003100077050080841E080000204E0A000000C8F7
:100320000C333333330F986E12831141EF8D211448
:10033000893BE65516CFFEE6DB18D1844B381BF718
:100340007C1D901DA4BBE424203284725E228100B7
:10035000C9F124ECA1E53D2711241FBECFEFCDBF8D
:10036000DFE3DEBF00E00CBF18BE19BE1ABE1BBE25
:1003700010E2A0E0B0E2E4E8FFE300E00BBF02C05F
:1003800007900D92AA37B107D9F71BBE20E2AAE762
:10039000B0E201C01D92A93FB207E1F70E944916E1
:1003A0000C94C01F2DCECF93DF931F92CDB7DEB735
:1003B0008091DF209091E020E091D720F091D8202B
:1003C000BE016F5F7F4F19958981082E000C990B34
:1003D0000F90DF91CF910895811522E0920769F483
:1003E00080917B2091E0980F90937B20811114C025
:1003F00062E081E00C94CE0A08958034924061F46A
:1004000080917A2091E0980F90937A20811104C016
:1004100062E082E00C94CE0A0895811522E09207F2
:1004200061F480917B20815080937B20811113C0E7
:1004300062E081E00C94E40A08958034924059F41B
:1004400080917A20815080937A20811104C062E0EB
:1004500082E00C94E40A0895EF92FF921F93CF93E9
:10046000DF931F921F92CDB7DEB77C018FB78983D0
:10047000F8941981C701B0DFF70180818160808322
:100480001FBF8091E2208F3F09F4FFCF8FB78A838F
:10049000F8949A81E1EEF0E281818F5F81839FBFC2
:1004A0000F900F90DF91CF911F91FF90EF900895E3
:1004B0001F93CF93DF931F921F92CDB7DEB72FB755
:1004C0002983F8941981FC0120812E7F2083A5DFE8
:1004D0001FBF8091E220811101C0FFCF8FB78A83B7
:1004E000F8949A81E1EEF0E28181815081839FBF8F
:1004F0000F900F90DF91CF911F910895CF93DF93CD
:10050000E0917C20F0917D20848183FF08C0886089
:10051000848383E0838386EF8093862083C0982F33
:10052000947131F083E083838FEF809386207AC0CB
:1005300086FF43C0CCE7D0E2AA81BB818C819D813C
:1005400014962D913C911597821793076CF49C019A
:100550002F5F3F4F2093802030938120A80FB91F39
:1005600011968C9187835EC0809182209091832028
:1005700018962D913C91199782179307C8F42091F2
:100580008420222321F08681816086834BC01696C9
:100590002D913C911797AC014F5F5F4F40938220A4
:1005A00050938320D901A80FB91F8C9187833AC03B
:1005B00083E083831092862035C0882384F5ACE7DE
:1005C000B0E21296CD91DC91139716968D919C9185
:1005D00017972885398582179307D8F46E817F8114
:1005E0009C012F5F3F4F20938220309383204781CF
:1005F000DB01A80FB91F4C93888599852817390707
:1006000018F482E083830EC087E0838310928620F3
:1006100009C083E0838389EF8093862003C08BEF3A
:1006200080938620DF91CF9108951F920F920FB68D
:100630000F92112408B60F9218BE09B60F9219BE78
:100640000BB60F921BBE2F933F934F935F936F9305
:100650007F938F939F93AF93BF93EF93FF934EDF5F
:10066000FF91EF91BF91AF919F918F917F916F918A
:100670005F914F913F912F910F900BBE0F9009BE4C
:100680000F9008BE0F900FBE0F901F9018951F92ED
:100690000F920FB60F92112408B60F9218BE09B62A
:1006A0000F9219BE0BB60F921BBE2F933F934F9321
:1006B0005F936F937F938F939F93AF93BF93EF93CA
:1006C000FF931CDFFF91EF91BF91AF919F918F91AD
:1006D0007F916F915F914F913F912F910F900BBE42
:1006E0000F9009BE0F9008BE0F900FBE0F901F9085
:1006F00018951F920F920FB60F92112408B60F9201
:1007000018BE09B60F9219BE0BB60F921BBE2F93DF
:100710003F934F935F936F937F938F939F93AF9389
:10072000BF93EF93FF93EADEFF91EF91BF91AF91FB
:100730009F918F917F916F915F914F913F912F91F9
:100740000F900BBE0F9009BE0F9008BE0F900FBE0A
:100750000F901F9018951F920F920FB60F921124B1
:1007600008B60F9218BE09B60F9219BE0BB60F92BB
:100770001BBE2F933F934F935F936F937F938F9302
:100780009F93AF93BF93EF93FF93B8DEFF91EF91E9
:10079000BF91AF919F918F917F916F915F914F9199
:1007A0003F912F910F900BBE0F9009BE0F9008BE86
:1007B0000F900FBE0F901F901895FC01918195FF2F
:1007C000FDCF608380E090E00895FC019181992342
:1007D000ECF7808108954F925F926F927F928F9293
:1007E0009F92AF92BF92EF92FF920F931F93CF937E
:1007F0007C014A015B0128013901FC01848182FFEF
:1008000016C0D901C801689412F8B695A7959795B6
:1008100087951694D1F7B901A801032E36E1769594
:100820006795579547953A95D1F7302D15C0D90161
:10083000C801689413F8B695A7959795879516946F
:10084000D1F7B901A801032E37E176956795579541
:1008500047953A95D1F7302D88159905AA05BB051E
:1008600008F4A6C084169506A606B70608F4A2C02A
:10087000F701848182FD04C0880C991CAA1CBB1C52
:10088000C301B201A50194010E94471C2F3F31050D
:100890004105510508F490C08FEF90E0A0E0B0E072
:1008A000C9EF05C0281739074A075B0758F0880FBA
:1008B000991FAA1FBB1FCD3F0CF48160CF5FC730CB
:1008C00089F74FC0CC230CF04CC0D501C401880F70
:1008D000991FAA1FBB1F880F991FAA1FBB1F880F34
:1008E000991FAA1FBB1F481A590A6A0A7B0ACE3FE2
:1008F000F4F48DEF9FEF8C1B9109C7FD939504C015
:10090000440C551C661C771C8A95D2F7D501C4018E
:10091000B695A79597958795BC01CD01640D751D7A
:10092000861D971DA50194010E94471C37C083E0D6
:100930008C0FA501940104C0220F331F441F551FC3
:100940008A95D2F7DA01C901B695A795979587954B
:10095000BC01CD01640D751D861D971D0E94471CAD
:100960001DC083E08C0FA501940104C0220F331F2A
:10097000441F551F8A95D2F7DA01C901B695A7958C
:1009800097958795BC01CD01640D751D861D971D3A
:100990000E94471C2150310941095109832F8F7052
:1009A000C295C07FC82BF701C783268381E018C09A
:1009B00080E016C080E014C0D501C401880F991FE3
:1009C000AA1FBB1F880F991FAA1FBB1F880F991F43
:1009D000AA1FBB1F481A590A6A0A7B0AC9EF89CFA6
:1009E000CF911F910F91FF90EF90BF90AF909F908C
:1009F0008F907F906F905F904F9008950F931F930B
:100A0000CF93DF93EC018B01009709F436C1803C52
:100A1000910521F460E180E0C1D52FC1C03484E0AC
:100A2000D80721F468E080E0B9D527C1C115E4E01A
:100A3000DE0721F464E080E0B1D51FC1C038F1E0E9
:100A4000DF0721F462E080E0A9D517C1C11581E07C
:100A5000D80721F461E080E0A1D50FC1C038E3E000
:100A6000DE0721F461E081E099D507C1C039F3E0E8
:100A7000DF0721F461E082E091D5FFC0C11582E07B
:100A8000D80721F462E081E089D5F7C0C034E2E004
:100A9000DE0721F462E082E081D5EFC0C115F3E00A
:100AA000DF0721F464E081E079D5E7C0C03283E05C
:100AB000D80721F464E082E071D5DFC0C115E8E019
:100AC000DE0721F461E083E069D5D7C0C115F9E004
:100AD000DF0721F461E084E061D5CFC0C1158AE071
:100AE000D80721F461E085E059D5C7C0C115EBE016
:100AF000DE0721F461E086E051D5BFC0C034F8E0E4
:100B0000DF0721F462E083E049D5B7C0C03489E053
:100B1000D80721F462E084E041D5AFC0C034EAE0F8
:100B2000DE0721F462E085E039D5A7C0C034FBE0E0
:100B3000DF0721F462E086E031D59FC0C03988E04C
:100B4000D80721F464E083E029D597C0C039E9E0F3
:100B5000DE0721F464E084E021D58FC0C039FAE0DB
:100B6000DF0721F464E085E019D587C0C0398BE048
:100B7000D80721F464E086E011D57FC0C03CE8E0EE
:100B8000DE0721F468E083E009D577C0C03CF9E0D6
:100B9000DF0721F468E084E001D56FC0C03C8AE043
:100BA000D80721F468E085E0F9D467C0C03CEBE0E9
:100BB000DE0721F468E086E0F1D45FC0C03AF8E0D7
:100BC000DF0721F460E183E0E9D457C0C03A89E04F
:100BD000D80721F460E184E0E1D44FC0C03AEAE0F4
:100BE000DE0721F460E185E0D9D447C0C03AFBE0DC
:100BF000DF0721F460E186E0D1D43FC0C03B88E04C
:100C0000D80721F460E283E0C9D437C0C03BE9E0F3
:100C1000DE0721F460E284E0C1D42FC0C03BFAE0DB
:100C2000DF0721F460E285E0B9D427C0C03B8BE048
:100C3000D80721F460E286E0B1D41FC0C038E4E0F8
:100C4000DE0721F460E483E0A9D417C0C039F4E0E2
:100C5000DF0721F460E484E0A1D40FC0C03A84E04F
:100C6000D80721F460E485E099D407C0C03BE4E0F4
:100C7000DE0719F460E486E091D48D818F738D8353
:100C8000F80195818481892B9681911198E0892BB7
:100C90008D83F801408151816281738100E018E405
:100CA00028EE31E0CE0197DD9C8198609C839C8189
:100CB00090619C83DF91CF911F910F910895EF92E6
:100CC000FF920F931F93CF93DF93CDB7DEB72B9790
:100CD000CDBFDEBF7C01062F142FBE016F5F7F4F9B
:100CE00042D3AE01485F5F4F602FC701C2D39A81E4
:100CF0008B818F7880618B83892F817E8A831C8290
:100D000086E08D83103138F018861051110F110FC5
:100D1000110F198706C081E08887110F110F110F7D
:100D20001987BE016F5F7F4FC701B3D2AE01485F25
:100D30005F4F602FC70150D32B96CDBFDEBFDF9131
:100D4000CF911F910F91FF90EF900895EF92FF9236
:100D50000F931F93CF93DF931F92CDB7DEB77C0124
:100D6000162F7ADB8FB78983F8949981F7018081F8
:100D7000212F220F220F822B80839FBFF7018681B4
:100D800081231813FBCF1683812F837021F41695CE
:100D9000169582E001C080E010FF8F5FF701B096EA
:100DA00098E0899FE00DF11D112404811581C70190
:100DB0007FDBB80180E090E00E945B170F90DF912D
:100DC000CF911F910F91FF90EF90089546E061E061
:100DD00080E092E074DF85E190E20C94F01D0895CC
:100DE000CF92DF92EF92FF920F931F93CF93DF93F7
:100DF00061E080E092E0AADF25EE30ED42E25FE3C1
:100E00000E942E18F62EE72ED82EC92E762F272FC9
:100E10003E2D4D2D5C2D60E070E080E895E40E9451
:100E2000C71620E030E040E85FE30E9462160E94AF
:100E3000EE172CE734ED43E859E30E942E182FE01B
:100E40003FEC4BE55BE30E9463169B01AC0160E065
:100E500070E080E89FE30E94C7160E942F170E944F
:100E60005B1723E333E948E853E40E946216062F38
:100E7000172FD82FC92F9F938F937F936F938DE256
:100E800090E29F938F930E94DD1DCF92DF92EF92AD
:100E9000FF928AE390E29F938F930E94DD1D8DB7AE
:100EA0009EB70C968DBF9EBF602F712F8D2F9C2FEC
:100EB000DF91CF911F910F91FF90EF90DF90CF9036
:100EC00008951F920F920FB60F92112408B60F9239
:100ED00018BE09B60F9219BE0BB60F921BBE2F9308
:100EE0003F934F935F936F937F938F939F93AF93B2
:100EF000BF93EF93FF934091240250912502E0911C
:100F0000DB20F091DC2061E080E092E01995FF9118
:100F1000EF91BF91AF919F918F917F916F915F9171
:100F20004F913F912F910F900BBE0F9009BE0F90E4
:100F300008BE0F900FBE0F901F9018951F920F9232
:100F40000FB60F92112408B60F9218BE09B60F9271
:100F500019BE0BB60F921BBE2F933F934F935F9317
:100F60006F937F938F939F93AF93BF93EF93FF9371
:100F700040912C0250912D02E091DB20F091DC2079
:100F800062E080E092E01995FF91EF91BF91AF91FF
:100F90009F918F917F916F915F914F913F912F9191
:100FA0000F900BBE0F9009BE0F9008BE0F900FBEA2
:100FB0000F901F9018951F920F920FB60F92112449
:100FC00008B60F9218BE09B60F9219BE0BB60F9253
:100FD0001BBE2F933F934F935F936F937F938F939A
:100FE0009F93AF93BF93EF93FF934091340250913F
:100FF0003502E091DB20F091DC2064E080E092E0BB
:101000001995FF91EF91BF91AF919F918F917F9132
:101010006F915F914F913F912F910F900BBE0F9069
:1010200009BE0F9008BE0F900FBE0F901F9018952D
:101030001F920F920FB60F92112408B60F9218BE8E
:1010400009B60F9219BE0BB60F921BBE2F933F939A
:101050004F935F936F937F938F939F93AF93BF93C0
:10106000EF93FF9340913C0250913D02E091DB20D1
:10107000F091DC2068E080E092E01995FF91EF911B
:10108000BF91AF919F918F917F916F915F914F91A0
:101090003F912F910F900BBE0F9009BE0F9008BE8D
:1010A0000F900FBE0F901F9018951F920F920FB6C2
:1010B0000F92112408B60F9218BE09B60F9219BEEE
:1010C0000BB60F921BBE2F933F934F935F936F937B
:1010D0007F938F939F93AF93BF93EF93FF93409131
:1010E000640250916502E091D920F091DA2061E02C
:1010F00080E492E01995FF91EF91BF91AF919F919C
:101100008F917F916F915F914F913F912F910F90B0
:101110000BBE0F9009BE0F9008BE0F900FBE0F9030
:101120001F9018951F920F920FB60F92112408B6B8
:101130000F9218BE09B60F9219BE0BB60F921BBEC6
:101140002F933F934F935F936F937F938F939F93CF
:10115000AF93BF93EF93FF9340916C0250916D0258
:10116000E091D920F091DA2062E080E492E01995D4
:10117000FF91EF91BF91AF919F918F917F916F916F
:101180005F914F913F912F910F900BBE0F9009BE31
:101190000F9008BE0F900FBE0F901F9018951F92D2
:1011A0000F920FB60F92112408B60F9218BE09B60F
:1011B0000F9219BE0BB60F921BBE2F933F934F9306
:1011C0005F936F937F938F939F93AF93BF93EF93AF
:1011D000FF934091740250917502E091D920F091F3
:1011E000DA2064E080E492E01995FF91EF91BF91DD
:1011F000AF919F918F917F916F915F914F913F91AF
:101200002F910F900BBE0F9009BE0F9008BE0F904C
:101210000FBE0F901F9018951F920F920FB60F924E
:10122000112408B60F9218BE09B60F9219BE0BB65C
:101230000F921BBE2F933F934F935F936F937F93B8
:101240008F939F93AF93BF93EF93FF9340917C0253
:1012500050917D02E091D920F091DA2068E080E49D
:1012600092E01995FF91EF91BF91AF919F918F916E
:101270007F916F915F914F913F912F910F900BBE96
:101280000F9009BE0F9008BE0F900FBE0F901F90D9
:101290001895BF92CF92DF92EF92FF920F931F9318
:1012A000CF93DF931F92CDB7DEB78C017B01811501
:1012B00022E0920781F461E270E082E00E9433153F
:1012C000C82ED12C60E270E082E00E943315DC2C45
:1012D000CC24C82A12C080349240D1F565E270E077
:1012E00082E00E943315C82ED12C64E270E082E0C7
:1012F0000E943315DC2CCC24C82A8FB78983F8943C
:10130000B980C80169D8F801808192E09083C486D1
:10131000D586F70125813681F801208F318FF701BD
:101320009281F8019283F7019481F8019483F70187
:101330009381F8019383F7019181F8019183817082
:10134000F7019081892BF8018083C80166D8BFBE60
:101350000F90DF91CF911F910F91FF90EF90DF9051
:10136000CF90BF900895DF92EF92FF920F931F935B
:10137000CF93DF931F92CDB7DEB78C017B018FB780
:101380008983F894D980C80127D8F8018081807CAE
:10139000F7018083F801808D918DF7018583968315
:1013A000F8018281F7018283F8018481F701848347
:1013B000F8018381F7018383F8018181F70181833B
:1013C000C8012BD8DFBE0F90DF91CF911F910F91F5
:1013D000FF90EF90DF900895AF92BF92CF92DF928F
:1013E000EF92FF920F931F93CF93DF931F92CDB78E
:1013F000DEB76C01B62E7A01862F837029F4962F02
:101400009695969582E002C0962F80E090FF8F5FC0
:101410008601005E1F4F98E0899F000D111D112469
:101420008FB78983F894A980C6010E94EC01F70167
:101430008081F8018083F7018281F8018283F701BE
:101440008181F8018183B0FE04C0F7018381F80136
:101450008683C6010E940D02AFBE0F90DF91CF912F
:101460001F910F91FF90EF90DF90CF90BF90AF90C2
:101470000895AF92BF92CF92DF92EF92FF920F93B7
:101480001F93CF93DF931F92CDB7DEB76C01B62EBB
:101490007A01862F837029F4962F9695969582E08F
:1014A00002C0962F80E090FF8F5F8601005E1F4F85
:1014B00098E0899F000D111D11248FB78983F8943E
:1014C000A980C6010E94EC01F8018081F7018083A8
:1014D000F8018281F7018283F8018181F70181831C
:1014E000B0FE04C0F8018681F7018383C6010E9423
:1014F0000D02AFBE0F90DF91CF911F910F91FF9022
:10150000EF90DF90CF90BF90AF900895682F8091BB
:10151000DF209091E020E091DD20F091DE20199510
:1015200099231CF081E090E008958FEF9FEF0895DC
:10153000CF93DF931F921F92CDB7DEB78FEF8093CB
:101540007000809371008093720080937300809389
:10155000740080937500809376008FB78A83F89427
:101560009A81E0E5F0E08081826080839FBF818185
:1015700081FFFDCF61E080E490E00E943D158FB7D0
:101580008983F8949981E0E5F0E080818E7F808303
:101590009FBF0F900F90DF91CF910895CF93DF936E
:1015A0001F92CDB7DEB79FB79983F8949981E82F42
:1015B000F0E0E059FF4F60958081682360839FBF12
:1015C0000F90DF91CF910895CF93DF931F92CDB706
:1015D000DEB79FB79983F8949981E82FF0E0E0593E
:1015E000FF4F8081682B60839FBF0F90DF91CF9169
:1015F00008951F920F920FB60F92112408B60F9202
:1016000018BE0BB60F921BBE8F939F93EF93FF9361
:10161000E7EEF0E280819181019680839183FF91D2
:10162000EF919F918F910F900BBE0F9008BE0F907E
:101630000FBE0F901F9018951F920F920FB60F922A
:10164000112408B60F9218BE09B60F9219BE0BB638
:101650000F921BBECF92DF92EF92FF920F931F93D8
:101660002F933F934F935F936F937F938F939F93AA
:10167000AF93BF93EF93FF93E7EEF0E28081918108
:101680002281338182179307F0F121E02093020435
:10169000E091ED20F091EE203097A9F160910804DF
:1016A00070910904A0E0B0E0DC0199278827AB0124
:1016B00060E070E08C019D01042B152B262B372B4D
:1016C000C901B801A7EEB0E212960D911C911397D3
:1016D00020E030E09801112700271496CD90DC908F
:1016E0001597E12CF12C0C291D292E293F290617CD
:1016F00017072807390730F0C901B8016F5F7F4F1E
:101700008F4F9F4F1995FF91EF91BF91AF919F918F
:101710008F917F916F915F914F913F912F911F9189
:101720000F91FF90EF90DF90CF900F900BBE0F9036
:1017300009BE0F9008BE0F900FBE0F901F90189516
:101740001F920F920FB60F92112408B60F9218BE77
:1017500009B60F9219BE0BB60F921BBE2F933F9383
:101760004F935F936F937F938F939F93AF93BF93A9
:10177000EF93FF93E091D520F091D620309709F0B8
:101780001995FF91EF91BF91AF919F918F917F91AB
:101790006F915F914F913F912F910F900BBE0F90E2
:1017A00009BE0F9008BE0F900FBE0F901F901895A6
:1017B0001F920F920FB60F92112408B60F9218BE07
:1017C00009B60F9219BE0BB60F921BBE2F933F9313
:1017D0004F935F936F937F938F939F93AF93BF9339
:1017E000EF93FF93E091D320F091D420309709F04C
:1017F0001995FF91EF91BF91AF919F918F917F913B
:101800006F915F914F913F912F910F900BBE0F9071
:1018100009BE0F9008BE0F900FBE0F901F90189535
:101820001F920F920FB60F92112408B60F9218BE96
:1018300009B60F9219BE0BB60F921BBE2F933F93A2
:101840004F935F936F937F938F939F93AF93BF93C8
:10185000EF93FF93E091D120F091D220309709F0DF
:101860001995FF91EF91BF91AF919F918F917F91CA
:101870006F915F914F913F912F910F900BBE0F9001
:1018800009BE0F9008BE0F900FBE0F901F901895C5
:101890001F920F920FB60F92112408B60F9218BE26
:1018A00009B60F9219BE0BB60F921BBE2F933F9332
:1018B0004F935F936F937F938F939F93AF93BF9358
:1018C000EF93FF93E091CF20F091D020309709F073
:1018D0001995FF91EF91BF91AF919F918F917F915A
:1018E0006F915F914F913F912F910F900BBE0F9091
:1018F00009BE0F9008BE0F900FBE0F901F90189555
:101900001F920F920FB60F92112408B60F9218BEB5
:1019100009B60F9219BE0BB60F921BBE2F933F93C1
:101920004F935F936F937F938F939F93AF93BF93E7
:10193000EF93FF93E091CD20F091CE20309709F006
:101940001995FF91EF91BF91AF919F918F917F91E9
:101950006F915F914F913F912F910F900BBE0F9020
:1019600009BE0F9008BE0F900FBE0F901F901895E4
:101970001F920F920FB60F92112408B60F9218BE45
:1019800009B60F9219BE0BB60F921BBE2F933F9351
:101990004F935F936F937F938F939F93AF93BF9377
:1019A000EF93FF93E091CB20F091CC20309709F09A
:1019B0001995FF91EF91BF91AF919F918F917F9179
:1019C0006F915F914F913F912F910F900BBE0F90B0
:1019D00009BE0F9008BE0F900FBE0F901F90189574
:1019E0001F920F920FB60F92112408B60F9218BED5
:1019F00009B60F9219BE0BB60F921BBE2F933F93E1
:101A00004F935F936F937F938F939F93AF93BF9306
:101A1000EF93FF93E091C920F091CA20309709F02D
:101A20001995FF91EF91BF91AF919F918F917F9108
:101A30006F915F914F913F912F910F900BBE0F903F
:101A400009BE0F9008BE0F900FBE0F901F90189503
:101A50001F920F920FB60F92112408B60F9218BE64
:101A600009B60F9219BE0BB60F921BBE2F933F9370
:101A70004F935F936F937F938F939F93AF93BF9396
:101A8000EF93FF93E091C720F091C820309709F0C1
:101A90001995FF91EF91BF91AF919F918F917F9198
:101AA0006F915F914F913F912F910F900BBE0F90CF
:101AB00009BE0F9008BE0F900FBE0F901F90189593
:101AC0001F920F920FB60F92112408B60F9218BEF4
:101AD00009B60F9219BE0BB60F921BBE2F933F9300
:101AE0004F935F936F937F938F939F93AF93BF9326
:101AF000EF93FF93E091C520F091C620309709F055
:101B00001995FF91EF91BF91AF919F918F917F9127
:101B10006F915F914F913F912F910F900BBE0F905E
:101B200009BE0F9008BE0F900FBE0F901F90189522
:101B30001F920F920FB60F92112408B60F9218BE83
:101B400009B60F9219BE0BB60F921BBE2F933F938F
:101B50004F935F936F937F938F939F93AF93BF93B5
:101B6000EF93FF93E091C320F091C420309709F0E8
:101B70001995FF91EF91BF91AF919F918F917F91B7
:101B80006F915F914F913F912F910F900BBE0F90EE
:101B900009BE0F9008BE0F900FBE0F901F901895B2
:101BA0001F920F920FB60F92112408B60F9218BE13
:101BB00009B60F9219BE0BB60F921BBE2F933F931F
:101BC0004F935F936F937F938F939F93AF93BF9345
:101BD000EF93FF93E091C120F091C220309709F07C
:101BE0001995FF91EF91BF91AF919F918F917F9147
:101BF0006F915F914F913F912F910F900BBE0F907E
:101C000009BE0F9008BE0F900FBE0F901F90189541
:101C10001F920F920FB60F92112408B60F9218BEA2
:101C200009B60F9219BE0BB60F921BBE2F933F93AE
:101C30004F935F936F937F938F939F93AF93BF93D4
:101C4000EF93FF93E091BF20F091C020309709F00F
:101C50001995FF91EF91BF91AF919F918F917F91D6
:101C60006F915F914F913F912F910F900BBE0F900D
:101C700009BE0F9008BE0F900FBE0F901F901895D1
:101C80001F920F920FB60F92112408B60F9218BE32
:101C900009B60F9219BE0BB60F921BBE2F933F933E
:101CA0004F935F936F937F938F939F93AF93BF9364
:101CB000EF93FF93E091BD20F091BE20309709F0A3
:101CC0001995FF91EF91BF91AF919F918F917F9166
:101CD0006F915F914F913F912F910F900BBE0F909D
:101CE00009BE0F9008BE0F900FBE0F901F90189561
:101CF0001F920F920FB60F92112408B60F9218BEC2
:101D000009B60F9219BE0BB60F921BBE2F933F93CD
:101D10004F935F936F937F938F939F93AF93BF93F3
:101D2000EF93FF93E091BB20F091BC20309709F036
:101D30001995FF91EF91BF91AF919F918F917F91F5
:101D40006F915F914F913F912F910F900BBE0F902C
:101D500009BE0F9008BE0F900FBE0F901F901895F0
:101D60001F920F920FB60F92112408B60F9218BE51
:101D700009B60F9219BE0BB60F921BBE2F933F935D
:101D80004F935F936F937F938F939F93AF93BF9383
:101D9000EF93FF93E091B920F091BA20309709F0CA
:101DA0001995FF91EF91BF91AF919F918F917F9185
:101DB0006F915F914F913F912F910F900BBE0F90BC
:101DC00009BE0F9008BE0F900FBE0F901F90189580
:101DD0001F920F920FB60F92112408B60F9218BEE1
:101DE00009B60F9219BE0BB60F921BBE2F933F93ED
:101DF0004F935F936F937F938F939F93AF93BF9313
:101E0000EF93FF93E091B720F091B820309709F05D
:101E10001995FF91EF91BF91AF919F918F917F9114
:101E20006F915F914F913F912F910F900BBE0F904B
:101E300009BE0F9008BE0F900FBE0F901F9018950F
:101E40001F920F920FB60F92112408B60F9218BE70
:101E500009B60F9219BE0BB60F921BBE2F933F937C
:101E60004F935F936F937F938F939F93AF93BF93A2
:101E7000EF93FF93E091B520F091B620309709F0F1
:101E80001995FF91EF91BF91AF919F918F917F91A4
:101E90006F915F914F913F912F910F900BBE0F90DB
:101EA00009BE0F9008BE0F900FBE0F901F9018959F
:101EB0001F920F920FB60F92112408B60F9218BE00
:101EC00009B60F9219BE0BB60F921BBE2F933F930C
:101ED0004F935F936F937F938F939F93AF93BF9332
:101EE000EF93FF93E091B320F091B420309709F085
:101EF0001995FF91EF91BF91AF919F918F917F9134
:101F00006F915F914F913F912F910F900BBE0F906A
:101F100009BE0F9008BE0F900FBE0F901F9018952E
:101F20001F920F920FB60F92112408B60F9218BE8F
:101F300009B60F9219BE0BB60F921BBE2F933F939B
:101F40004F935F936F937F938F939F93AF93BF93C1
:101F5000EF93FF93E091B120F091B220309709F018
:101F60001995FF91EF91BF91AF919F918F917F91C3
:101F70006F915F914F913F912F910F900BBE0F90FA
:101F800009BE0F9008BE0F900FBE0F901F901895BE
:101F90001F920F920FB60F92112408B60F9218BE1F
:101FA00009B60F9219BE0BB60F921BBE2F933F932B
:101FB0004F935F936F937F938F939F93AF93BF9351
:101FC000EF93FF93E091AF20F091B020309709F0AC
:101FD0001995FF91EF91BF91AF919F918F917F9153
:101FE0006F915F914F913F912F910F900BBE0F908A
:101FF00009BE0F9008BE0F900FBE0F901F9018954E
:102000001F920F920FB60F92112408B60F9218BEAE
:1020100009B60F9219BE0BB60F921BBE2F933F93BA
:102020004F935F936F937F938F939F93AF93BF93E0
:10203000EF93FF93E091AD20F091AE20309709F03F
:102040001995FF91EF91BF91AF919F918F917F91E2
:102050006F915F914F913F912F910F900BBE0F9019
:1020600009BE0F9008BE0F900FBE0F901F901895DD
:102070001F920F920FB60F92112408B60F9218BE3E
:1020800009B60F9219BE0BB60F921BBE2F933F934A
:102090004F935F936F937F938F939F93AF93BF9370
:1020A000EF93FF93E091AB20F091AC20309709F0D3
:1020B0001995FF91EF91BF91AF919F918F917F9172
:1020C0006F915F914F913F912F910F900BBE0F90A9
:1020D00009BE0F9008BE0F900FBE0F901F9018956D
:1020E0001F920F920FB60F92112408B60F9218BECE
:1020F00009B60F9219BE0BB60F921BBE2F933F93DA
:102100004F935F936F937F938F939F93AF93BF93FF
:10211000EF93FF93E091A920F091AA20309709F066
:102120001995FF91EF91BF91AF919F918F917F9101
:102130006F915F914F913F912F910F900BBE0F9038
:1021400009BE0F9008BE0F900FBE0F901F901895FC
:102150001F920F920FB60F92112408B60F9218BE5D
:1021600009B60F9219BE0BB60F921BBE2F933F9369
:102170004F935F936F937F938F939F93AF93BF938F
:10218000EF93FF93E091A720F091A820309709F0FA
:102190001995FF91EF91BF91AF919F918F917F9191
:1021A0006F915F914F913F912F910F900BBE0F90C8
:1021B00009BE0F9008BE0F900FBE0F901F9018958C
:1021C0001F920F920FB60F92112408B60F9218BEED
:1021D00009B60F9219BE0BB60F921BBE2F933F93F9
:1021E0004F935F936F937F938F939F93AF93BF931F
:1021F000EF93FF93E091A520F091A620309709F08E
:102200001995FF91EF91BF91AF919F918F917F9120
:102210006F915F914F913F912F910F900BBE0F9057
:1022200009BE0F9008BE0F900FBE0F901F9018951B
:102230001F920F920FB60F92112408B60F9218BE7C
:1022400009B60F9219BE0BB60F921BBE2F933F9388
:102250004F935F936F937F938F939F93AF93BF93AE
:10226000EF93FF93E091A320F091A420309709F021
:102270001995FF91EF91BF91AF919F918F917F91B0
:102280006F915F914F913F912F910F900BBE0F90E7
:1022900009BE0F9008BE0F900FBE0F901F901895AB
:1022A0001F920F920FB60F92112408B60F9218BE0C
:1022B00009B60F9219BE0BB60F921BBE2F933F9318
:1022C0004F935F936F937F938F939F93AF93BF933E
:1022D000EF93FF93E091A120F091A220309709F0B5
:1022E0001995FF91EF91BF91AF919F918F917F9140
:1022F0006F915F914F913F912F910F900BBE0F9077
:1023000009BE0F9008BE0F900FBE0F901F9018953A
:102310001F920F920FB60F92112408B60F9218BE9B
:1023200009B60F9219BE0BB60F921BBE2F933F93A7
:102330004F935F936F937F938F939F93AF93BF93CD
:10234000EF93FF93E0919F20F091A020309709F048
:102350001995FF91EF91BF91AF919F918F917F91CF
:102360006F915F914F913F912F910F900BBE0F9006
:1023700009BE0F9008BE0F900FBE0F901F901895CA
:102380001F920F920FB60F92112408B60F9218BE2B
:1023900009B60F9219BE0BB60F921BBE2F933F9337
:1023A0004F935F936F937F938F939F93AF93BF935D
:1023B000EF93FF93E0919D20F0919E20309709F0DC
:1023C0001995FF91EF91BF91AF919F918F917F915F
:1023D0006F915F914F913F912F910F900BBE0F9096
:1023E00009BE0F9008BE0F900FBE0F901F9018955A
:1023F0001F920F920FB60F92112408B60F9218BEBB
:1024000009B60F9219BE0BB60F921BBE2F933F93C6
:102410004F935F936F937F938F939F93AF93BF93EC
:10242000EF93FF93E0919B20F0919C20309709F06F
:102430001995FF91EF91BF91AF919F918F917F91EE
:102440006F915F914F913F912F910F900BBE0F9025
:1024500009BE0F9008BE0F900FBE0F901F901895E9
:102460001F920F920FB60F92112408B60F9218BE4A
:1024700009B60F9219BE0BB60F921BBE2F933F9356
:102480004F935F936F937F938F939F93AF93BF937C
:10249000EF93FF93E0919920F0919A20309709F003
:1024A0001995FF91EF91BF91AF919F918F917F917E
:1024B0006F915F914F913F912F910F900BBE0F90B5
:1024C00009BE0F9008BE0F900FBE0F901F90189579
:1024D0001F920F920FB60F92112408B60F9218BEDA
:1024E00009B60F9219BE0BB60F921BBE2F933F93E6
:1024F0004F935F936F937F938F939F93AF93BF930C
:10250000EF93FF93E0919720F0919820309709F096
:102510001995FF91EF91BF91AF919F918F917F910D
:102520006F915F914F913F912F910F900BBE0F9044
:1025300009BE0F9008BE0F900FBE0F901F90189508
:102540001F920F920FB60F92112408B60F9218BE69
:1025500009B60F9219BE0BB60F921BBE2F933F9375
:102560004F935F936F937F938F939F93AF93BF939B
:10257000EF93FF93E0919520F0919620309709F02A
:102580001995FF91EF91BF91AF919F918F917F919D
:102590006F915F914F913F912F910F900BBE0F90D4
:1025A00009BE0F9008BE0F900FBE0F901F90189598
:1025B0001F920F920FB60F92112408B60F9218BEF9
:1025C00009B60F9219BE0BB60F921BBE2F933F9305
:1025D0004F935F936F937F938F939F93AF93BF932B
:1025E000EF93FF93E0919320F0919420309709F0BE
:1025F0001995FF91EF91BF91AF919F918F917F912D
:102600006F915F914F913F912F910F900BBE0F9063
:1026100009BE0F9008BE0F900FBE0F901F90189527
:102620001F920F920FB60F92112408B60F9218BE88
:1026300009B60F9219BE0BB60F921BBE2F933F9394
:102640004F935F936F937F938F939F93AF93BF93BA
:10265000EF93FF93E0919120F0919220309709F051
:102660001995FF91EF91BF91AF919F918F917F91BC
:102670006F915F914F913F912F910F900BBE0F90F3
:1026800009BE0F9008BE0F900FBE0F901F901895B7
:102690001F920F920FB60F92112408B60F9218BE18
:1026A00009B60F9219BE0BB60F921BBE2F933F9324
:1026B0004F935F936F937F938F939F93AF93BF934A
:1026C000EF93FF93E0918F20F0919020309709F0E5
:1026D0001995FF91EF91BF91AF919F918F917F914C
:1026E0006F915F914F913F912F910F900BBE0F9083
:1026F00009BE0F9008BE0F900FBE0F901F90189547
:102700001F920F920FB60F92112408B60F9218BEA7
:1027100009B60F9219BE0BB60F921BBE2F933F93B3
:102720004F935F936F937F938F939F93AF93BF93D9
:10273000EF93FF93E0918D20F0918E20309709F078
:102740001995FF91EF91BF91AF919F918F917F91DB
:102750006F915F914F913F912F910F900BBE0F9012
:1027600009BE0F9008BE0F900FBE0F901F901895D6
:102770001F920F920FB60F92112408B60F9218BE37
:1027800009B60F9219BE0BB60F921BBE2F933F9343
:102790004F935F936F937F938F939F93AF93BF9369
:1027A000EF93FF93E0918B20F0918C20309709F00C
:1027B0001995FF91EF91BF91AF919F918F917F916B
:1027C0006F915F914F913F912F910F900BBE0F90A2
:1027D00009BE0F9008BE0F900FBE0F901F90189566
:1027E0001F920F920FB60F92112408B60F9218BEC7
:1027F00009B60F9219BE0BB60F921BBE2F933F93D3
:102800004F935F936F937F938F939F93AF93BF93F8
:10281000EF93FF93E0918920F0918A20309709F09F
:102820001995FF91EF91BF91AF919F918F917F91FA
:102830006F915F914F913F912F910F900BBE0F9031
:1028400009BE0F9008BE0F900FBE0F901F901895F5
:102850001F920F920FB60F92112408B60F9218BE56
:1028600009B60F9219BE0BB60F921BBE2F933F9362
:102870004F935F936F937F938F939F93AF93BF9388
:10288000EF93FF93E0918720F0918820309709F033
:102890001995FF91EF91BF91AF919F918F917F918A
:1028A0006F915F914F913F912F910F900BBE0F90C1
:1028B00009BE0F9008BE0F900FBE0F901F90189585
:1028C0001F93CF93DF931F921F92CDB7DEB72FB721
:1028D0002A83F8941A81282F392F211588E0380788
:1028E00049F461E083E00E94CE0A64E083E00E9444
:1028F000CE0A5CC0203488E0380749F462E083E007
:102900000E94CE0A64E083E00E94CE0A4FC02115E7
:1029100089E0380749F461E084E00E94CE0A64E06F
:1029200084E00E94CE0A42C0203489E0380749F48E
:1029300062E084E00E94CE0A64E084E00E94CE0A55
:1029400035C021158AE0380749F461E085E00E942E
:10295000CE0A64E085E00E94CE0A28C020348AE0D6
:10296000380749F462E085E00E94CE0A64E085E021
:102970000E94CE0A1BC021158BE0380749F461E0A4
:1029800086E00E94CE0A64E086E00E94CE0A0EC075
:1029900020343B4049F462E086E00E94CE0A64E0C5
:1029A00086E00E94CE0A02C01FBF10C08091E220C4
:1029B0008F3F09F4FFCF8FB78983F8949981E1EEB7
:1029C000F0E281818F5F81839FBF1FBF0F900F90C7
:1029D000DF91CF911F910895811528E0920729F486
:1029E0006093D5207093D6200895803428E0920714
:1029F00029F46093C9207093CA200895811529E0B5
:102A0000920729F46093C1207093C2200895803406
:102A100029E0920729F46093B5207093B6200895B9
:102A200081152AE0920729F46093AD207093AE20BF
:102A3000089580342AE0920729F46093A1207093CE
:102A4000A220089581152BE0920729F46093992024
:102A500070939A20089580349B4021F460938D20D8
:102A600070938E2008954091CA01E62FF72F80932E
:102A7000CA0184914093CA0108951BBEFC0128ED50
:102A800024BF60830895CF93DF93FC0120E030E002
:102A9000C62FD0E0DE01022E02C0B595A7950A949C
:102AA000E2F7A0FD508B2F5F3F4F31962830310564
:102AB00089F740FF0AC041FF03C0FC01658302C0E3
:102AC000FC016683FC01618302C0FC016283DF912B
:102AD000CF91089543E050E068E080EC97E0D3DFC9
:102AE00040E058E164E080EC97E0CDCF089504C069
:102AF000615071098109910961157105810591057F
:102B0000B9F70895E0ECF7E0948188E089278483A1
:102B100008950F931F93CF93DF93CDB7DEB7289718
:102B2000CDBFDEBF29833A834B835C836D837E8375
:102B30008F8398870B811C8187E08093A200C80156
:102B4000BFDE6F817885C80147DFF8018181887F0A
:102B500081838D819E8186A397A386818C7F8683C6
:102B600086818160868378948081807F876080837E
:102B70002896CDBFDEBFDF91CF911F910F910895B1
:102B8000CF93DF93CDB7DEB72897CDBFDEBFE0ECA4
:102B9000F7E080818860808388E0EDE0F0E2DE018C
:102BA000119601900D928A95E1F729813A814B8126
:102BB0005C816D817E818F819885ABDF6CEA76EEDA
:102BC00086E991E094DF89E09DE38093260A909363
:102BD000270A2896CDBFDEBFDF91CF910895CF930E
:102BE000DF93EB010E94E5038883DF91CF91089585
:102BF0000C94DD030895CF93DF93CDB7DEB727970D
:102C0000CDBFDEBF60E185E00E94CE0AE0E8F6E0DD
:102C100080818860808380EA9AE08093DF209093AF
:102C2000E02088EF95E18093DD209093DE208FEE09
:102C300095E18093D7209093D820E6E0F0E284815C
:102C40008D8385818E8386818F8380819181A2810E
:102C5000B38189839A83AB83BC8360E185E00E9462
:102C6000CE0ABE016F5F7F4F80EA9AE00E94FE04A9
:102C700063ED71E086E89AE01AD78EE390E2B0D770
:102C800083E690E2ADD72796CDBFDEBFDF91CF912F
:102C9000089520DF0E94980AAEDFE0EAF0E087E0C6
:102CA0008283828180688283789484E790E29F9314
:102CB0008F9383D70E94E60663DF0F900F900E94E8
:102CC000F006FDCF5058BB27AA270ED048C139D1F6
:102CD00030F03ED120F031F49F3F11F41EF42EC1AC
:102CE0000EF4E095E7FB24C1E92F4AD180F3BA172F
:102CF000620773078407950718F071F49EF562C1A7
:102D00000EF4E0950B2EBA2FA02D0B01B901900106
:102D10000C01CA01A0011124FF27591B99F0593F4A
:102D200050F4503E68F11A16F040A22F232F342F92
:102D30004427585FF3CF469537952795A795F040E0
:102D40005395C9F77EF41F16BA0B620B730B840BF5
:102D5000BAF09150A1F0FF0FBB1F661F771F881FAD
:102D6000C2F70EC0BA0F621F731F841F48F4879505
:102D700077956795B795F7959E3F08F0B3CF9395F4
:102D8000880F08F09927EE0F9795879508950CD036
:102D9000E6C0DED040F0D5D030F021F45F3F19F02E
:102DA000C7C0511110C1CAC0EBD098F39923C9F321
:102DB0005523B1F3951B550BBB27AA276217730741
:102DC000840738F09F5F5F4F220F331F441FAA1FF5
:102DD000A9F333D00E2E3AF0E0E830D091505040B5
:102DE000E695001CCAF729D0FE2F27D0660F771F63
:102DF000881FBB1F261737074807AB07B0E809F045
:102E0000BB0B802DBF01FF2793585F4F2AF09E3FD9
:102E1000510568F08DC0D7C05F3FECF3983EDCF3FE
:102E2000869577956795B795F7959F5FC9F7880F52
:102E3000911D9695879597F90895E1E0660F771FA4
:102E4000881FBB1F621773078407BA0720F0621B35
:102E5000730B840BBA0BEE1F88F7E095089598D09A
:102E600088F09F5790F0B92F9927B751A0F0D1F073
:102E7000660F771F881F991F1AF0BA95C9F712C0FD
:102E8000B13081F09FD0B1E008959CC0672F782FBA
:102E90008827B85F39F0B93FCCF386957795679569
:102EA000B395D9F73EF490958095709561957F4FD5
:102EB0008F4F9F4F0895E89409C097FB3EF490957B
:102EC0008095709561957F4F8F4F9F4F9923A9F003
:102ED000F92F96E9BB279395F69587957795679592
:102EE000B795F111F8CFFAF4BB0F11F460FF1BC0D6
:102EF0006F5F7F4F8F4F9F4F16C0882311F096E969
:102F000011C0772321F09EE8872F762F05C0662316
:102F100071F096E8862F70E060E02AF09A95660FCF
:102F2000771F881FDAF7880F9695879597F9089588
:102F300097F99F6780E870E060E008959FEF80EC6C
:102F4000089500240A94161617061806090608950F
:102F500000240A9412161306140605060895092E75
:102F60000394000C11F4882352F0BB0F40F4BF2BE4
:102F700011F460FF04C06F5F7F4F8F4F9F4F089524
:102F800057FD9058440F551F59F05F3F71F047951A
:102F9000880F97FB991F61F09F3F79F087950895FF
:102FA000121613061406551FF2CF4695F1DF08C01E
:102FB000161617061806991FF1CF8695710561053B
:102FC00008940895E894BB2766277727CB0197F9E3
:102FD00008950EF0A6C0B2CF6894AACFD9DFC8F387
:102FE0009923D1F3C6F3DF93CF931F930F93FF92EF
:102FF000C92FDD2788232AF02197660F771F881FA6
:10300000DAF720E030E040E85FEB9FE3883920F01A
:10301000803E30F021968F7756DEECEFF1E003C072
:1030200052DEE9E2F2E08BD08B01BE01EC01FB2E17
:103030006F5771097595771F880B990B3EDF28E153
:1030400032E741E35FE316D0AF2D9801AE01FF9068
:103050000F911F91CF91DF9147DE81CF0BD07FCFB2
:1030600070DF28F075DF18F0952309F061CF66CF87
:103070001124A9CF85DFA0F3959FD1F3950F50E0E0
:10308000551F629FF001729FBB27F00DB11D639F1A
:10309000AA27F00DB11DAA1F649F6627B00DA11DC0
:1030A000661F829F2227B00DA11D621F739FB00D66
:1030B000A11D621F839FA00D611D221F749F3327D6
:1030C000A00D611D231F849F600D211D822F762F6F
:1030D0006A2F11249F5750408AF0E1F088234AF06C
:1030E000EE0FFF1FBB1F661F771F881F91505040B8
:1030F000A9F79E3F510570F01BCF65CF5F3FECF302
:10310000983EDCF3869577956795B795F795E795A3
:103110009F5FC1F7FE2B880F911D9695879597F9B4
:1031200008959F3F31F0915020F4879577956795EA
:10313000B795880F911D9695879597F90895DF9318
:10314000CF931F930F93FF92EF92DF927B018C013D
:10315000689405C0DA2EEF018DDFFE01E894A59199
:103160002591359145915591AEF3EF01BDDDFE01FD
:103170009701A801DA9479F7DF90EF90FF900F9113
:103180001F91CF91DF9108952F923F924F925F92BE
:103190006F927F928F929F92AF92BF92CF92DF9267
:1031A000EF92FF920F931F93CF93DF93CDB7DEB7CC
:1031B0006097CDBFDEBF7C011B016A01FC01168256
:1031C0001782838181FF2AC39E012F5F3F4F390100
:1031D000F7019381F10193FD859193FF81911F0187
:1031E000882309F417C3853239F493FD859193FF41
:1031F00081911F01853231F4B70190E0A2D45601CC
:103200006501E6CF10E0512C912CFFE1F915D8F0C3
:103210008B3279F038F4803279F08332A1F4F92DD1
:10322000F0612EC08D3261F0803369F4292D216068
:103230002DC0392D3260932E892D8460982E2AC09E
:10324000E92DE86015C097FC2DC020ED280F2A302D
:1032500088F496FE06C03AE0139F200D1124122F29
:1032600019C08AE0589E200D1124522EE92DE062EB
:103270009E2E10C08E3231F496FCCCC2F92DF06433
:103280009F2E08C08C3621F4292D2068922E02C072
:10329000883641F4F10193FD859193FF81911F01DF
:1032A0008111B3CF9BEB980F933020F4992D90614F
:1032B000805E07C09BE9980F933008F059C1992DA3
:1032C0009F7E96FF16E09F73992E853619F49064C1
:1032D000992E08C0863621F4392F3068932E02C00B
:1032E0001111115097FE07C01C3350F4442443942D
:1032F000410E27E00BC0183038F027E017E005C07A
:1033000027E09CE3492E02C0212F412C560184E086
:10331000A80EB11CF6016081718182819381042D18
:10332000A301D7D26C01F981FC87F0FF02C0F3FF43
:1033300006C091FC06C092FE06C000E205C00DE288
:1033400003C00BE201C000E08C858C7019F0011104
:1033500043C280C297FE10C04C0CFC85F4FF04C031
:103360008A81813309F44A94141474F528E02415F1
:1033700078F588E0482E2CC096FC2AC0812F90E07A
:103380008C159D059CF03CEFC3163FEFD30674F0FF
:10339000892D8068982E0AC0E2E0F0E0EC0FFD1F56
:1033A000E10FF11D8081803319F411501111F4CF18
:1033B00097FE0EC044244394410E812F90E0C8161E
:1033C000D9062CF41C1904C04424439401C010E015
:1033D00097FE06C01C141D0434F4C601019605C0F6
:1033E00085E090E002C081E090E001110196112398
:1033F00031F0212F30E02F5F3F4F820F931F252D9B
:1034000030E08217930714F4581A01C0512C892D0B
:10341000897041F4552031F0B70180E290E091D3FA
:103420005A94F8CF002321F0B701802F90E089D380
:1034300093FC08C0552031F0B70180E390E081D3C0
:103440005A94F8CF97FE4AC04601D7FE02C0812C9D
:10345000912CC60188199909F301E80FF91FED872E
:10346000FE879601241931092F87388B012F10E030
:103470001195019511093FEF8316930621F4B701C9
:103480008EE290E05ED3C814D9044CF08F85988901
:103490008815990524F4ED85FE85818101C080E3BE
:1034A000F1E08F1A91082D853E852F5F3F4F2D87C4
:1034B0003E878016910624F0B70190E042D3DBCF1F
:1034C000C814D90441F49A81963320F4953319F441
:1034D0003C8534FF81E3B70190E048C08A818133A5
:1034E00019F09C859F7E9C87B70190E02AD311112B
:1034F00005C094FC16C085E690E015C0B7018EE2C9
:1035000090E01FD31E5F82E001E0080FF301E80F97
:10351000F11D8081B70190E014D3802F0113F4CF07
:10352000E8CF85E490E0B7010CD3D7FC06C0C11406
:10353000D10441F4EC85E4FF05C0D194C194D108D5
:103540008DE201C08BE2B70190E0FBD280E32AE07C
:10355000C216D1042CF08F5FFAE0CF1AD108F7CF52
:10356000B70190E0EED2B701C601C096EAD249C1D8
:10357000833631F0833779F0833509F052C01FC0AC
:10358000560132E0A30EB11CF6018081898301E06F
:1035900010E0630111C05601F2E0AF0EB11CF6015C
:1035A000C080D18096FE03C0612F70E002C06FEF33
:1035B0007FEFC60171D28C01F92DFF7713C0560140
:1035C00022E0A20EB11CF601C080D18096FE03C09D
:1035D000612F70E002C06FEF7FEFC60152D28C0105
:1035E000F92DF0689F2EF3FD18C0852D90E0081787
:1035F000190798F4B70180E290E0A3D25A94F5CF6E
:10360000F60197FC859197FE81916F01B70190E0DB
:1036100098D251105A94015011090115110581F7E2
:10362000F0C0843611F0893659F5560197FE09C06D
:1036300024E0A20EB11CF601608171818281938128
:103640000AC0F2E0AF0EB11CF60160817181072E55
:10365000000C880B990BF92DFF769F2E97FF09C060
:1036600090958095709561957F4F8F4F9F4FF06833
:103670009F2E2AE030E0A301E3D2C82EC6183EC038
:10368000092D853721F40F7E2AE030E01DC0097F27
:103690008F3691F018F4883559F0BCC0803719F096
:1036A000883711F0B7C0006104FF09C0046007C08B
:1036B00094FE08C0066006C028E030E005C020E1A6
:1036C00030E002C020E132E0560107FF09C084E08B
:1036D000A80EB11CF601608171818281938108C0BE
:1036E000F2E0AF0EB11CF6016081718180E090E0E4
:1036F000A301A6D2C82EC6180F77902E96FE0BC037
:10370000092D0E7FC11650F494FE0AC092FC08C029
:10371000092D0E7E05C0DC2C092D03C0DC2C01C058
:10372000D12E04FF0DC0FE01EC0DF11D8081803310
:1037300011F4097E09C002FF06C0D394D39404C0DB
:10374000802F867809F0D39403FD10C000FF06C0D7
:103750001C2DD51478F4150D1D190CC0D51450F47A
:10376000B70180E290E0EDD1D394F8CFD51410F4F6
:103770005D1801C0512C04FF0FC0B70180E390E039
:10378000E0D102FF16C001FD03C088E790E002C04F
:1037900088E590E0B7010CC0802F867851F001FFDA
:1037A00002C08BE201C080E207FD8DE2B70190E02C
:1037B000C8D1C11630F4B70180E390E0C2D11150F6
:1037C000F8CFCA94F301EC0DF11D8081B70190E0B0
:1037D000B8D1C110F6CF15C0F4E0F51550F584E06E
:1037E000581A93FE1EC0011125C02C8523FF27C047
:1037F00006E512E0392D3071932EF8018491811184
:1038000021C0552009F4FCCCB70180E290E099D1A9
:103810005A94F7CFF7018681978123C08FEF9FEFEE
:1038200020C0B70180E290E08CD15A945110F9CFBA
:10383000DACF512CB701802F90E083D1D6CF0AE5A3
:1038400012E0D8CF91108052B70190E07AD10F5F8B
:103850001F4FD3CF23E0251510F483E0C1CF512CA7
:10386000C4CF6096CDBFDEBFDF91CF911F910F9186
:10387000FF90EF90DF90CF90BF90AF909F908F9090
:103880007F906F905F904F903F902F900895A1E2AE
:103890001A2EAA1BBB1BFD010DC0AA1FBB1FEE1FCA
:1038A000FF1FA217B307E407F50720F0A21BB30B15
:1038B000E40BF50B661F771F881F991F1A9469F791
:1038C00060957095809590959B01AC01BD01CF01ED
:1038D0000895283008F027E03327DA01990F311DC9
:1038E00087FD916000966105710539F432602E5FA5
:1038F0003D9330E32A95E1F708959F3F30F08038FB
:103900007105610509F03C5F3C5F3D93913008F023
:103910008068911DDF93CF931F930F93FF92EF92D7
:10392000192F987F9695E92F96959695E90FFF2781
:10393000E854FD4F99273327EE24FF24A701E70120
:1039400005900894079428F4360FE71EF81E491FC7
:10395000511D660F771F881F991F0694A1F70590C8
:10396000079428F4E70EF81E491F561FC11D770F54
:10397000881F991F661F0694A1F70590079428F4E5
:10398000F80E491F561FC71FD11D880F991F661FAC
:10399000771F0694A1F70590079420F4490F561F4E
:1039A000C71FD81F990F661F771F881F0694A9F796
:1039B00084911095177041F0D695C7955795479506
:1039C000F794E7941A95C1F7EEE5F2E06894159044
:1039D000159135916591959105907FE27395E11868
:1039E000F10A430B560BC90BD009C0F7E10CF11ECD
:1039F000431F561FC91FD01D7EF4703311F48A95E2
:103A0000E6CFE894015030F0080F0AF400270217BF
:103A100008F4202F2395022F7A3328F079E37D9341
:103A20002A95E9F710C07D932A9589F60694979513
:103A30006795379517951794E118F10A430B560BC4
:103A4000C90BD00998F023957E9173957A3308F0CD
:103A500070E37C932013B8F77E9170617D9330F012
:103A6000839571E37D9370E32A95E1F71124EF903C
:103A7000FF900F911F91CF91DF91992787FD90952E
:103A80000895FC010590615070400110D8F78095B1
:103A900090958E0F9F1F0895FC016150704001901A
:103AA0000110D8F7809590958E0F9F1F08950F9362
:103AB0001F93CF93DF93009731F46115710519F4CB
:103AC00080E090E039C08B01EC016EE070E081E0B5
:103AD00090E014D1FC01892B99F380E883830115D0
:103AE000110571F00287138781E883838091EF20AD
:103AF0009091F020892B21F4E093EF20F093F020B7
:103B00002097C9F0C087D1878381826083838091A9
:103B1000F1209091F220892B71F4E093F120F09341
:103B2000F2208091F3209091F420892B21F4E093EE
:103B3000F320F093F420CF01DF91CF911F910F91EB
:103B400008950F931F93CF93DF93FB01238121FDF2
:103B500003C08FEF9FEF2CC022FF16C04681578114
:103B6000248135814217530744F4A081B1819D011E
:103B70002F5F3F4F208331838C93268137812F5FC6
:103B80003F4F2683378314C08B01EC01FB01008477
:103B9000F185E02D1995892BE1F6D80116968D91C6
:103BA0009C911797019616968D939C931797CE012B
:103BB000DF91CF911F910F910895CF93DF93CDB7F0
:103BC000DEB7AE014A5F5F4FFA0161917191AF01BB
:103BD0008091F1209091F220D7DADF91CF91089572
:103BE0000F931F93CF93DF93E091F120F091F22098
:103BF000238121FF1BC08C01D0E0C0E0F80181913E
:103C00008F016091F1207091F220DB011896ED9107
:103C1000FC911997882331F01995892B79F3DFEFFF
:103C2000CFEFECCF8AE01995892B19F08FEF9FEF3A
:103C300002C08D2F9C2FDF91CF911F910F9108957E
:103C4000FA01AA27283051F1203181F1E8946F93CD
:103C50006E7F6E5F7F4F8F4F9F4FAF4FB1E03ED073
:103C6000B4E03CD0670F781F891F9A1FA11D680F11
:103C7000791F8A1F911DA11D6A0F711D811D911D44
:103C8000A11D20D009F468943F912AE0269F1124B9
:103C90003019305D3193DEF6CF010895462F47701D
:103CA000405D4193B3E00FD0C9F7F6CF462F4F7078
:103CB000405D4A3318F0495D31FD4052419302D0D6
:103CC000A9F7EACFB4E0A69597958795779567957C
:103CD000BA95C9F700976105710508959B01AC017C
:103CE0000A2E06945795479537952795BA95C9F7A3
:103CF000620F731F841F951FA01D08950F931F93BC
:103D0000CF93DF93869F8001879F100D969F100DA4
:103D10001124C8010DD0EC01009721F0A80160E04A
:103D200070E027D1CE01DF91CF911F910F910895BF
:103D30000F931F93CF93DF938230910510F482E0AD
:103D400090E0E091F720F091F82020E030E0A0E052
:103D5000B0E0309719F140815181028113814817F9
:103D60005907C8F08417950769F4109731F0129637
:103D70000C93129713961C9327C00093F72010936F
:103D8000F82022C02115310519F04217530718F405
:103D90009A01BD01EF01DF01F801DBCF21153105EB
:103DA000F9F0281B390B2430310580F48A819B817E
:103DB0006115710521F0FB018283938304C0809318
:103DC000F7209093F820FE01329644C0FE01E20FE6
:103DD000F31F8193919322503109288339833AC08C
:103DE0002091F5203091F620232B41F420910220E0
:103DF000309103202093F5203093F620209100206D
:103E0000309101202115310541F42DB73EB7409185
:103E1000042050910520241B350BE091F520F091F2
:103E2000F620E217F307A0F42E1B3F0B28173907E3
:103E300078F0AC014E5F5F4F2417350748F04E0F06
:103E40005F1F4093F5205093F6208193919302C019
:103E5000E0E0F0E0CF01DF91CF911F910F91089545
:103E6000CF93DF93009709F481C0FC01329712824F
:103E70001382A091F720B091F820109781F420814F
:103E80003181820F931F2091F5203091F620281761
:103E9000390751F5E093F520F093F62067C0ED0166
:103EA00020E030E0CE17DF0740F44A815B819E01BD
:103EB00041155105F1F0EA01F5CFC283D38340816A
:103EC0005181840F951FC817D90759F488819981AA
:103ED000840F951F0296808391838A819B818283C0
:103EE00093832115310529F4E093F720F093F8200E
:103EF0003DC0E901EA83FB8349915991C40FD51F65
:103F0000EC17FD0761F480819181840F951F029663
:103F1000E90188839983828193818A839B83E0E08E
:103F2000F0E012968D919C911397009719F0FD0186
:103F3000DC01F7CF8D919C9111979D012E5F3F4F32
:103F4000820F931F2091F5203091F6202817390712
:103F500069F4309729F41092F7201092F82002C0EB
:103F600012821382A093F520B093F620DF91CF91B7
:103F70000895DC0101C06D9341505040E0F7089571
:043F8000F894FFCFE3
:103F84000000F920200000C20100030001800600A7
:103F94000A127A8215546865726D6973746F72209F
:103FA400496E697469616C697A65642E0074656D23
:103FB400703A2025332E32660A0025690A000A0A5F
:103FC4000A0A0A43616E7361742056616C6B7972DC
:103FD400696520496E697469616C697A696E672ED6
:103FE4002E2E005541525420496E697469616C69E2
:0A3FF4007A656400752047617900CA
:00000001FF
