S019000056616C6B7972696550726F746F747970652E73726563EE
S1130000FDC0000021C100001FC100001DC100008F
S11300101BC1000019C1000017C1000015C1000078
S113002013C1000011C1000057C4000078C40000CF
S11300300BC10000A1C10000F6C400002CC50000E3
S113004062C5000098C50000CEC5000004C60000CB
S11300503AC6000070C60000A6C60000DCC6000058
S1130060F3C00000F1C00000EFC00000EDC00000CC
S1130070EBC00000E9C00000E7C00000E5C00000DC
S1130080E3C00000E1C00000DFC00000DDC00000EC
S1130090DBC00000D9C00000D7C0000029C30000A5
S11300A064C300009FC30000DAC30000CDC0000099
S11300B0CBC00000C9C00000C3C100000C94730988
S11300C00C94AB090C94E3090C941B0A0C94530A8A
S11300D00C948B0A0C94C30A0C94FB0A0C94330BF7
S11300E00C946B0BB1C00000AFC00000ADC00000A9
S11300F0ABC00000A9C00000A7C00000A5C000005C
S1130100A3C00000A1C000009FC000009DC000006B
S11301109BC0000099C0000097C00000F5C100001A
S113012030C200006BC20000A6C200008DC00000F7
S113013055C10000A8C60000DEC6000014C70000B8
S11301404AC7000080C70000B6C70000ECC7000023
S11301500C94CB080C9403090C943B0975C0000063
S113016073C0000071C000006FC000006DC00000CB
S11301706BC0000069C0000067C0000065C00000DB
S113018063C0000061C000005FC000005DC00000EB
S11301905BC0000059C0000057C0000055C00000FB
S11301A053C0000051C000004FC000007BC10000DC
S11301B00C94A30B0C94DB0B0C94130C0C944B0CB1
S11301C00C94830C0C94BB0C0C94F30C0C942B0D1E
S11301D00C94630D0C949B0D37C0000035C00000D7
S11301E033C0000031C000002FC000002DC000004B
S11301F02BC0000029C0000027C0000011241FBE2E
S1130200CFEFCDBFDFE3DEBF00E00CBF18BE19BEE9
S11302101ABE1BBE10E2A0E0B0E2E8E2FCE100E09E
S11302200BBF02C007900D92A030B107D9F71BBED7
S113023020E2A0E0B0E201C01D92A736B207E1F7C8
S11302400E94070E0C94120EDBCECF93DF93E09145
S11302500020F0910120848183FF08C0886084839A
S113026083E0838386EF80930A2083C0982F947160
S113027031F083E083838FEF80930A207AC086FF76
S113028043C0C0E0D0E2AA81BB818C819D811496D9
S11302902D913C911597821793076CF49C012F5F65
S11302A03F4F2093042030930520A80FB91F1196C7
S11302B08C9187835EC080910620909107201896C8
S11302C02D913C91199782179307C8F42091082027
S11302D0222321F08681816086834BC016962D915E
S11302E03C911797AC014F5F5F4F409306205093AA
S11302F00720D901A80FB91F8C9187833AC083E0E6
S1130300838310920A2035C0882384F5A0E0B0E2EC
S11303101296CD91DC91139716968D919C91179717
S11303202885398582179307D8F46E817F819C01D3
S11303302F5F3F4F20930620309307204781DB0136
S1130340A80FB91F4C93888599852817390718F485
S113035082E083830EC087E0838310920A2009C061
S113036083E0838389EF80930A2003C08BEF80931B
S11303700A20DF91CF9108951F920F920FB60F922A
S1130380112408B60F9218BE09B60F9219BE0BB607
S11303900F921BBE2F933F934F935F936F937F9363
S11303A08F939F93AF93BF93EF93FF934EDFFF9190
S11303B0EF91BF91AF919F918F917F916F915F91D9
S11303C04F913F912F910F900BBE0F9009BE0F904C
S11303D008BE0F900FBE0F901F9018951F920F929A
S11303E00FB60F92112408B60F9218BE09B60F92D9
S11303F019BE0BB60F921BBE2F933F934F935F937F
S11304006F937F938F939F93AF93BF93EF93FF93D8
S11304101CDFFF91EF91BF91AF919F918F917F91DD
S11304206F915F914F913F912F910F900BBE0F9061
S113043009BE0F9008BE0F900FBE0F901F90189525
S11304401F920F920FB60F92112408B60F9218BE86
S113045009B60F9219BE0BB60F921BBE2F933F9392
S11304604F935F936F937F938F939F93AF93BF93B8
S1130470EF93FF93EADEFF91EF91BF91AF919F91CC
S11304808F917F916F915F914F913F912F910F9039
S11304900BBE0F9009BE0F9008BE0F900FBE0F90B9
S11304A01F9018951F920F920FB60F92112408B641
S11304B00F9218BE09B60F9219BE0BB60F921BBE4F
S11304C02F933F934F935F936F937F938F939F9358
S11304D0AF93BF93EF93FF93B8DEFF91EF91BF917A
S11304E0AF919F918F917F916F915F914F913F91C8
S11304F02F910F900BBE0F9009BE0F9008BE0F9066
S11305000FBE0F901F9018951F920F920FB60F9267
S1130510112408B60F9218BE09B60F9219BE0BB675
S11305200F921BBE2F933F934F935F936F937F93D1
S11305308F939F93AF93BF93EF93FF9340912402C4
S113054050912502E0915D20F0915E2061E080E011
S113055092E01995FF91EF91BF91AF919F918F9187
S11305607F916F915F914F913F912F910F900BBEAF
S11305700F9009BE0F9008BE0F900FBE0F901F90F2
S113058018951F920F920FB60F92112408B60F926E
S113059018BE09B60F9219BE0BB60F921BBE2F934D
S11305A03F934F935F936F937F938F939F93AF93F7
S11305B0BF93EF93FF9340912C0250912D02E09151
S11305C05D20F0915E2062E080E092E01995FF9159
S11305D0EF91BF91AF919F918F917F916F915F91B7
S11305E04F913F912F910F900BBE0F9009BE0F902A
S11305F008BE0F900FBE0F901F9018951F920F9278
S11306000FB60F92112408B60F9218BE09B60F92B6
S113061019BE0BB60F921BBE2F933F934F935F935C
S11306206F937F938F939F93AF93BF93EF93FF93B6
S11306304091340250913502E0915D20F0915E20AA
S113064064E080E092E01995FF91EF91BF91AF9142
S11306509F918F917F916F915F914F913F912F91D6
S11306600F900BBE0F9009BE0F9008BE0F900FBEE7
S11306700F901F9018951F920F920FB60F9211248E
S113068008B60F9218BE09B60F9219BE0BB60F9298
S11306901BBE2F933F934F935F936F937F938F93DF
S11306A09F93AF93BF93EF93FF9340913C0250917C
S11306B03D02E0915D20F0915E2068E080E092E0F0
S11306C01995FF91EF91BF91AF919F918F917F9178
S11306D06F915F914F913F912F910F900BBE0F90AF
S11306E009BE0F9008BE0F900FBE0F901F90189573
S11306F01F920F920FB60F92112408B60F9218BED4
S113070009B60F9219BE0BB60F921BBE2F933F93DF
S11307104F935F936F937F938F939F93AF93BF9305
S1130720EF93FF934091640250916502E0915B2046
S1130730F0915C2061E080E492E01995FF91EF91E3
S1130740BF91AF919F918F917F916F915F914F91E5
S11307503F912F910F900BBE0F9009BE0F9008BED2
S11307600F900FBE0F901F9018951F920F920FB607
S11307700F92112408B60F9218BE09B60F9219BE33
S11307800BB60F921BBE2F933F934F935F936F93C0
S11307907F938F939F93AF93BF93EF93FF93409176
S11307A06C0250916D02E0915B20F0915C2062E05C
S11307B080E492E01995FF91EF91BF91AF919F91E1
S11307C08F917F916F915F914F913F912F910F90F6
S11307D00BBE0F9009BE0F9008BE0F900FBE0F9076
S11307E01F9018951F920F920FB60F92112408B6FE
S11307F00F9218BE09B60F9219BE0BB60F921BBE0C
S11308002F933F934F935F936F937F938F939F9314
S1130810AF93BF93EF93FF9340917402509175028D
S1130820E0915B20F0915C2064E080E492E0199513
S1130830FF91EF91BF91AF919F918F917F916F91B4
S11308405F914F913F912F910F900BBE0F9009BE76
S11308500F9008BE0F900FBE0F901F9018951F9217
S11308600F920FB60F92112408B60F9218BE09B654
S11308700F9219BE0BB60F921BBE2F933F934F934B
S11308805F936F937F938F939F93AF93BF93EF93F4
S1130890FF9340917C0250917D02E0915B20F091A6
S11308A05C2068E080E492E01995FF91EF91BF919C
S11308B0AF919F918F917F916F915F914F913F91F4
S11308C02F910F900BBE0F9009BE0F9008BE0F9092
S11308D00FBE0F901F9018951F920F920FB60F9294
S11308E0112408B60F9218BE0BB60F921BBE8F933D
S11308F09F93EF93FF93EFE5F0E28081918101965E
S113090080839183FF91EF919F918F910F900BBE04
S11309100F9008BE0F900FBE0F901F9018951F9256
S11309200F920FB60F92112408B60F9218BE09B693
S11309300F9219BE0BB60F921BBECF92DF92EF92AD
S1130940FF920F931F932F933F934F935F936F9354
S11309507F938F939F93AF93BF93EF93FF93EFE5B1
S1130960F0E2808191812281338182179307F0F133
S113097021E020930204E0916520F09166203097F5
S1130980A9F16091080470910904A0E0B0E0DC01D1
S113099099278827AB0160E070E08C019D01042B4E
S11309A0152B262B372BC901B801AFE5B0E21296FF
S11309B00D911C91139720E030E098011127002736
S11309C01496CD90DC901597E12CF12C0C291D295F
S11309D02E293F29061717072807390730F0C901C0
S11309E0B8016F5F7F4F8F4F9F4F1995FF91EF9124
S11309F0BF91AF919F918F917F916F915F914F9133
S1130A003F912F911F910F91FF90EF90DF90CF9026
S1130A100F900BBE0F9009BE0F9008BE0F900FBE33
S1130A200F901F9018951F920F920FB60F921124DA
S1130A3008B60F9218BE09B60F9219BE0BB60F92E4
S1130A401BBE2F933F934F935F936F937F938F932B
S1130A509F93AF93BF93EF93FF93E0915920F0914D
S1130A605A20309709F01995FF91EF91BF91AF91FA
S1130A709F918F917F916F915F914F913F912F91B2
S1130A800F900BBE0F9009BE0F9008BE0F900FBEC3
S1130A900F901F9018951F920F920FB60F9211246A
S1130AA008B60F9218BE09B60F9219BE0BB60F9274
S1130AB01BBE2F933F934F935F936F937F938F93BB
S1130AC09F93AF93BF93EF93FF93E0915720F091DF
S1130AD05820309709F01995FF91EF91BF91AF918C
S1130AE09F918F917F916F915F914F913F912F9142
S1130AF00F900BBE0F9009BE0F9008BE0F900FBE53
S1130B000F901F9018951F920F920FB60F921124F9
S1130B1008B60F9218BE09B60F9219BE0BB60F9203
S1130B201BBE2F933F934F935F936F937F938F934A
S1130B309F93AF93BF93EF93FF93E0915520F09170
S1130B405620309709F01995FF91EF91BF91AF911D
S1130B509F918F917F916F915F914F913F912F91D1
S1130B600F900BBE0F9009BE0F9008BE0F900FBEE2
S1130B700F901F9018951F920F920FB60F92112489
S1130B8008B60F9218BE09B60F9219BE0BB60F9293
S1130B901BBE2F933F934F935F936F937F938F93DA
S1130BA09F93AF93BF93EF93FF93E0915320F09102
S1130BB05420309709F01995FF91EF91BF91AF91AF
S1130BC09F918F917F916F915F914F913F912F9161
S1130BD00F900BBE0F9009BE0F9008BE0F900FBE72
S1130BE00F901F9018951F920F920FB60F92112419
S1130BF008B60F9218BE09B60F9219BE0BB60F9223
S1130C001BBE2F933F934F935F936F937F938F9369
S1130C109F93AF93BF93EF93FF93E0915120F09193
S1130C205220309709F01995FF91EF91BF91AF9140
S1130C309F918F917F916F915F914F913F912F91F0
S1130C400F900BBE0F9009BE0F9008BE0F900FBE01
S1130C500F901F9018951F920F920FB60F921124A8
S1130C6008B60F9218BE09B60F9219BE0BB60F92B2
S1130C701BBE2F933F934F935F936F937F938F93F9
S1130C809F93AF93BF93EF93FF93E0914F20F09125
S1130C905020309709F01995FF91EF91BF91AF91D2
S1130CA09F918F917F916F915F914F913F912F9180
S1130CB00F900BBE0F9009BE0F9008BE0F900FBE91
S1130CC00F901F9018951F920F920FB60F92112438
S1130CD008B60F9218BE09B60F9219BE0BB60F9242
S1130CE01BBE2F933F934F935F936F937F938F9389
S1130CF09F93AF93BF93EF93FF93E0914D20F091B7
S1130D004E20309709F01995FF91EF91BF91AF9163
S1130D109F918F917F916F915F914F913F912F910F
S1130D200F900BBE0F9009BE0F9008BE0F900FBE20
S1130D300F901F9018951F920F920FB60F921124C7
S1130D4008B60F9218BE09B60F9219BE0BB60F92D1
S1130D501BBE2F933F934F935F936F937F938F9318
S1130D609F93AF93BF93EF93FF93E0914B20F09148
S1130D704C20309709F01995FF91EF91BF91AF91F5
S1130D809F918F917F916F915F914F913F912F919F
S1130D900F900BBE0F9009BE0F9008BE0F900FBEB0
S1130DA00F901F9018951F920F920FB60F92112457
S1130DB008B60F9218BE09B60F9219BE0BB60F9261
S1130DC01BBE2F933F934F935F936F937F938F93A8
S1130DD09F93AF93BF93EF93FF93E0914920F091DA
S1130DE04A20309709F01995FF91EF91BF91AF9187
S1130DF09F918F917F916F915F914F913F912F912F
S1130E000F900BBE0F9009BE0F9008BE0F900FBE3F
S1130E100F901F9018951F920F920FB60F921124E6
S1130E2008B60F9218BE09B60F9219BE0BB60F92F0
S1130E301BBE2F933F934F935F936F937F938F9337
S1130E409F93AF93BF93EF93FF93E0914720F0916B
S1130E504820309709F01995FF91EF91BF91AF9118
S1130E609F918F917F916F915F914F913F912F91BE
S1130E700F900BBE0F9009BE0F9008BE0F900FBECF
S1130E800F901F9018951F920F920FB60F92112476
S1130E9008B60F9218BE09B60F9219BE0BB60F9280
S1130EA01BBE2F933F934F935F936F937F938F93C7
S1130EB09F93AF93BF93EF93FF93E0914520F091FD
S1130EC04620309709F01995FF91EF91BF91AF91AA
S1130ED09F918F917F916F915F914F913F912F914E
S1130EE00F900BBE0F9009BE0F9008BE0F900FBE5F
S1130EF00F901F9018951F920F920FB60F92112406
S1130F0008B60F9218BE09B60F9219BE0BB60F920F
S1130F101BBE2F933F934F935F936F937F938F9356
S1130F209F93AF93BF93EF93FF93E0914320F0918E
S1130F304420309709F01995FF91EF91BF91AF913B
S1130F409F918F917F916F915F914F913F912F91DD
S1130F500F900BBE0F9009BE0F9008BE0F900FBEEE
S1130F600F901F9018951F920F920FB60F92112495
S1130F7008B60F9218BE09B60F9219BE0BB60F929F
S1130F801BBE2F933F934F935F936F937F938F93E6
S1130F909F93AF93BF93EF93FF93E0914120F09120
S1130FA04220309709F01995FF91EF91BF91AF91CD
S1130FB09F918F917F916F915F914F913F912F916D
S1130FC00F900BBE0F9009BE0F9008BE0F900FBE7E
S1130FD00F901F9018951F920F920FB60F92112425
S1130FE008B60F9218BE09B60F9219BE0BB60F922F
S1130FF01BBE2F933F934F935F936F937F938F9376
S11310009F93AF93BF93EF93FF93E0913F20F091B1
S11310104020309709F01995FF91EF91BF91AF915E
S11310209F918F917F916F915F914F913F912F91FC
S11310300F900BBE0F9009BE0F9008BE0F900FBE0D
S11310400F901F9018951F920F920FB60F921124B4
S113105008B60F9218BE09B60F9219BE0BB60F92BE
S11310601BBE2F933F934F935F936F937F938F9305
S11310709F93AF93BF93EF93FF93E0913D20F09143
S11310803E20309709F01995FF91EF91BF91AF91F0
S11310909F918F917F916F915F914F913F912F918C
S11310A00F900BBE0F9009BE0F9008BE0F900FBE9D
S11310B00F901F9018951F920F920FB60F92112444
S11310C008B60F9218BE09B60F9219BE0BB60F924E
S11310D01BBE2F933F934F935F936F937F938F9395
S11310E09F93AF93BF93EF93FF93E0913B20F091D5
S11310F03C20309709F01995FF91EF91BF91AF9182
S11311009F918F917F916F915F914F913F912F911B
S11311100F900BBE0F9009BE0F9008BE0F900FBE2C
S11311200F901F9018951F920F920FB60F921124D3
S113113008B60F9218BE09B60F9219BE0BB60F92DD
S11311401BBE2F933F934F935F936F937F938F9324
S11311509F93AF93BF93EF93FF93E0913920F09166
S11311603A20309709F01995FF91EF91BF91AF9113
S11311709F918F917F916F915F914F913F912F91AB
S11311800F900BBE0F9009BE0F9008BE0F900FBEBC
S11311900F901F9018951F920F920FB60F92112463
S11311A008B60F9218BE09B60F9219BE0BB60F926D
S11311B01BBE2F933F934F935F936F937F938F93B4
S11311C09F93AF93BF93EF93FF93E0913720F091F8
S11311D03820309709F01995FF91EF91BF91AF91A5
S11311E09F918F917F916F915F914F913F912F913B
S11311F00F900BBE0F9009BE0F9008BE0F900FBE4C
S11312000F901F9018951F920F920FB60F921124F2
S113121008B60F9218BE09B60F9219BE0BB60F92FC
S11312201BBE2F933F934F935F936F937F938F9343
S11312309F93AF93BF93EF93FF93E0913520F09189
S11312403620309709F01995FF91EF91BF91AF9136
S11312509F918F917F916F915F914F913F912F91CA
S11312600F900BBE0F9009BE0F9008BE0F900FBEDB
S11312700F901F9018951F920F920FB60F92112482
S113128008B60F9218BE09B60F9219BE0BB60F928C
S11312901BBE2F933F934F935F936F937F938F93D3
S11312A09F93AF93BF93EF93FF93E0913320F0911B
S11312B03420309709F01995FF91EF91BF91AF91C8
S11312C09F918F917F916F915F914F913F912F915A
S11312D00F900BBE0F9009BE0F9008BE0F900FBE6B
S11312E00F901F9018951F920F920FB60F92112412
S11312F008B60F9218BE09B60F9219BE0BB60F921C
S11313001BBE2F933F934F935F936F937F938F9362
S11313109F93AF93BF93EF93FF93E0913120F091AC
S11313203220309709F01995FF91EF91BF91AF9159
S11313309F918F917F916F915F914F913F912F91E9
S11313400F900BBE0F9009BE0F9008BE0F900FBEFA
S11313500F901F9018951F920F920FB60F921124A1
S113136008B60F9218BE09B60F9219BE0BB60F92AB
S11313701BBE2F933F934F935F936F937F938F93F2
S11313809F93AF93BF93EF93FF93E0912F20F0913E
S11313903020309709F01995FF91EF91BF91AF91EB
S11313A09F918F917F916F915F914F913F912F9179
S11313B00F900BBE0F9009BE0F9008BE0F900FBE8A
S11313C00F901F9018951F920F920FB60F92112431
S11313D008B60F9218BE09B60F9219BE0BB60F923B
S11313E01BBE2F933F934F935F936F937F938F9382
S11313F09F93AF93BF93EF93FF93E0912D20F091D0
S11314002E20309709F01995FF91EF91BF91AF917C
S11314109F918F917F916F915F914F913F912F9108
S11314200F900BBE0F9009BE0F9008BE0F900FBE19
S11314300F901F9018951F920F920FB60F921124C0
S113144008B60F9218BE09B60F9219BE0BB60F92CA
S11314501BBE2F933F934F935F936F937F938F9311
S11314609F93AF93BF93EF93FF93E0912B20F09161
S11314702C20309709F01995FF91EF91BF91AF910E
S11314809F918F917F916F915F914F913F912F9198
S11314900F900BBE0F9009BE0F9008BE0F900FBEA9
S11314A00F901F9018951F920F920FB60F92112450
S11314B008B60F9218BE09B60F9219BE0BB60F925A
S11314C01BBE2F933F934F935F936F937F938F93A1
S11314D09F93AF93BF93EF93FF93E0912920F091F3
S11314E02A20309709F01995FF91EF91BF91AF91A0
S11314F09F918F917F916F915F914F913F912F9128
S11315000F900BBE0F9009BE0F9008BE0F900FBE38
S11315100F901F9018951F920F920FB60F921124DF
S113152008B60F9218BE09B60F9219BE0BB60F92E9
S11315301BBE2F933F934F935F936F937F938F9330
S11315409F93AF93BF93EF93FF93E0912720F09184
S11315502820309709F01995FF91EF91BF91AF9131
S11315609F918F917F916F915F914F913F912F91B7
S11315700F900BBE0F9009BE0F9008BE0F900FBEC8
S11315800F901F9018951F920F920FB60F9211246F
S113159008B60F9218BE09B60F9219BE0BB60F9279
S11315A01BBE2F933F934F935F936F937F938F93C0
S11315B09F93AF93BF93EF93FF93E0912520F09116
S11315C02620309709F01995FF91EF91BF91AF91C3
S11315D09F918F917F916F915F914F913F912F9147
S11315E00F900BBE0F9009BE0F9008BE0F900FBE58
S11315F00F901F9018951F920F920FB60F921124FF
S113160008B60F9218BE09B60F9219BE0BB60F9208
S11316101BBE2F933F934F935F936F937F938F934F
S11316209F93AF93BF93EF93FF93E0912320F091A7
S11316302420309709F01995FF91EF91BF91AF9154
S11316409F918F917F916F915F914F913F912F91D6
S11316500F900BBE0F9009BE0F9008BE0F900FBEE7
S11316600F901F9018951F920F920FB60F9211248E
S113167008B60F9218BE09B60F9219BE0BB60F9298
S11316801BBE2F933F934F935F936F937F938F93DF
S11316909F93AF93BF93EF93FF93E0912120F09139
S11316A02220309709F01995FF91EF91BF91AF91E6
S11316B09F918F917F916F915F914F913F912F9166
S11316C00F900BBE0F9009BE0F9008BE0F900FBE77
S11316D00F901F9018951F920F920FB60F9211241E
S11316E008B60F9218BE09B60F9219BE0BB60F9228
S11316F01BBE2F933F934F935F936F937F938F936F
S11317009F93AF93BF93EF93FF93E0911F20F091CA
S11317102020309709F01995FF91EF91BF91AF9177
S11317209F918F917F916F915F914F913F912F91F5
S11317300F900BBE0F9009BE0F9008BE0F900FBE06
S11317400F901F9018951F920F920FB60F921124AD
S113175008B60F9218BE09B60F9219BE0BB60F92B7
S11317601BBE2F933F934F935F936F937F938F93FE
S11317709F93AF93BF93EF93FF93E0911D20F0915C
S11317801E20309709F01995FF91EF91BF91AF9109
S11317909F918F917F916F915F914F913F912F9185
S11317A00F900BBE0F9009BE0F9008BE0F900FBE96
S11317B00F901F9018951F920F920FB60F9211243D
S11317C008B60F9218BE09B60F9219BE0BB60F9247
S11317D01BBE2F933F934F935F936F937F938F938E
S11317E09F93AF93BF93EF93FF93E0911B20F091EE
S11317F01C20309709F01995FF91EF91BF91AF919B
S11318009F918F917F916F915F914F913F912F9114
S11318100F900BBE0F9009BE0F9008BE0F900FBE25
S11318200F901F9018951F920F920FB60F921124CC
S113183008B60F9218BE09B60F9219BE0BB60F92D6
S11318401BBE2F933F934F935F936F937F938F931D
S11318509F93AF93BF93EF93FF93E0911920F0917F
S11318601A20309709F01995FF91EF91BF91AF912C
S11318709F918F917F916F915F914F913F912F91A4
S11318800F900BBE0F9009BE0F9008BE0F900FBEB5
S11318900F901F9018951F920F920FB60F9211245C
S11318A008B60F9218BE09B60F9219BE0BB60F9266
S11318B01BBE2F933F934F935F936F937F938F93AD
S11318C09F93AF93BF93EF93FF93E0911720F09111
S11318D01820309709F01995FF91EF91BF91AF91BE
S11318E09F918F917F916F915F914F913F912F9134
S11318F00F900BBE0F9009BE0F9008BE0F900FBE45
S11319000F901F9018951F920F920FB60F921124EB
S113191008B60F9218BE09B60F9219BE0BB60F92F5
S11319201BBE2F933F934F935F936F937F938F933C
S11319309F93AF93BF93EF93FF93E0911520F091A2
S11319401620309709F01995FF91EF91BF91AF914F
S11319509F918F917F916F915F914F913F912F91C3
S11319600F900BBE0F9009BE0F9008BE0F900FBED4
S11319700F901F9018951F920F920FB60F9211247B
S113198008B60F9218BE09B60F9219BE0BB60F9285
S11319901BBE2F933F934F935F936F937F938F93CC
S11319A09F93AF93BF93EF93FF93E0911320F09134
S11319B01420309709F01995FF91EF91BF91AF91E1
S11319C09F918F917F916F915F914F913F912F9153
S11319D00F900BBE0F9009BE0F9008BE0F900FBE64
S11319E00F901F9018951F920F920FB60F9211240B
S11319F008B60F9218BE09B60F9219BE0BB60F9215
S1131A001BBE2F933F934F935F936F937F938F935B
S1131A109F93AF93BF93EF93FF93E0911120F091C5
S1131A201220309709F01995FF91EF91BF91AF9172
S1131A309F918F917F916F915F914F913F912F91E2
S1131A400F900BBE0F9009BE0F9008BE0F900FBEF3
S1131A500F901F9018951F920F920FB60F9211249A
S1131A6008B60F9218BE09B60F9219BE0BB60F92A4
S1131A701BBE2F933F934F935F936F937F938F93EB
S1131A809F93AF93BF93EF93FF93E0910F20F09157
S1131A901020309709F01995FF91EF91BF91AF9104
S1131AA09F918F917F916F915F914F913F912F9172
S1131AB00F900BBE0F9009BE0F9008BE0F900FBE83
S1131AC00F901F9018951F920F920FB60F9211242A
S1131AD008B60F9218BE09B60F9219BE0BB60F9234
S1131AE01BBE2F933F934F935F936F937F938F937B
S1131AF09F93AF93BF93EF93FF93E0910D20F091E9
S1131B000E20309709F01995FF91EF91BF91AF9195
S1131B109F918F917F916F915F914F913F912F9101
S1131B200F900BBE0F9009BE0F9008BE0F900FBE12
S1131B300F901F9018951F920F920FB60F921124B9
S1131B4008B60F9218BE09B60F9219BE0BB60F92C3
S1131B501BBE2F933F934F935F936F937F938F930A
S1131B609F93AF93BF93EF93FF93E0910B20F0917A
S1131B700C20309709F01995FF91EF91BF91AF9127
S1131B809F918F917F916F915F914F913F912F9191
S1131B900F900BBE0F9009BE0F9008BE0F900FBEA2
S1131BA00F901F901895CF93DF93FC0120E030E055
S1131BB0C62FD0E0DE01022E02C0B595A7950A9487
S1131BC0E2F7A0FD508B2F5F3F4F3196283031054F
S1131BD089F740FF0AC041FF03C0FC01658302C0CE
S1131BE0FC016683FC01618302C0FC016283DF9116
S1131BF0CF91089543E050E068E080EC97E0D3DFB4
S1131C0040E058E164E080EC97E0CDCF0895F2DF46
S1131C10E0ECF7E098E0808582FD02C09683FBCF7C
S10B1C209583F9CFF894FFCF7E
S9030000FC
