S019000056616C6B7972696550726F746F747970652E73726563EE
S1130000FDC0000021C100001FC100001DC100008F
S11300101BC1000019C1000017C1000015C1000078
S113002013C1000011C10000A3C40000C4C4000037
S11300300BC10000A1C1000042C5000078C500004A
S1130040AEC50000E4C500001AC6000050C600009A
S113005086C60000BCC60000F2C6000028C7000027
S1130060F3C00000F1C00000EFC00000EDC00000CC
S1130070EBC00000E9C00000E7C00000E5C00000DC
S1130080E3C00000E1C00000DFC00000DDC00000EC
S1130090DBC00000D9C00000D7C0000029C30000A5
S11300A064C300009FC30000DAC30000CDC0000099
S11300B0CBC00000C9C00000C3C100000C94BF093C
S11300C00C94F7090C942F0A0C94670A0C949F0A59
S11300D00C94D70A0C940F0B0C94470B0C947F0BC5
S11300E00C94B70BB1C00000AFC00000ADC000005D
S11300F0ABC00000A9C00000A7C00000A5C000005C
S1130100A3C00000A1C000009FC000009DC000006B
S11301109BC0000099C0000097C00000F5C100001A
S113012030C200006BC20000A6C200008DC00000F7
S113013055C10000F4C600002AC7000060C70000D3
S113014096C70000CCC700000C94A7080C94DF08E5
S11301500C9417090C944F090C94870975C000007E
S113016073C0000071C000006FC000006DC00000CB
S11301706BC0000069C0000067C0000065C00000DB
S113018063C0000061C000005FC000005DC00000EB
S11301905BC0000059C0000057C0000055C00000FB
S11301A053C0000051C000004FC000007BC10000DC
S11301B00C94EF0B0C94270C0C945F0C0C94970C80
S11301C00C94CF0C0C94070D0C943F0D0C94770DEC
S11301D00C94AF0D0C94E70D37C0000035C000003F
S11301E033C0000031C000002FC000002DC000004B
S11301F02BC0000029C0000027C0000011241FBE2E
S1130200CFEFCDBFDFE3DEBF00E00CBF18BE19BEE9
S11302101ABE1BBE10E2A0E0B0E2E6E5FFE100E09A
S11302200BBF02C007900D92A830B107D9F71BBECF
S113023020E2A8E0B0E201C01D92A537B207E1F7C1
S11302400E94A40F0C94A90FDBCECF93DF93E0910F
S11302500820F0910920848183FF08C0886084838A
S113026083E0838386EF8093122083C0982F947158
S113027031F083E083838FEF809312207AC086FF6E
S113028043C0C8E0D0E2AA81BB818C819D811496D1
S11302902D913C911597821793076CF49C012F5F65
S11302A03F4F20930C2030930D20A80FB91F1196B7
S11302B08C9187835EC080910E2090910F201896B8
S11302C02D913C91199782179307C8F4209110201F
S11302D0222321F08681816086834BC016962D915E
S11302E03C911797AC014F5F5F4F40930E205093A2
S11302F00F20D901A80FB91F8C9187833AC083E0DE
S113030083831092122035C0882384F5A8E0B0E2DC
S11303101296CD91DC91139716968D919C91179717
S11303202885398582179307D8F46E817F819C01D3
S11303302F5F3F4F20930E2030930F204781DB0126
S1130340A80FB91F4C93888599852817390718F485
S113035082E083830EC087E083831092122009C059
S113036083E0838389EF8093122003C08BEF809313
S11303701220DF91CF9108951F920F920FB60F9222
S1130380112408B60F9218BE09B60F9219BE0BB607
S11303900F921BBE2F933F934F935F936F937F9363
S11303A08F939F93AF93BF93EF93FF934EDFFF9190
S11303B0EF91BF91AF919F918F917F916F915F91D9
S11303C04F913F912F910F900BBE0F9009BE0F904C
S11303D008BE0F900FBE0F901F9018951F920F929A
S11303E00FB60F92112408B60F9218BE09B60F92D9
S11303F019BE0BB60F921BBE2F933F934F935F937F
S11304006F937F938F939F93AF93BF93EF93FF93D8
S11304101CDFFF91EF91BF91AF919F918F917F91DD
S11304206F915F914F913F912F910F900BBE0F9061
S113043009BE0F9008BE0F900FBE0F901F90189525
S11304401F920F920FB60F92112408B60F9218BE86
S113045009B60F9219BE0BB60F921BBE2F933F9392
S11304604F935F936F937F938F939F93AF93BF93B8
S1130470EF93FF93EADEFF91EF91BF91AF919F91CC
S11304808F917F916F915F914F913F912F910F9039
S11304900BBE0F9009BE0F9008BE0F900FBE0F90B9
S11304A01F9018951F920F920FB60F92112408B641
S11304B00F9218BE09B60F9219BE0BB60F921BBE4F
S11304C02F933F934F935F936F937F938F939F9358
S11304D0AF93BF93EF93FF93B8DEFF91EF91BF917A
S11304E0AF919F918F917F916F915F914F913F91C8
S11304F02F910F900BBE0F9009BE0F9008BE0F9066
S11305000FBE0F901F9018951F920F920FB60F9267
S1130510112408B60F9218BE09B60F9219BE0BB675
S11305200F921BBE2F933F934F935F936F937F93D1
S11305308F939F93AF93BF93EF93FF9340912402C4
S113054050912502E0916520F091662061E080E001
S113055092E01995FF91EF91BF91AF919F918F9187
S11305607F916F915F914F913F912F910F900BBEAF
S11305700F9009BE0F9008BE0F900FBE0F901F90F2
S113058018951F920F920FB60F92112408B60F926E
S113059018BE09B60F9219BE0BB60F921BBE2F934D
S11305A03F934F935F936F937F938F939F93AF93F7
S11305B0BF93EF93FF9340912C0250912D02E09151
S11305C06520F091662062E080E092E01995FF9149
S11305D0EF91BF91AF919F918F917F916F915F91B7
S11305E04F913F912F910F900BBE0F9009BE0F902A
S11305F008BE0F900FBE0F901F9018951F920F9278
S11306000FB60F92112408B60F9218BE09B60F92B6
S113061019BE0BB60F921BBE2F933F934F935F935C
S11306206F937F938F939F93AF93BF93EF93FF93B6
S11306304091340250913502E0916520F09166209A
S113064064E080E092E01995FF91EF91BF91AF9142
S11306509F918F917F916F915F914F913F912F91D6
S11306600F900BBE0F9009BE0F9008BE0F900FBEE7
S11306700F901F9018951F920F920FB60F9211248E
S113068008B60F9218BE09B60F9219BE0BB60F9298
S11306901BBE2F933F934F935F936F937F938F93DF
S11306A09F93AF93BF93EF93FF9340913C0250917C
S11306B03D02E0916520F091662068E080E092E0E0
S11306C01995FF91EF91BF91AF919F918F917F9178
S11306D06F915F914F913F912F910F900BBE0F90AF
S11306E009BE0F9008BE0F900FBE0F901F90189573
S11306F01F920F920FB60F92112408B60F9218BED4
S113070009B60F9219BE0BB60F921BBE2F933F93DF
S11307104F935F936F937F938F939F93AF93BF9305
S1130720EF93FF934091640250916502E09163203E
S1130730F091642061E080E492E01995FF91EF91DB
S1130740BF91AF919F918F917F916F915F914F91E5
S11307503F912F910F900BBE0F9009BE0F9008BED2
S11307600F900FBE0F901F9018951F920F920FB607
S11307700F92112408B60F9218BE09B60F9219BE33
S11307800BB60F921BBE2F933F934F935F936F93C0
S11307907F938F939F93AF93BF93EF93FF93409176
S11307A06C0250916D02E0916320F091642062E04C
S11307B080E492E01995FF91EF91BF91AF919F91E1
S11307C08F917F916F915F914F913F912F910F90F6
S11307D00BBE0F9009BE0F9008BE0F900FBE0F9076
S11307E01F9018951F920F920FB60F92112408B6FE
S11307F00F9218BE09B60F9219BE0BB60F921BBE0C
S11308002F933F934F935F936F937F938F939F9314
S1130810AF93BF93EF93FF9340917402509175028D
S1130820E0916320F091642064E080E492E0199503
S1130830FF91EF91BF91AF919F918F917F916F91B4
S11308405F914F913F912F910F900BBE0F9009BE76
S11308500F9008BE0F900FBE0F901F9018951F9217
S11308600F920FB60F92112408B60F9218BE09B654
S11308700F9219BE0BB60F921BBE2F933F934F934B
S11308805F936F937F938F939F93AF93BF93EF93F4
S1130890FF9340917C0250917D02E0916320F0919E
S11308A0642068E080E492E01995FF91EF91BF9194
S11308B0AF919F918F917F916F915F914F913F91F4
S11308C02F910F900BBE0F9009BE0F9008BE0F9092
S11308D00FBE0F901F901895CF93DF931F921F9216
S11308E0CDB7DEB78FEF8093700080937100809353
S11308F072008093730080937400809375008093DA
S113090076008FB78A83F8949A81E0E5F0E08081DD
S1130910826080839FBF818181FFFDCF61E080E49D
S113092090E00E94F20E8FB78983F8949981E0E5F4
S1130930F0E080818E7F80839FBF0F900F90DF91C6
S1130940CF910895CF93DF931F92CDB7DEB79FB7B2
S11309509983F8949981E82FF0E0E059FF4F60956E
S11309608081682360839FBF0F90DF91CF910895AA
S11309701F920F920FB60F92112408B60F9218BE51
S11309800BB60F921BBE8F939F93EF93FF93EDE6ED
S1130990F0E280819181019680839183FF91EF91B0
S11309A09F918F910F900BBE0F9008BE0F900FBEBA
S11309B00F901F9018951F920F920FB60F9211244B
S11309C008B60F9218BE09B60F9219BE0BB60F9255
S11309D01BBECF92DF92EF92FF920F931F932F9340
S11309E03F934F935F936F937F938F939F93AF93B3
S11309F0BF93EF93FF93EDE6F0E280819181228132
S1130A00338182179307F0F121E020930204E091EF
S1130A107320F09174203097A9F1609108047091CB
S1130A200904A0E0B0E0DC0199278827AB0160E06D
S1130A3070E08C019D01042B152B262B372BC9014B
S1130A40B801ADE6B0E212960D911C91139720E027
S1130A5030E09801112700271496CD90DC9015976B
S1130A60E12CF12C0C291D292E293F2906171707E3
S1130A702807390730F0C901B8016F5F7F4F8F4FE6
S1130A809F4F1995FF91EF91BF91AF919F918F91D6
S1130A907F916F915F914F913F912F911F910F9192
S1130AA0FF90EF90DF90CF900F900BBE0F9009BE98
S1130AB00F9008BE0F900FBE0F901F9018951F92B5
S1130AC00F920FB60F92112408B60F9218BE09B6F2
S1130AD00F9219BE0BB60F921BBE2F933F934F93E9
S1130AE05F936F937F938F939F93AF93BF93EF9392
S1130AF0FF93E0916120F0916220309709F01995FD
S1130B00FF91EF91BF91AF919F918F917F916F91E1
S1130B105F914F913F912F910F900BBE0F9009BEA3
S1130B200F9008BE0F900FBE0F901F9018951F9244
S1130B300F920FB60F92112408B60F9218BE09B681
S1130B400F9219BE0BB60F921BBE2F933F934F9378
S1130B505F936F937F938F939F93AF93BF93EF9321
S1130B60FF93E0915F20F0916020309709F0199590
S1130B70FF91EF91BF91AF919F918F917F916F9171
S1130B805F914F913F912F910F900BBE0F9009BE33
S1130B900F9008BE0F900FBE0F901F9018951F92D4
S1130BA00F920FB60F92112408B60F9218BE09B611
S1130BB00F9219BE0BB60F921BBE2F933F934F9308
S1130BC05F936F937F938F939F93AF93BF93EF93B1
S1130BD0FF93E0915D20F0915E20309709F0199524
S1130BE0FF91EF91BF91AF919F918F917F916F9101
S1130BF05F914F913F912F910F900BBE0F9009BEC3
S1130C000F9008BE0F900FBE0F901F9018951F9263
S1130C100F920FB60F92112408B60F9218BE09B6A0
S1130C200F9219BE0BB60F921BBE2F933F934F9397
S1130C305F936F937F938F939F93AF93BF93EF9340
S1130C40FF93E0915B20F0915C20309709F01995B7
S1130C50FF91EF91BF91AF919F918F917F916F9190
S1130C605F914F913F912F910F900BBE0F9009BE52
S1130C700F9008BE0F900FBE0F901F9018951F92F3
S1130C800F920FB60F92112408B60F9218BE09B630
S1130C900F9219BE0BB60F921BBE2F933F934F9327
S1130CA05F936F937F938F939F93AF93BF93EF93D0
S1130CB0FF93E0915920F0915A20309709F019954B
S1130CC0FF91EF91BF91AF919F918F917F916F9120
S1130CD05F914F913F912F910F900BBE0F9009BEE2
S1130CE00F9008BE0F900FBE0F901F9018951F9283
S1130CF00F920FB60F92112408B60F9218BE09B6C0
S1130D000F9219BE0BB60F921BBE2F933F934F93B6
S1130D105F936F937F938F939F93AF93BF93EF935F
S1130D20FF93E0915720F0915820309709F01995DE
S1130D30FF91EF91BF91AF919F918F917F916F91AF
S1130D405F914F913F912F910F900BBE0F9009BE71
S1130D500F9008BE0F900FBE0F901F9018951F9212
S1130D600F920FB60F92112408B60F9218BE09B64F
S1130D700F9219BE0BB60F921BBE2F933F934F9346
S1130D805F936F937F938F939F93AF93BF93EF93EF
S1130D90FF93E0915520F0915620309709F0199572
S1130DA0FF91EF91BF91AF919F918F917F916F913F
S1130DB05F914F913F912F910F900BBE0F9009BE01
S1130DC00F9008BE0F900FBE0F901F9018951F92A2
S1130DD00F920FB60F92112408B60F9218BE09B6DF
S1130DE00F9219BE0BB60F921BBE2F933F934F93D6
S1130DF05F936F937F938F939F93AF93BF93EF937F
S1130E00FF93E0915320F0915420309709F0199505
S1130E10FF91EF91BF91AF919F918F917F916F91CE
S1130E205F914F913F912F910F900BBE0F9009BE90
S1130E300F9008BE0F900FBE0F901F9018951F9231
S1130E400F920FB60F92112408B60F9218BE09B66E
S1130E500F9219BE0BB60F921BBE2F933F934F9365
S1130E605F936F937F938F939F93AF93BF93EF930E
S1130E70FF93E0915120F0915220309709F0199599
S1130E80FF91EF91BF91AF919F918F917F916F915E
S1130E905F914F913F912F910F900BBE0F9009BE20
S1130EA00F9008BE0F900FBE0F901F9018951F92C1
S1130EB00F920FB60F92112408B60F9218BE09B6FE
S1130EC00F9219BE0BB60F921BBE2F933F934F93F5
S1130ED05F936F937F938F939F93AF93BF93EF939E
S1130EE0FF93E0914F20F0915020309709F019952D
S1130EF0FF91EF91BF91AF919F918F917F916F91EE
S1130F005F914F913F912F910F900BBE0F9009BEAF
S1130F100F9008BE0F900FBE0F901F9018951F9250
S1130F200F920FB60F92112408B60F9218BE09B68D
S1130F300F9219BE0BB60F921BBE2F933F934F9384
S1130F405F936F937F938F939F93AF93BF93EF932D
S1130F50FF93E0914D20F0914E20309709F01995C0
S1130F60FF91EF91BF91AF919F918F917F916F917D
S1130F705F914F913F912F910F900BBE0F9009BE3F
S1130F800F9008BE0F900FBE0F901F9018951F92E0
S1130F900F920FB60F92112408B60F9218BE09B61D
S1130FA00F9219BE0BB60F921BBE2F933F934F9314
S1130FB05F936F937F938F939F93AF93BF93EF93BD
S1130FC0FF93E0914B20F0914C20309709F0199554
S1130FD0FF91EF91BF91AF919F918F917F916F910D
S1130FE05F914F913F912F910F900BBE0F9009BECF
S1130FF00F9008BE0F900FBE0F901F9018951F9270
S11310000F920FB60F92112408B60F9218BE09B6AC
S11310100F9219BE0BB60F921BBE2F933F934F93A3
S11310205F936F937F938F939F93AF93BF93EF934C
S1131030FF93E0914920F0914A20309709F01995E7
S1131040FF91EF91BF91AF919F918F917F916F919C
S11310505F914F913F912F910F900BBE0F9009BE5E
S11310600F9008BE0F900FBE0F901F9018951F92FF
S11310700F920FB60F92112408B60F9218BE09B63C
S11310800F9219BE0BB60F921BBE2F933F934F9333
S11310905F936F937F938F939F93AF93BF93EF93DC
S11310A0FF93E0914720F0914820309709F019957B
S11310B0FF91EF91BF91AF919F918F917F916F912C
S11310C05F914F913F912F910F900BBE0F9009BEEE
S11310D00F9008BE0F900FBE0F901F9018951F928F
S11310E00F920FB60F92112408B60F9218BE09B6CC
S11310F00F9219BE0BB60F921BBE2F933F934F93C3
S11311005F936F937F938F939F93AF93BF93EF936B
S1131110FF93E0914520F0914620309709F019950E
S1131120FF91EF91BF91AF919F918F917F916F91BB
S11311305F914F913F912F910F900BBE0F9009BE7D
S11311400F9008BE0F900FBE0F901F9018951F921E
S11311500F920FB60F92112408B60F9218BE09B65B
S11311600F9219BE0BB60F921BBE2F933F934F9352
S11311705F936F937F938F939F93AF93BF93EF93FB
S1131180FF93E0914320F0914420309709F01995A2
S1131190FF91EF91BF91AF919F918F917F916F914B
S11311A05F914F913F912F910F900BBE0F9009BE0D
S11311B00F9008BE0F900FBE0F901F9018951F92AE
S11311C00F920FB60F92112408B60F9218BE09B6EB
S11311D00F9219BE0BB60F921BBE2F933F934F93E2
S11311E05F936F937F938F939F93AF93BF93EF938B
S11311F0FF93E0914120F0914220309709F0199536
S1131200FF91EF91BF91AF919F918F917F916F91DA
S11312105F914F913F912F910F900BBE0F9009BE9C
S11312200F9008BE0F900FBE0F901F9018951F923D
S11312300F920FB60F92112408B60F9218BE09B67A
S11312400F9219BE0BB60F921BBE2F933F934F9371
S11312505F936F937F938F939F93AF93BF93EF931A
S1131260FF93E0913F20F0914020309709F01995C9
S1131270FF91EF91BF91AF919F918F917F916F916A
S11312805F914F913F912F910F900BBE0F9009BE2C
S11312900F9008BE0F900FBE0F901F9018951F92CD
S11312A00F920FB60F92112408B60F9218BE09B60A
S11312B00F9219BE0BB60F921BBE2F933F934F9301
S11312C05F936F937F938F939F93AF93BF93EF93AA
S11312D0FF93E0913D20F0913E20309709F019955D
S11312E0FF91EF91BF91AF919F918F917F916F91FA
S11312F05F914F913F912F910F900BBE0F9009BEBC
S11313000F9008BE0F900FBE0F901F9018951F925C
S11313100F920FB60F92112408B60F9218BE09B699
S11313200F9219BE0BB60F921BBE2F933F934F9390
S11313305F936F937F938F939F93AF93BF93EF9339
S1131340FF93E0913B20F0913C20309709F01995F0
S1131350FF91EF91BF91AF919F918F917F916F9189
S11313605F914F913F912F910F900BBE0F9009BE4B
S11313700F9008BE0F900FBE0F901F9018951F92EC
S11313800F920FB60F92112408B60F9218BE09B629
S11313900F9219BE0BB60F921BBE2F933F934F9320
S11313A05F936F937F938F939F93AF93BF93EF93C9
S11313B0FF93E0913920F0913A20309709F0199584
S11313C0FF91EF91BF91AF919F918F917F916F9119
S11313D05F914F913F912F910F900BBE0F9009BEDB
S11313E00F9008BE0F900FBE0F901F9018951F927C
S11313F00F920FB60F92112408B60F9218BE09B6B9
S11314000F9219BE0BB60F921BBE2F933F934F93AF
S11314105F936F937F938F939F93AF93BF93EF9358
S1131420FF93E0913720F0913820309709F0199517
S1131430FF91EF91BF91AF919F918F917F916F91A8
S11314405F914F913F912F910F900BBE0F9009BE6A
S11314500F9008BE0F900FBE0F901F9018951F920B
S11314600F920FB60F92112408B60F9218BE09B648
S11314700F9219BE0BB60F921BBE2F933F934F933F
S11314805F936F937F938F939F93AF93BF93EF93E8
S1131490FF93E0913520F0913620309709F01995AB
S11314A0FF91EF91BF91AF919F918F917F916F9138
S11314B05F914F913F912F910F900BBE0F9009BEFA
S11314C00F9008BE0F900FBE0F901F9018951F929B
S11314D00F920FB60F92112408B60F9218BE09B6D8
S11314E00F9219BE0BB60F921BBE2F933F934F93CF
S11314F05F936F937F938F939F93AF93BF93EF9378
S1131500FF93E0913320F0913420309709F019953E
S1131510FF91EF91BF91AF919F918F917F916F91C7
S11315205F914F913F912F910F900BBE0F9009BE89
S11315300F9008BE0F900FBE0F901F9018951F922A
S11315400F920FB60F92112408B60F9218BE09B667
S11315500F9219BE0BB60F921BBE2F933F934F935E
S11315605F936F937F938F939F93AF93BF93EF9307
S1131570FF93E0913120F0913220309709F01995D2
S1131580FF91EF91BF91AF919F918F917F916F9157
S11315905F914F913F912F910F900BBE0F9009BE19
S11315A00F9008BE0F900FBE0F901F9018951F92BA
S11315B00F920FB60F92112408B60F9218BE09B6F7
S11315C00F9219BE0BB60F921BBE2F933F934F93EE
S11315D05F936F937F938F939F93AF93BF93EF9397
S11315E0FF93E0912F20F0913020309709F0199566
S11315F0FF91EF91BF91AF919F918F917F916F91E7
S11316005F914F913F912F910F900BBE0F9009BEA8
S11316100F9008BE0F900FBE0F901F9018951F9249
S11316200F920FB60F92112408B60F9218BE09B686
S11316300F9219BE0BB60F921BBE2F933F934F937D
S11316405F936F937F938F939F93AF93BF93EF9326
S1131650FF93E0912D20F0912E20309709F01995F9
S1131660FF91EF91BF91AF919F918F917F916F9176
S11316705F914F913F912F910F900BBE0F9009BE38
S11316800F9008BE0F900FBE0F901F9018951F92D9
S11316900F920FB60F92112408B60F9218BE09B616
S11316A00F9219BE0BB60F921BBE2F933F934F930D
S11316B05F936F937F938F939F93AF93BF93EF93B6
S11316C0FF93E0912B20F0912C20309709F019958D
S11316D0FF91EF91BF91AF919F918F917F916F9106
S11316E05F914F913F912F910F900BBE0F9009BEC8
S11316F00F9008BE0F900FBE0F901F9018951F9269
S11317000F920FB60F92112408B60F9218BE09B6A5
S11317100F9219BE0BB60F921BBE2F933F934F939C
S11317205F936F937F938F939F93AF93BF93EF9345
S1131730FF93E0912920F0912A20309709F0199520
S1131740FF91EF91BF91AF919F918F917F916F9195
S11317505F914F913F912F910F900BBE0F9009BE57
S11317600F9008BE0F900FBE0F901F9018951F92F8
S11317700F920FB60F92112408B60F9218BE09B635
S11317800F9219BE0BB60F921BBE2F933F934F932C
S11317905F936F937F938F939F93AF93BF93EF93D5
S11317A0FF93E0912720F0912820309709F01995B4
S11317B0FF91EF91BF91AF919F918F917F916F9125
S11317C05F914F913F912F910F900BBE0F9009BEE7
S11317D00F9008BE0F900FBE0F901F9018951F9288
S11317E00F920FB60F92112408B60F9218BE09B6C5
S11317F00F9219BE0BB60F921BBE2F933F934F93BC
S11318005F936F937F938F939F93AF93BF93EF9364
S1131810FF93E0912520F0912620309709F0199547
S1131820FF91EF91BF91AF919F918F917F916F91B4
S11318305F914F913F912F910F900BBE0F9009BE76
S11318400F9008BE0F900FBE0F901F9018951F9217
S11318500F920FB60F92112408B60F9218BE09B654
S11318600F9219BE0BB60F921BBE2F933F934F934B
S11318705F936F937F938F939F93AF93BF93EF93F4
S1131880FF93E0912320F0912420309709F01995DB
S1131890FF91EF91BF91AF919F918F917F916F9144
S11318A05F914F913F912F910F900BBE0F9009BE06
S11318B00F9008BE0F900FBE0F901F9018951F92A7
S11318C00F920FB60F92112408B60F9218BE09B6E4
S11318D00F9219BE0BB60F921BBE2F933F934F93DB
S11318E05F936F937F938F939F93AF93BF93EF9384
S11318F0FF93E0912120F0912220309709F019956F
S1131900FF91EF91BF91AF919F918F917F916F91D3
S11319105F914F913F912F910F900BBE0F9009BE95
S11319200F9008BE0F900FBE0F901F9018951F9236
S11319300F920FB60F92112408B60F9218BE09B673
S11319400F9219BE0BB60F921BBE2F933F934F936A
S11319505F936F937F938F939F93AF93BF93EF9313
S1131960FF93E0911F20F0912020309709F0199502
S1131970FF91EF91BF91AF919F918F917F916F9163
S11319805F914F913F912F910F900BBE0F9009BE25
S11319900F9008BE0F900FBE0F901F9018951F92C6
S11319A00F920FB60F92112408B60F9218BE09B603
S11319B00F9219BE0BB60F921BBE2F933F934F93FA
S11319C05F936F937F938F939F93AF93BF93EF93A3
S11319D0FF93E0911D20F0911E20309709F0199596
S11319E0FF91EF91BF91AF919F918F917F916F91F3
S11319F05F914F913F912F910F900BBE0F9009BEB5
S1131A000F9008BE0F900FBE0F901F9018951F9255
S1131A100F920FB60F92112408B60F9218BE09B692
S1131A200F9219BE0BB60F921BBE2F933F934F9389
S1131A305F936F937F938F939F93AF93BF93EF9332
S1131A40FF93E0911B20F0911C20309709F0199529
S1131A50FF91EF91BF91AF919F918F917F916F9182
S1131A605F914F913F912F910F900BBE0F9009BE44
S1131A700F9008BE0F900FBE0F901F9018951F92E5
S1131A800F920FB60F92112408B60F9218BE09B622
S1131A900F9219BE0BB60F921BBE2F933F934F9319
S1131AA05F936F937F938F939F93AF93BF93EF93C2
S1131AB0FF93E0911920F0911A20309709F01995BD
S1131AC0FF91EF91BF91AF919F918F917F916F9112
S1131AD05F914F913F912F910F900BBE0F9009BED4
S1131AE00F9008BE0F900FBE0F901F9018951F9275
S1131AF00F920FB60F92112408B60F9218BE09B6B2
S1131B000F9219BE0BB60F921BBE2F933F934F93A8
S1131B105F936F937F938F939F93AF93BF93EF9351
S1131B20FF93E0911720F0911820309709F0199550
S1131B30FF91EF91BF91AF919F918F917F916F91A1
S1131B405F914F913F912F910F900BBE0F9009BE63
S1131B500F9008BE0F900FBE0F901F9018951F9204
S1131B600F920FB60F92112408B60F9218BE09B641
S1131B700F9219BE0BB60F921BBE2F933F934F9338
S1131B805F936F937F938F939F93AF93BF93EF93E1
S1131B90FF93E0911520F0911620309709F01995E4
S1131BA0FF91EF91BF91AF919F918F917F916F9131
S1131BB05F914F913F912F910F900BBE0F9009BEF3
S1131BC00F9008BE0F900FBE0F901F9018951F9294
S1131BD00F920FB60F92112408B60F9218BE09B6D1
S1131BE00F9219BE0BB60F921BBE2F933F934F93C8
S1131BF05F936F937F938F939F93AF93BF93EF9371
S1131C00FF93E0911320F0911420309709F0199577
S1131C10FF91EF91BF91AF919F918F917F916F91C0
S1131C205F914F913F912F910F900BBE0F9009BE82
S1131C300F9008BE0F900FBE0F901F9018951F9322
S1131C40CF93DF931F921F92CDB7DEB72FB72A83AE
S1131C50F8941A81282F392F211588E0380749F480
S1131C6061E083E00E94A20464E083E00E94A20495
S1131C705CC0203488E0380749F462E083E00E94C5
S1131C80A20464E083E00E94A2044FC0211589E00D
S1131C90380749F461E084E00E94A20464E084E02F
S1131CA00E94A20442C0203489E0380749F462E06B
S1131CB084E00E94A20464E084E00E94A20435C08F
S1131CC021158AE0380749F461E085E00E94A20406
S1131CD064E085E00E94A20428C020348AE038072A
S1131CE049F462E085E00E94A20464E085E00E9479
S1131CF0A2041BC021158BE0380749F461E086E09B
S1131D000E94A20464E086E00E94A2040EC0203473
S1131D103B4049F462E086E00E94A20464E086E06D
S1131D200E94A20402C01FBF10C0809168208F3F90
S1131D3009F4FFCF8FB78983F8949981E7E6F0E23D
S1131D4081818F5F81839FBF1FBF0F900F90DF91B1
S1131D50CF911F910895811528E0920729F460938B
S1131D606120709362200895803428E0920729F45A
S1131D7060935520709356200895811529E09207A9
S1131D8029F460934D2070934E200895803429E007
S1131D90920729F46093412070934220089581159D
S1131DA02AE0920729F46093392070933A20089529
S1131DB080342AE0920729F460932D2070932E201A
S1131DC0089581152BE0920729F4609325207093E0
S1131DD02620089580349B4021F460931920709349
S1131DE01A2008951BBEFC0128ED24BF60830895CA
S1131DF0CF93DF93FC0120E030E0C62FD0E0DE017A
S1131E00022E02C0B595A7950A94E2F7A0FD508B67
S1131E102F5F3F4F31962830310589F740FF0AC0C4
S1131E2041FF03C0FC01658302C0FC016683FC0121
S1131E30618302C0FC016283DF91CF91089543E086
S1131E4050E068E080EC97E0D3DF40E058E164E0E4
S1131E5080EC97E0CDCF089504C0615071098109E9
S1131E6091096115710581059105B9F70895E0ECB3
S1131E70F7E0948188E08927848308950F931F9362
S1131E80CF93DF93CDB7DEB72897CDBFDEBF2983CD
S1131E903A834B835C836D837E838F8398870B8126
S1131EA01C8187E08093A200C801C9DE6F81788518
S1131EB0C80151DFF8018181887F81838D819E81F2
S1131EC086A397A386818C7F86838681816086839F
S1131ED078948081807F876080832896CDBFDEBF21
S1131EE0DF91CF911F910F910895CF93DF93CDB7D9
S1131EF0DEB72897CDBFDEBFE0ECF7E080818860D5
S1131F00808388E0E0E0F0E2DE01119601900D921A
S1131F108A95E1F729813A814B815C816D817E81CB
S1131F208F819885ABDF6CEA76EE86E991E094DFE9
S1131F3089E09DE38093260A9093270A2896CDBFD3
S1131F40DEBFDF91CF9108957ADF0E946C04CDDF6C
S1091F50FFCFF894FFCF5F
S10B1F568006000A127A370F1D
S9030000FC
